{
  "_format": "hh-sol-artifact-1",
  "contractName": "Expir3",
  "sourceName": "contracts/Expir3.sol",
  "abi": [
    {
      "inputs": [],
      "stateMutability": "nonpayable",
      "type": "constructor"
    },
    {
      "inputs": [],
      "name": "InvalidLegacy",
      "type": "error"
    },
    {
      "inputs": [],
      "name": "NoLegacyRegistered",
      "type": "error"
    },
    {
      "inputs": [],
      "name": "NonTransferrableToken",
      "type": "error"
    },
    {
      "anonymous": false,
      "inputs": [
        {
          "indexed": true,
          "internalType": "uint256",
          "name": "timestamp",
          "type": "uint256"
        },
        {
          "indexed": true,
          "internalType": "address",
          "name": "testator",
          "type": "address"
        },
        {
          "indexed": true,
          "internalType": "address",
          "name": "token",
          "type": "address"
        },
        {
          "indexed": false,
          "internalType": "address",
          "name": "beneficiary",
          "type": "address"
        },
        {
          "indexed": false,
          "internalType": "uint256",
          "name": "amount",
          "type": "uint256"
        },
        {
          "indexed": false,
          "internalType": "uint256",
          "name": "tokenId",
          "type": "uint256"
        },
        {
          "indexed": false,
          "internalType": "uint256",
          "name": "nftId",
          "type": "uint256"
        }
      ],
      "name": "AddLegacy",
      "type": "event"
    },
    {
      "anonymous": false,
      "inputs": [
        {
          "indexed": true,
          "internalType": "address",
          "name": "owner",
          "type": "address"
        },
        {
          "indexed": true,
          "internalType": "address",
          "name": "approved",
          "type": "address"
        },
        {
          "indexed": true,
          "internalType": "uint256",
          "name": "tokenId",
          "type": "uint256"
        }
      ],
      "name": "Approval",
      "type": "event"
    },
    {
      "anonymous": false,
      "inputs": [
        {
          "indexed": true,
          "internalType": "address",
          "name": "owner",
          "type": "address"
        },
        {
          "indexed": true,
          "internalType": "address",
          "name": "operator",
          "type": "address"
        },
        {
          "indexed": false,
          "internalType": "bool",
          "name": "approved",
          "type": "bool"
        }
      ],
      "name": "ApprovalForAll",
      "type": "event"
    },
    {
      "anonymous": false,
      "inputs": [
        {
          "indexed": true,
          "internalType": "uint256",
          "name": "timestamp",
          "type": "uint256"
        },
        {
          "indexed": true,
          "internalType": "address",
          "name": "testator",
          "type": "address"
        },
        {
          "indexed": true,
          "internalType": "uint256",
          "name": "executionDay",
          "type": "uint256"
        }
      ],
      "name": "Executed",
      "type": "event"
    },
    {
      "anonymous": false,
      "inputs": [
        {
          "indexed": true,
          "internalType": "uint256",
          "name": "timestamp",
          "type": "uint256"
        },
        {
          "indexed": true,
          "internalType": "address",
          "name": "testator",
          "type": "address"
        },
        {
          "indexed": true,
          "internalType": "address",
          "name": "beneficiary",
          "type": "address"
        },
        {
          "indexed": false,
          "internalType": "address",
          "name": "token",
          "type": "address"
        },
        {
          "indexed": false,
          "internalType": "uint256",
          "name": "amount",
          "type": "uint256"
        },
        {
          "indexed": false,
          "internalType": "uint256",
          "name": "tokenId",
          "type": "uint256"
        },
        {
          "indexed": false,
          "internalType": "uint256",
          "name": "nftId",
          "type": "uint256"
        }
      ],
      "name": "LegacyTransferFailed",
      "type": "event"
    },
    {
      "anonymous": false,
      "inputs": [
        {
          "indexed": true,
          "internalType": "uint256",
          "name": "timestamp",
          "type": "uint256"
        },
        {
          "indexed": true,
          "internalType": "address",
          "name": "testator",
          "type": "address"
        },
        {
          "indexed": true,
          "internalType": "uint256",
          "name": "executionDay",
          "type": "uint256"
        }
      ],
      "name": "NewExecutionDay",
      "type": "event"
    },
    {
      "anonymous": false,
      "inputs": [
        {
          "indexed": true,
          "internalType": "address",
          "name": "previousOwner",
          "type": "address"
        },
        {
          "indexed": true,
          "internalType": "address",
          "name": "newOwner",
          "type": "address"
        }
      ],
      "name": "OwnershipTransferred",
      "type": "event"
    },
    {
      "anonymous": false,
      "inputs": [
        {
          "indexed": true,
          "internalType": "uint256",
          "name": "timestamp",
          "type": "uint256"
        },
        {
          "indexed": true,
          "internalType": "address",
          "name": "testator",
          "type": "address"
        },
        {
          "indexed": true,
          "internalType": "address",
          "name": "token",
          "type": "address"
        },
        {
          "indexed": false,
          "internalType": "address",
          "name": "beneficiary",
          "type": "address"
        },
        {
          "indexed": false,
          "internalType": "uint256",
          "name": "amount",
          "type": "uint256"
        },
        {
          "indexed": false,
          "internalType": "uint256",
          "name": "tokenId",
          "type": "uint256"
        },
        {
          "indexed": false,
          "internalType": "uint256",
          "name": "nftId",
          "type": "uint256"
        }
      ],
      "name": "RemoveLegacy",
      "type": "event"
    },
    {
      "anonymous": false,
      "inputs": [
        {
          "indexed": true,
          "internalType": "address",
          "name": "from",
          "type": "address"
        },
        {
          "indexed": true,
          "internalType": "address",
          "name": "to",
          "type": "address"
        },
        {
          "indexed": true,
          "internalType": "uint256",
          "name": "tokenId",
          "type": "uint256"
        }
      ],
      "name": "Transfer",
      "type": "event"
    },
    {
      "inputs": [
        {
          "internalType": "address",
          "name": "token",
          "type": "address"
        },
        {
          "internalType": "address",
          "name": "beneficiary",
          "type": "address"
        },
        {
          "internalType": "uint256",
          "name": "amount",
          "type": "uint256"
        },
        {
          "internalType": "uint256",
          "name": "tokenId",
          "type": "uint256"
        }
      ],
      "name": "addLegacy",
      "outputs": [],
      "stateMutability": "nonpayable",
      "type": "function"
    },
    {
      "inputs": [
        {
          "internalType": "address",
          "name": "to",
          "type": "address"
        },
        {
          "internalType": "uint256",
          "name": "tokenId",
          "type": "uint256"
        }
      ],
      "name": "approve",
      "outputs": [],
      "stateMutability": "nonpayable",
      "type": "function"
    },
    {
      "inputs": [
        {
          "internalType": "address",
          "name": "owner",
          "type": "address"
        }
      ],
      "name": "balanceOf",
      "outputs": [
        {
          "internalType": "uint256",
          "name": "",
          "type": "uint256"
        }
      ],
      "stateMutability": "view",
      "type": "function"
    },
    {
      "inputs": [],
      "name": "checkIn",
      "outputs": [],
      "stateMutability": "nonpayable",
      "type": "function"
    },
    {
      "inputs": [
        {
          "internalType": "bytes",
          "name": "",
          "type": "bytes"
        }
      ],
      "name": "checkUpkeep",
      "outputs": [
        {
          "internalType": "bool",
          "name": "upkeepNeeded",
          "type": "bool"
        },
        {
          "internalType": "bytes",
          "name": "tempData",
          "type": "bytes"
        }
      ],
      "stateMutability": "view",
      "type": "function"
    },
    {
      "inputs": [
        {
          "internalType": "uint256",
          "name": "day",
          "type": "uint256"
        }
      ],
      "name": "executeDay",
      "outputs": [],
      "stateMutability": "nonpayable",
      "type": "function"
    },
    {
      "inputs": [
        {
          "internalType": "address",
          "name": "",
          "type": "address"
        }
      ],
      "name": "executionDay",
      "outputs": [
        {
          "internalType": "uint256",
          "name": "",
          "type": "uint256"
        }
      ],
      "stateMutability": "view",
      "type": "function"
    },
    {
      "inputs": [
        {
          "internalType": "uint256",
          "name": "",
          "type": "uint256"
        },
        {
          "internalType": "uint256",
          "name": "",
          "type": "uint256"
        }
      ],
      "name": "executionList",
      "outputs": [
        {
          "internalType": "address",
          "name": "",
          "type": "address"
        }
      ],
      "stateMutability": "view",
      "type": "function"
    },
    {
      "inputs": [],
      "name": "fakeExecute",
      "outputs": [],
      "stateMutability": "nonpayable",
      "type": "function"
    },
    {
      "inputs": [],
      "name": "fakeUpkeep",
      "outputs": [
        {
          "internalType": "bool",
          "name": "",
          "type": "bool"
        }
      ],
      "stateMutability": "view",
      "type": "function"
    },
    {
      "inputs": [
        {
          "internalType": "uint256",
          "name": "tokenId",
          "type": "uint256"
        }
      ],
      "name": "getApproved",
      "outputs": [
        {
          "internalType": "address",
          "name": "",
          "type": "address"
        }
      ],
      "stateMutability": "view",
      "type": "function"
    },
    {
      "inputs": [
        {
          "internalType": "address",
          "name": "owner",
          "type": "address"
        },
        {
          "internalType": "address",
          "name": "operator",
          "type": "address"
        }
      ],
      "name": "isApprovedForAll",
      "outputs": [
        {
          "internalType": "bool",
          "name": "",
          "type": "bool"
        }
      ],
      "stateMutability": "view",
      "type": "function"
    },
    {
      "inputs": [
        {
          "internalType": "address",
          "name": "",
          "type": "address"
        },
        {
          "internalType": "uint256",
          "name": "",
          "type": "uint256"
        }
      ],
      "name": "legacies",
      "outputs": [
        {
          "internalType": "uint256",
          "name": "",
          "type": "uint256"
        }
      ],
      "stateMutability": "view",
      "type": "function"
    },
    {
      "inputs": [
        {
          "internalType": "uint256",
          "name": "",
          "type": "uint256"
        }
      ],
      "name": "legacyNFTs",
      "outputs": [
        {
          "internalType": "address",
          "name": "testator",
          "type": "address"
        },
        {
          "internalType": "address",
          "name": "token",
          "type": "address"
        },
        {
          "internalType": "address",
          "name": "beneficiary",
          "type": "address"
        },
        {
          "internalType": "uint256",
          "name": "amount",
          "type": "uint256"
        },
        {
          "internalType": "uint256",
          "name": "tokenId",
          "type": "uint256"
        },
        {
          "internalType": "uint256",
          "name": "nftId",
          "type": "uint256"
        }
      ],
      "stateMutability": "view",
      "type": "function"
    },
    {
      "inputs": [],
      "name": "name",
      "outputs": [
        {
          "internalType": "string",
          "name": "",
          "type": "string"
        }
      ],
      "stateMutability": "view",
      "type": "function"
    },
    {
      "inputs": [],
      "name": "owner",
      "outputs": [
        {
          "internalType": "address",
          "name": "",
          "type": "address"
        }
      ],
      "stateMutability": "view",
      "type": "function"
    },
    {
      "inputs": [
        {
          "internalType": "uint256",
          "name": "tokenId",
          "type": "uint256"
        }
      ],
      "name": "ownerOf",
      "outputs": [
        {
          "internalType": "address",
          "name": "",
          "type": "address"
        }
      ],
      "stateMutability": "view",
      "type": "function"
    },
    {
      "inputs": [
        {
          "internalType": "bytes",
          "name": "",
          "type": "bytes"
        }
      ],
      "name": "performUpkeep",
      "outputs": [],
      "stateMutability": "nonpayable",
      "type": "function"
    },
    {
      "inputs": [
        {
          "internalType": "uint256",
          "name": "position",
          "type": "uint256"
        }
      ],
      "name": "removeLegacy",
      "outputs": [],
      "stateMutability": "nonpayable",
      "type": "function"
    },
    {
      "inputs": [],
      "name": "renounceOwnership",
      "outputs": [],
      "stateMutability": "nonpayable",
      "type": "function"
    },
    {
      "inputs": [
        {
          "internalType": "address",
          "name": "from",
          "type": "address"
        },
        {
          "internalType": "address",
          "name": "to",
          "type": "address"
        },
        {
          "internalType": "uint256",
          "name": "tokenId",
          "type": "uint256"
        }
      ],
      "name": "safeTransferFrom",
      "outputs": [],
      "stateMutability": "nonpayable",
      "type": "function"
    },
    {
      "inputs": [
        {
          "internalType": "address",
          "name": "from",
          "type": "address"
        },
        {
          "internalType": "address",
          "name": "to",
          "type": "address"
        },
        {
          "internalType": "uint256",
          "name": "tokenId",
          "type": "uint256"
        },
        {
          "internalType": "bytes",
          "name": "data",
          "type": "bytes"
        }
      ],
      "name": "safeTransferFrom",
      "outputs": [],
      "stateMutability": "nonpayable",
      "type": "function"
    },
    {
      "inputs": [
        {
          "internalType": "address",
          "name": "operator",
          "type": "address"
        },
        {
          "internalType": "bool",
          "name": "approved",
          "type": "bool"
        }
      ],
      "name": "setApprovalForAll",
      "outputs": [],
      "stateMutability": "nonpayable",
      "type": "function"
    },
    {
      "inputs": [
        {
          "internalType": "bytes4",
          "name": "interfaceId",
          "type": "bytes4"
        }
      ],
      "name": "supportsInterface",
      "outputs": [
        {
          "internalType": "bool",
          "name": "",
          "type": "bool"
        }
      ],
      "stateMutability": "view",
      "type": "function"
    },
    {
      "inputs": [],
      "name": "symbol",
      "outputs": [
        {
          "internalType": "string",
          "name": "",
          "type": "string"
        }
      ],
      "stateMutability": "view",
      "type": "function"
    },
    {
      "inputs": [
        {
          "internalType": "uint256",
          "name": "tokenId",
          "type": "uint256"
        }
      ],
      "name": "tokenURI",
      "outputs": [
        {
          "internalType": "string",
          "name": "",
          "type": "string"
        }
      ],
      "stateMutability": "view",
      "type": "function"
    },
    {
      "inputs": [
        {
          "internalType": "address",
          "name": "from",
          "type": "address"
        },
        {
          "internalType": "address",
          "name": "to",
          "type": "address"
        },
        {
          "internalType": "uint256",
          "name": "tokenId",
          "type": "uint256"
        }
      ],
      "name": "transferFrom",
      "outputs": [],
      "stateMutability": "nonpayable",
      "type": "function"
    },
    {
      "inputs": [
        {
          "internalType": "address",
          "name": "newOwner",
          "type": "address"
        }
      ],
      "name": "transferOwnership",
      "outputs": [],
      "stateMutability": "nonpayable",
      "type": "function"
    },
    {
      "inputs": [
        {
          "internalType": "uint256",
          "name": "day",
          "type": "uint256"
        }
      ],
      "name": "willsToExecuteInDay",
      "outputs": [
        {
          "internalType": "bool",
          "name": "",
          "type": "bool"
        }
      ],
      "stateMutability": "view",
      "type": "function"
    },
    {
      "inputs": [
        {
          "internalType": "contract IERC20",
          "name": "_tokenAddress",
          "type": "address"
        }
      ],
      "name": "withdrawToken",
      "outputs": [],
      "stateMutability": "nonpayable",
      "type": "function"
    }
  ],
  "bytecode": "0x60806040523480156200001157600080fd5b506040518060400160405280600681526020017f45787069723300000000000000000000000000000000000000000000000000008152506040518060400160405280600381526020017f45585000000000000000000000000000000000000000000000000000000000008152506200009e62000092620000e860201b60201c565b620000f060201b60201c565b600180819055508160029081620000b6919062000444565b508060039081620000c8919062000444565b505050620000e26008620001b460201b6200203e1760201c565b6200052b565b600033905090565b60008060009054906101000a900473ffffffffffffffffffffffffffffffffffffffff169050816000806101000a81548173ffffffffffffffffffffffffffffffffffffffff021916908373ffffffffffffffffffffffffffffffffffffffff1602179055508173ffffffffffffffffffffffffffffffffffffffff168173ffffffffffffffffffffffffffffffffffffffff167f8be0079c531659141344cd1fd0a4f28419497f9722a3daafe3b4186f6b6457e060405160405180910390a35050565b6001816000016000828254019250508190555050565b600081519050919050565b7f4e487b7100000000000000000000000000000000000000000000000000000000600052604160045260246000fd5b7f4e487b7100000000000000000000000000000000000000000000000000000000600052602260045260246000fd5b600060028204905060018216806200024c57607f821691505b60208210810362000262576200026162000204565b5b50919050565b60008190508160005260206000209050919050565b60006020601f8301049050919050565b600082821b905092915050565b600060088302620002cc7fffffffffffffffffffffffffffffffffffffffffffffffffffffffffffffffff826200028d565b620002d886836200028d565b95508019841693508086168417925050509392505050565b6000819050919050565b6000819050919050565b6000620003256200031f6200031984620002f0565b620002fa565b620002f0565b9050919050565b6000819050919050565b620003418362000304565b6200035962000350826200032c565b8484546200029a565b825550505050565b600090565b6200037062000361565b6200037d81848462000336565b505050565b5b81811015620003a5576200039960008262000366565b60018101905062000383565b5050565b601f821115620003f457620003be8162000268565b620003c9846200027d565b81016020851015620003d9578190505b620003f1620003e8856200027d565b83018262000382565b50505b505050565b600082821c905092915050565b60006200041960001984600802620003f9565b1980831691505092915050565b600062000434838362000406565b9150826002028217905092915050565b6200044f82620001ca565b67ffffffffffffffff8111156200046b576200046a620001d5565b5b62000477825462000233565b62000484828285620003a9565b600060209050601f831160018114620004bc5760008415620004a7578287015190505b620004b3858262000426565b86555062000523565b601f198416620004cc8662000268565b60005b82811015620004f657848901518255600182019150602085019450602081019050620004cf565b8683101562000516578489015162000512601f89168262000406565b8355505b6001600288020188555050505b505050505050565b615b02806200053b6000396000f3fe608060405234801561001057600080fd5b50600436106101da5760003560e01c806370a0823111610104578063b88d4fde116100a2578063f02da65f11610071578063f02da65f1461057b578063f2fde38b146105ab578063f3feed41146105c7578063fff12162146105e5576101da565b8063b88d4fde146104cf578063c87b56dd146104eb578063cfc3ebe71461051b578063e985e9c51461054b576101da565b80638da5cb5b116100de5780638da5cb5b1461044257806394d7729f1461046057806395d89b4114610495578063a22cb465146104b3576101da565b806370a08231146103ec578063715018a61461041c5780638947606914610426576101da565b806342842e0e1161017c5780636352211e1161014b5780636352211e1461033f57806366484fcf1461036f5780636aac353f1461038b5780636e04ff0d146103bb576101da565b806342842e0e146102bb5780634585e33b146102d75780634cd37174146102f357806353190ec514610323576101da565b8063095ea7b3116101b8578063095ea7b31461025d578063183ff085146102795780631a56273f1461028357806323b872dd1461029f576101da565b806301ffc9a7146101df57806306fdde031461020f578063081812fc1461022d575b600080fd5b6101f960048036038101906101f49190613ca3565b6105ef565b6040516102069190613ceb565b60405180910390f35b6102176106d1565b6040516102249190613d96565b60405180910390f35b61024760048036038101906102429190613dee565b610763565b6040516102549190613e5c565b60405180910390f35b61027760048036038101906102729190613ea3565b6107a9565b005b6102816108c0565b005b61029d60048036038101906102989190613dee565b610df9565b005b6102b960048036038101906102b49190613ee3565b610fa0565b005b6102d560048036038101906102d09190613ee3565b611000565b005b6102f160048036038101906102ec9190613f9b565b611020565b005b61030d60048036038101906103089190613dee565b611049565b60405161031a9190613ceb565b60405180910390f35b61033d60048036038101906103389190613fe8565b61106b565b005b61035960048036038101906103549190613dee565b611437565b6040516103669190613e5c565b60405180910390f35b61038960048036038101906103849190613dee565b6114e8565b005b6103a560048036038101906103a0919061404f565b611910565b6040516103b29190613e5c565b60405180910390f35b6103d560048036038101906103d09190613f9b565b61195e565b6040516103e39291906140e4565b60405180910390f35b61040660048036038101906104019190614114565b6119ac565b6040516104139190614150565b60405180910390f35b610424611a63565b005b610440600480360381019061043b91906141a9565b611a77565b005b61044a611bb8565b6040516104579190613e5c565b60405180910390f35b61047a60048036038101906104759190613dee565b611be1565b60405161048c969594939291906141d6565b60405180910390f35b61049d611c7d565b6040516104aa9190613d96565b60405180910390f35b6104cd60048036038101906104c89190614263565b611d0f565b005b6104e960048036038101906104e491906143d3565b611d25565b005b61050560048036038101906105009190613dee565b611d87565b6040516105129190613d96565b60405180910390f35b61053560048036038101906105309190613ea3565b611e86565b6040516105429190614150565b60405180910390f35b61056560048036038101906105609190614456565b611eb7565b6040516105729190613ceb565b60405180910390f35b61059560048036038101906105909190614114565b611f4b565b6040516105a29190614150565b60405180910390f35b6105c560048036038101906105c09190614114565b611f63565b005b6105cf611fe6565b6040516105dc9190613ceb565b60405180910390f35b6105ed612017565b005b60007f80ac58cd000000000000000000000000000000000000000000000000000000007bffffffffffffffffffffffffffffffffffffffffffffffffffffffff1916827bffffffffffffffffffffffffffffffffffffffffffffffffffffffff191614806106ba57507f5b5e139f000000000000000000000000000000000000000000000000000000007bffffffffffffffffffffffffffffffffffffffffffffffffffffffff1916827bffffffffffffffffffffffffffffffffffffffffffffffffffffffff1916145b806106ca57506106c982612054565b5b9050919050565b6060600280546106e0906144c5565b80601f016020809104026020016040519081016040528092919081815260200182805461070c906144c5565b80156107595780601f1061072e57610100808354040283529160200191610759565b820191906000526020600020905b81548152906001019060200180831161073c57829003601f168201915b5050505050905090565b600061076e826120be565b6006600083815260200190815260200160002060009054906101000a900473ffffffffffffffffffffffffffffffffffffffff169050919050565b60006107b482611437565b90508073ffffffffffffffffffffffffffffffffffffffff168373ffffffffffffffffffffffffffffffffffffffff1603610824576040517f08c379a000000000000000000000000000000000000000000000000000000000815260040161081b90614568565b60405180910390fd5b8073ffffffffffffffffffffffffffffffffffffffff16610843612109565b73ffffffffffffffffffffffffffffffffffffffff16148061087257506108718161086c612109565b611eb7565b5b6108b1576040517f08c379a00000000000000000000000000000000000000000000000000000000081526004016108a8906145fa565b60405180910390fd5b6108bb8383612111565b505050565b6000600c60003373ffffffffffffffffffffffffffffffffffffffff1673ffffffffffffffffffffffffffffffffffffffff168152602001908152602001600020805490500361093c576040517f898073a700000000000000000000000000000000000000000000000000000000815260040160405180910390fd5b6000600a60003373ffffffffffffffffffffffffffffffffffffffff1673ffffffffffffffffffffffffffffffffffffffff16815260200190815260200160002054905061099762015180426109929190614649565b6121ca565b600a60003373ffffffffffffffffffffffffffffffffffffffff1673ffffffffffffffffffffffffffffffffffffffff168152602001908152602001600020819055506000600b60008381526020019081526020016000208054905090506000811115610cbe573373ffffffffffffffffffffffffffffffffffffffff16600b6000848152602001908152602001600020600183610a359190614649565b81548110610a4657610a4561467d565b5b9060005260206000200160009054906101000a900473ffffffffffffffffffffffffffffffffffffffff1673ffffffffffffffffffffffffffffffffffffffff1603610ae957600b6000838152602001908152602001600020805480610aaf57610aae6146ac565b5b6001900381819060005260206000200160006101000a81549073ffffffffffffffffffffffffffffffffffffffff02191690559055610cbd565b60005b600182610af99190614649565b811015610c63573373ffffffffffffffffffffffffffffffffffffffff16600b60008581526020019081526020016000208281548110610b3c57610b3b61467d565b5b9060005260206000200160009054906101000a900473ffffffffffffffffffffffffffffffffffffffff1673ffffffffffffffffffffffffffffffffffffffff1603610c5057600b6000848152602001908152602001600020600183610ba29190614649565b81548110610bb357610bb261467d565b5b9060005260206000200160009054906101000a900473ffffffffffffffffffffffffffffffffffffffff16600b60008581526020019081526020016000208281548110610c0357610c0261467d565b5b9060005260206000200160006101000a81548173ffffffffffffffffffffffffffffffffffffffff021916908373ffffffffffffffffffffffffffffffffffffffff160217905550610c63565b8080610c5b906146db565b915050610aec565b50600b6000838152602001908152602001600020805480610c8757610c866146ac565b5b6001900381819060005260206000200160006101000a81549073ffffffffffffffffffffffffffffffffffffffff021916905590555b5b600b6000600a60003373ffffffffffffffffffffffffffffffffffffffff1673ffffffffffffffffffffffffffffffffffffffff168152602001908152602001600020548152602001908152602001600020339080600181540180825580915050600190039060005260206000200160009091909190916101000a81548173ffffffffffffffffffffffffffffffffffffffff021916908373ffffffffffffffffffffffffffffffffffffffff160217905550600a60003373ffffffffffffffffffffffffffffffffffffffff1673ffffffffffffffffffffffffffffffffffffffff168152602001908152602001600020543373ffffffffffffffffffffffffffffffffffffffff16427fa433db6f15c439e04fa16b50313c8372f1bf5298f8840ada956a58983613819e60405160405180910390a45050565b600260015403610e3e576040517f08c379a0000000000000000000000000000000000000000000000000000000008152600401610e359061476f565b60405180910390fd5b60026001819055506000600b6000838152602001908152602001600020805490500315610f965760005b600b600083815260200190815260200160002080549050811015610f7557600073ffffffffffffffffffffffffffffffffffffffff16600b60008481526020019081526020016000208281548110610ec357610ec261467d565b5b9060005260206000200160009054906101000a900473ffffffffffffffffffffffffffffffffffffffff1673ffffffffffffffffffffffffffffffffffffffff1614610f6257610f61600b60008481526020019081526020016000208281548110610f3157610f3061467d565b5b9060005260206000200160009054906101000a900473ffffffffffffffffffffffffffffffffffffffff166121ef565b5b8080610f6d906146db565b915050610e68565b50600b60008281526020019081526020016000206000610f959190613bd8565b5b6001808190555050565b610fb1610fab612109565b8261270b565b610ff0576040517f08c379a0000000000000000000000000000000000000000000000000000000008152600401610fe790614801565b60405180910390fd5b610ffb8383836127a0565b505050565b61101b83838360405180602001604052806000815250611d25565b505050565b600061103962015180426110349190614649565b6121ca565b905061104481610df9565b505050565b600080600b600084815260200190815260200160002080549050119050919050565b600073ffffffffffffffffffffffffffffffffffffffff168473ffffffffffffffffffffffffffffffffffffffff1614806110d25750600073ffffffffffffffffffffffffffffffffffffffff168373ffffffffffffffffffffffffffffffffffffffff16145b806110e957506000821480156110e85750600081145b5b15611120576040517fd9f24a3800000000000000000000000000000000000000000000000000000000815260040160405180910390fd5b600061112c6008612a06565b9050611138600861203e565b6111428482612a14565b600080600a60003373ffffffffffffffffffffffffffffffffffffffff1673ffffffffffffffffffffffffffffffffffffffff168152602001908152602001600020541480156111d457506000600c60003373ffffffffffffffffffffffffffffffffffffffff1673ffffffffffffffffffffffffffffffffffffffff16815260200190815260200160002080549050145b90506040518060c001604052803373ffffffffffffffffffffffffffffffffffffffff1681526020018773ffffffffffffffffffffffffffffffffffffffff1681526020018673ffffffffffffffffffffffffffffffffffffffff16815260200185815260200184815260200183815250600d600084815260200190815260200160002060008201518160000160006101000a81548173ffffffffffffffffffffffffffffffffffffffff021916908373ffffffffffffffffffffffffffffffffffffffff16021790555060208201518160010160006101000a81548173ffffffffffffffffffffffffffffffffffffffff021916908373ffffffffffffffffffffffffffffffffffffffff16021790555060408201518160020160006101000a81548173ffffffffffffffffffffffffffffffffffffffff021916908373ffffffffffffffffffffffffffffffffffffffff160217905550606082015181600301556080820151816004015560a08201518160050155905050600c60003373ffffffffffffffffffffffffffffffffffffffff1673ffffffffffffffffffffffffffffffffffffffff1681526020019081526020016000208290806001815401808255809150506001900390600052602060002001600090919091909150558573ffffffffffffffffffffffffffffffffffffffff163373ffffffffffffffffffffffffffffffffffffffff16427f6ea57cf2d79ffa532a2740a50a9c2854a616487407f261980de9190108d558de888888886040516114189493929190614821565b60405180910390a4801561142f5761142e6108c0565b5b505050505050565b6000806004600084815260200190815260200160002060009054906101000a900473ffffffffffffffffffffffffffffffffffffffff169050600073ffffffffffffffffffffffffffffffffffffffff168173ffffffffffffffffffffffffffffffffffffffff16036114df576040517f08c379a00000000000000000000000000000000000000000000000000000000081526004016114d6906148b2565b60405180910390fd5b80915050919050565b600c60003373ffffffffffffffffffffffffffffffffffffffff1673ffffffffffffffffffffffffffffffffffffffff168152602001908152602001600020805490508110611563576040517fd9f24a3800000000000000000000000000000000000000000000000000000000815260040160405180910390fd5b6000600c60003373ffffffffffffffffffffffffffffffffffffffff1673ffffffffffffffffffffffffffffffffffffffff16815260200190815260200160002082815481106115b6576115b561467d565b5b906000526020600020015490506000600d600083815260200190815260200160002090506001600c60003373ffffffffffffffffffffffffffffffffffffffff1673ffffffffffffffffffffffffffffffffffffffff168152602001908152602001600020805490506116299190614649565b83101561173a57600c60003373ffffffffffffffffffffffffffffffffffffffff1673ffffffffffffffffffffffffffffffffffffffff1681526020019081526020016000206001600c60003373ffffffffffffffffffffffffffffffffffffffff1673ffffffffffffffffffffffffffffffffffffffff168152602001908152602001600020805490506116be9190614649565b815481106116cf576116ce61467d565b5b9060005260206000200154600c60003373ffffffffffffffffffffffffffffffffffffffff1673ffffffffffffffffffffffffffffffffffffffff168152602001908152602001600020848154811061172b5761172a61467d565b5b90600052602060002001819055505b600c60003373ffffffffffffffffffffffffffffffffffffffff1673ffffffffffffffffffffffffffffffffffffffff168152602001908152602001600020805480611789576117886146ac565b5b600190038181906000526020600020016000905590556117a882612a32565b8060010160009054906101000a900473ffffffffffffffffffffffffffffffffffffffff1673ffffffffffffffffffffffffffffffffffffffff163373ffffffffffffffffffffffffffffffffffffffff16427fe8335cf26fd54c097ee267e1b4d0aa424b5a93e9b5b124319bc609ef14fa7a658460020160009054906101000a900473ffffffffffffffffffffffffffffffffffffffff168560030154866004015487600501546040516118609493929190614821565b60405180910390a4600d6000838152602001908152602001600020600080820160006101000a81549073ffffffffffffffffffffffffffffffffffffffff02191690556001820160006101000a81549073ffffffffffffffffffffffffffffffffffffffff02191690556002820160006101000a81549073ffffffffffffffffffffffffffffffffffffffff02191690556003820160009055600482016000905560058201600090555050505050565b600b602052816000526040600020818154811061192c57600080fd5b906000526020600020016000915091509054906101000a900473ffffffffffffffffffffffffffffffffffffffff1681565b6000606061196a611fe6565b9150604051806020016040528060008152509050600061199762015180426119929190614649565b6121ca565b90506119a281611049565b9250509250929050565b60008073ffffffffffffffffffffffffffffffffffffffff168273ffffffffffffffffffffffffffffffffffffffff1603611a1c576040517f08c379a0000000000000000000000000000000000000000000000000000000008152600401611a1390614944565b60405180910390fd5b600560008373ffffffffffffffffffffffffffffffffffffffff1673ffffffffffffffffffffffffffffffffffffffff168152602001908152602001600020549050919050565b611a6b612b4f565b611a756000612bcd565b565b611a7f612b4f565b8073ffffffffffffffffffffffffffffffffffffffff1663a9059cbb338373ffffffffffffffffffffffffffffffffffffffff166370a08231336040518263ffffffff1660e01b8152600401611ad59190613e5c565b602060405180830381865afa158015611af2573d6000803e3d6000fd5b505050506040513d601f19601f82011682018060405250810190611b169190614979565b6040518363ffffffff1660e01b8152600401611b339291906149a6565b6020604051808303816000875af1158015611b52573d6000803e3d6000fd5b505050506040513d601f19601f82011682018060405250810190611b7691906149e4565b611bb5576040517f08c379a0000000000000000000000000000000000000000000000000000000008152600401611bac90614a5d565b60405180910390fd5b50565b60008060009054906101000a900473ffffffffffffffffffffffffffffffffffffffff16905090565b600d6020528060005260406000206000915090508060000160009054906101000a900473ffffffffffffffffffffffffffffffffffffffff16908060010160009054906101000a900473ffffffffffffffffffffffffffffffffffffffff16908060020160009054906101000a900473ffffffffffffffffffffffffffffffffffffffff16908060030154908060040154908060050154905086565b606060038054611c8c906144c5565b80601f0160208091040260200160405190810160405280929190818152602001828054611cb8906144c5565b8015611d055780601f10611cda57610100808354040283529160200191611d05565b820191906000526020600020905b815481529060010190602001808311611ce857829003601f168201915b5050505050905090565b611d21611d1a612109565b8383612c91565b5050565b611d36611d30612109565b8361270b565b611d75576040517f08c379a0000000000000000000000000000000000000000000000000000000008152600401611d6c90614801565b60405180910390fd5b611d8184848484612dfd565b50505050565b6060611d9282612e59565b611dd1576040517f08c379a0000000000000000000000000000000000000000000000000000000008152600401611dc890614ac9565b60405180910390fd5b6000600d60008481526020019081526020016000209050611e7e8160000160009054906101000a900473ffffffffffffffffffffffffffffffffffffffff168260010160009054906101000a900473ffffffffffffffffffffffffffffffffffffffff168360020160009054906101000a900473ffffffffffffffffffffffffffffffffffffffff16846003015485600401548660050154611e716106d1565b611e79611c7d565b612ec5565b915050919050565b600c6020528160005260406000208181548110611ea257600080fd5b90600052602060002001600091509150505481565b6000600760008473ffffffffffffffffffffffffffffffffffffffff1673ffffffffffffffffffffffffffffffffffffffff16815260200190815260200160002060008373ffffffffffffffffffffffffffffffffffffffff1673ffffffffffffffffffffffffffffffffffffffff16815260200190815260200160002060009054906101000a900460ff16905092915050565b600a6020528060005260406000206000915090505481565b611f6b612b4f565b600073ffffffffffffffffffffffffffffffffffffffff168173ffffffffffffffffffffffffffffffffffffffff1603611fda576040517f08c379a0000000000000000000000000000000000000000000000000000000008152600401611fd190614b5b565b60405180910390fd5b611fe381612bcd565b50565b6000806120006201518042611ffb9190614649565b6121ca565b9050600061200d82611049565b9050809250505090565b6000612030620151804261202b9190614649565b6121ca565b905061203b81610df9565b50565b6001816000016000828254019250508190555050565b60007f01ffc9a7000000000000000000000000000000000000000000000000000000007bffffffffffffffffffffffffffffffffffffffffffffffffffffffff1916827bffffffffffffffffffffffffffffffffffffffffffffffffffffffff1916149050919050565b6120c781612e59565b612106576040517f08c379a00000000000000000000000000000000000000000000000000000000081526004016120fd906148b2565b60405180910390fd5b50565b600033905090565b816006600083815260200190815260200160002060006101000a81548173ffffffffffffffffffffffffffffffffffffffff021916908373ffffffffffffffffffffffffffffffffffffffff160217905550808273ffffffffffffffffffffffffffffffffffffffff1661218483611437565b73ffffffffffffffffffffffffffffffffffffffff167f8c5be1e5ebec7d5bd14f71427d1e84f3dd0314c0f7b2291e5b200ac8c7c3b92560405160405180910390a45050565b600061016d62015180836121de9190614baa565b6121e89190614bdb565b9050919050565b6121f7612b4f565b60005b600c60008373ffffffffffffffffffffffffffffffffffffffff1673ffffffffffffffffffffffffffffffffffffffff168152602001908152602001600020805490508110156126bc576000600c60008473ffffffffffffffffffffffffffffffffffffffff1673ffffffffffffffffffffffffffffffffffffffff16815260200190815260200160002082815481106122975761229661467d565b5b906000526020600020015490506000600d6000838152602001908152602001600020905060008082600401540361239b578160010160009054906101000a900473ffffffffffffffffffffffffffffffffffffffff1673ffffffffffffffffffffffffffffffffffffffff166323b872dd868460020160009054906101000a900473ffffffffffffffffffffffffffffffffffffffff1685600301546040518463ffffffff1660e01b815260040161235193929190614c0c565b6020604051808303816000875af1158015612370573d6000803e3d6000fd5b505050506040513d601f19601f8201168201806040525081019061239491906149e4565b9050612530565b600082600301540361246a578160010160009054906101000a900473ffffffffffffffffffffffffffffffffffffffff1673ffffffffffffffffffffffffffffffffffffffff166342842e0e868460020160009054906101000a900473ffffffffffffffffffffffffffffffffffffffff1685600401546040518463ffffffff1660e01b815260040161243093929190614c0c565b600060405180830381600087803b15801561244a57600080fd5b505af192505050801561245b575060015b1561246557600190505b61252f565b8160010160009054906101000a900473ffffffffffffffffffffffffffffffffffffffff1673ffffffffffffffffffffffffffffffffffffffff1663f242432a868460020160009054906101000a900473ffffffffffffffffffffffffffffffffffffffff16856004015486600301546040518563ffffffff1660e01b81526004016124f99493929190614c69565b600060405180830381600087803b15801561251357600080fd5b505af1925050508015612524575060015b1561252e57600190505b5b5b806125f6578160020160009054906101000a900473ffffffffffffffffffffffffffffffffffffffff1673ffffffffffffffffffffffffffffffffffffffff168573ffffffffffffffffffffffffffffffffffffffff16427f38ac674ea617efa156301feeeaafc9168b433221ece94a2eedcf92e43215353a8560010160009054906101000a900473ffffffffffffffffffffffffffffffffffffffff168660030154876004015488600501546040516125ed9493929190614821565b60405180910390a45b6126038260050154612a32565b600d6000848152602001908152602001600020600080820160006101000a81549073ffffffffffffffffffffffffffffffffffffffff02191690556001820160006101000a81549073ffffffffffffffffffffffffffffffffffffffff02191690556002820160006101000a81549073ffffffffffffffffffffffffffffffffffffffff0219169055600382016000905560048201600090556005820160009055505050505080806126b4906146db565b9150506121fa565b50600c60008273ffffffffffffffffffffffffffffffffffffffff1673ffffffffffffffffffffffffffffffffffffffff16815260200190815260200160002060006127089190613bf9565b50565b60008061271783611437565b90508073ffffffffffffffffffffffffffffffffffffffff168473ffffffffffffffffffffffffffffffffffffffff16148061275957506127588185611eb7565b5b8061279757508373ffffffffffffffffffffffffffffffffffffffff1661277f84610763565b73ffffffffffffffffffffffffffffffffffffffff16145b91505092915050565b8273ffffffffffffffffffffffffffffffffffffffff166127c082611437565b73ffffffffffffffffffffffffffffffffffffffff1614612816576040517f08c379a000000000000000000000000000000000000000000000000000000000815260040161280d90614d33565b60405180910390fd5b600073ffffffffffffffffffffffffffffffffffffffff168273ffffffffffffffffffffffffffffffffffffffff1603612885576040517f08c379a000000000000000000000000000000000000000000000000000000000815260040161287c90614dc5565b60405180910390fd5b6128908383836131c3565b61289b600082612111565b6001600560008573ffffffffffffffffffffffffffffffffffffffff1673ffffffffffffffffffffffffffffffffffffffff16815260200190815260200160002060008282546128eb9190614649565b925050819055506001600560008473ffffffffffffffffffffffffffffffffffffffff1673ffffffffffffffffffffffffffffffffffffffff16815260200190815260200160002060008282546129429190614de5565b92505081905550816004600083815260200190815260200160002060006101000a81548173ffffffffffffffffffffffffffffffffffffffff021916908373ffffffffffffffffffffffffffffffffffffffff160217905550808273ffffffffffffffffffffffffffffffffffffffff168473ffffffffffffffffffffffffffffffffffffffff167fddf252ad1be2c89b69c2b068fc378daa952ba7f163c4a11628f55a4df523b3ef60405160405180910390a4612a01838383613274565b505050565b600081600001549050919050565b612a2e828260405180602001604052806000815250613279565b5050565b6000612a3d82611437565b9050612a4b816000846131c3565b612a56600083612111565b6001600560008373ffffffffffffffffffffffffffffffffffffffff1673ffffffffffffffffffffffffffffffffffffffff1681526020019081526020016000206000828254612aa69190614649565b925050819055506004600083815260200190815260200160002060006101000a81549073ffffffffffffffffffffffffffffffffffffffff021916905581600073ffffffffffffffffffffffffffffffffffffffff168273ffffffffffffffffffffffffffffffffffffffff167fddf252ad1be2c89b69c2b068fc378daa952ba7f163c4a11628f55a4df523b3ef60405160405180910390a4612b4b81600084613274565b5050565b612b57612109565b73ffffffffffffffffffffffffffffffffffffffff16612b75611bb8565b73ffffffffffffffffffffffffffffffffffffffff1614612bcb576040517f08c379a0000000000000000000000000000000000000000000000000000000008152600401612bc290614e65565b60405180910390fd5b565b60008060009054906101000a900473ffffffffffffffffffffffffffffffffffffffff169050816000806101000a81548173ffffffffffffffffffffffffffffffffffffffff021916908373ffffffffffffffffffffffffffffffffffffffff1602179055508173ffffffffffffffffffffffffffffffffffffffff168173ffffffffffffffffffffffffffffffffffffffff167f8be0079c531659141344cd1fd0a4f28419497f9722a3daafe3b4186f6b6457e060405160405180910390a35050565b8173ffffffffffffffffffffffffffffffffffffffff168373ffffffffffffffffffffffffffffffffffffffff1603612cff576040517f08c379a0000000000000000000000000000000000000000000000000000000008152600401612cf690614ed1565b60405180910390fd5b80600760008573ffffffffffffffffffffffffffffffffffffffff1673ffffffffffffffffffffffffffffffffffffffff16815260200190815260200160002060008473ffffffffffffffffffffffffffffffffffffffff1673ffffffffffffffffffffffffffffffffffffffff16815260200190815260200160002060006101000a81548160ff0219169083151502179055508173ffffffffffffffffffffffffffffffffffffffff168373ffffffffffffffffffffffffffffffffffffffff167f17307eab39ab6107e8899845ad3d59bd9653f200f220920489ca2b5937696c3183604051612df09190613ceb565b60405180910390a3505050565b612e088484846127a0565b612e14848484846132d4565b612e53576040517f08c379a0000000000000000000000000000000000000000000000000000000008152600401612e4a90614f63565b60405180910390fd5b50505050565b60008073ffffffffffffffffffffffffffffffffffffffff166004600084815260200190815260200160002060009054906101000a900473ffffffffffffffffffffffffffffffffffffffff1673ffffffffffffffffffffffffffffffffffffffff1614159050919050565b606080606060008703612f70576040518060400160405280600581526020017f455243323000000000000000000000000000000000000000000000000000000081525091506040518060400160405280600581526020017f4552433230000000000000000000000000000000000000000000000000000000815250612f498961345b565b604051602001612f5a9291906150a3565b60405160208183030381529060405290506130bb565b60008803613016576040518060400160405280600681526020017f455243373231000000000000000000000000000000000000000000000000000081525091506040518060400160405280600681526020017f4552433732310000000000000000000000000000000000000000000000000000815250612fef8861345b565b60405160200161300092919061514f565b60405160208183030381529060405290506130ba565b6040518060400160405280600781526020017f455243313135350000000000000000000000000000000000000000000000000081525091506040518060400160405280600781526020017f455243313135350000000000000000000000000000000000000000000000000081525061308d8861345b565b6130968a61345b565b6040516020016130a893929190615189565b60405160208183030381529060405290505b5b6000856130c78861345b565b866130d96130d4876135bb565b613638565b6040516020016130ec9493929190615357565b60405160208183030381529060405290506000816131218e73ffffffffffffffffffffffffffffffffffffffff16601461379b565b6131428d73ffffffffffffffffffffffffffffffffffffffff16601461379b565b6131638f73ffffffffffffffffffffffffffffffffffffffff16601461379b565b86604051602001613178959493929190615563565b604051602081830303815290604052905061319281613638565b6040516020016131a29190615626565b60405160208183030381529060405294505050505098975050505050505050565b600073ffffffffffffffffffffffffffffffffffffffff168373ffffffffffffffffffffffffffffffffffffffff161415801561322d5750600073ffffffffffffffffffffffffffffffffffffffff168273ffffffffffffffffffffffffffffffffffffffff1614155b15613264576040517f23cbb2b200000000000000000000000000000000000000000000000000000000815260040160405180910390fd5b61326f8383836139d7565b505050565b505050565b61328383836139dc565b61329060008484846132d4565b6132cf576040517f08c379a00000000000000000000000000000000000000000000000000000000081526004016132c690614f63565b60405180910390fd5b505050565b60006132f58473ffffffffffffffffffffffffffffffffffffffff16613bb5565b1561344e578373ffffffffffffffffffffffffffffffffffffffff1663150b7a0261331e612109565b8786866040518563ffffffff1660e01b81526004016133409493929190615648565b6020604051808303816000875af192505050801561337c57506040513d601f19601f8201168201806040525081019061337991906156a9565b60015b6133fe573d80600081146133ac576040519150601f19603f3d011682016040523d82523d6000602084013e6133b1565b606091505b5060008151036133f6576040517f08c379a00000000000000000000000000000000000000000000000000000000081526004016133ed90614f63565b60405180910390fd5b805181602001fd5b63150b7a0260e01b7bffffffffffffffffffffffffffffffffffffffffffffffffffffffff1916817bffffffffffffffffffffffffffffffffffffffffffffffffffffffff191614915050613453565b600190505b949350505050565b6060600082036134a2576040518060400160405280600181526020017f300000000000000000000000000000000000000000000000000000000000000081525090506135b6565b600082905060005b600082146134d45780806134bd906146db565b915050600a826134cd9190614baa565b91506134aa565b60008167ffffffffffffffff8111156134f0576134ef6142a8565b5b6040519080825280601f01601f1916602001820160405280156135225781602001600182028036833780820191505090505b5090505b600085146135af5760018261353b9190614649565b9150600a8561354a9190614bdb565b60306135569190614de5565b60f81b81838151811061356c5761356b61467d565b5b60200101907effffffffffffffffffffffffffffffffffffffffffffffffffffffffffffff1916908160001a905350600a856135a89190614baa565b9450613526565b8093505050505b919050565b60606040518061020001604052806101d681526020016158b76101d69139826040518060400160405280601181526020017f3c2f746578743e3c2f673e3c2f7376673e000000000000000000000000000000815250604051602001613622939291906156d6565b6040516020818303038152906040529050919050565b6060600082510361365a57604051806020016040528060008152509050613796565b6000604051806060016040528060408152602001615a8d60409139905060006003600285516136899190614de5565b6136939190614baa565b600461369f9190615707565b67ffffffffffffffff8111156136b8576136b76142a8565b5b6040519080825280601f01601f1916602001820160405280156136ea5781602001600182028036833780820191505090505b509050600182016020820185865187015b80821015613756576003820191508151603f8160121c168501518453600184019350603f81600c1c168501518453600184019350603f8160061c168501518453600184019350603f81168501518453600184019350506136fb565b505060038651066001811461377257600281146137855761378d565b603d6001830353603d600283035361378d565b603d60018303535b50505080925050505b919050565b6060600060028360026137ae9190615707565b6137b89190614de5565b67ffffffffffffffff8111156137d1576137d06142a8565b5b6040519080825280601f01601f1916602001820160405280156138035781602001600182028036833780820191505090505b5090507f30000000000000000000000000000000000000000000000000000000000000008160008151811061383b5761383a61467d565b5b60200101907effffffffffffffffffffffffffffffffffffffffffffffffffffffffffffff1916908160001a9053507f78000000000000000000000000000000000000000000000000000000000000008160018151811061389f5761389e61467d565b5b60200101907effffffffffffffffffffffffffffffffffffffffffffffffffffffffffffff1916908160001a905350600060018460026138df9190615707565b6138e99190614de5565b90505b6001811115613989577f3031323334353637383961626364656600000000000000000000000000000000600f86166010811061392b5761392a61467d565b5b1a60f81b8282815181106139425761394161467d565b5b60200101907effffffffffffffffffffffffffffffffffffffffffffffffffffffffffffff1916908160001a905350600485901c94508061398290615749565b90506138ec565b50600084146139cd576040517f08c379a00000000000000000000000000000000000000000000000000000000081526004016139c4906157be565b60405180910390fd5b8091505092915050565b505050565b600073ffffffffffffffffffffffffffffffffffffffff168273ffffffffffffffffffffffffffffffffffffffff1603613a4b576040517f08c379a0000000000000000000000000000000000000000000000000000000008152600401613a429061582a565b60405180910390fd5b613a5481612e59565b15613a94576040517f08c379a0000000000000000000000000000000000000000000000000000000008152600401613a8b90615896565b60405180910390fd5b613aa0600083836131c3565b6001600560008473ffffffffffffffffffffffffffffffffffffffff1673ffffffffffffffffffffffffffffffffffffffff1681526020019081526020016000206000828254613af09190614de5565b92505081905550816004600083815260200190815260200160002060006101000a81548173ffffffffffffffffffffffffffffffffffffffff021916908373ffffffffffffffffffffffffffffffffffffffff160217905550808273ffffffffffffffffffffffffffffffffffffffff16600073ffffffffffffffffffffffffffffffffffffffff167fddf252ad1be2c89b69c2b068fc378daa952ba7f163c4a11628f55a4df523b3ef60405160405180910390a4613bb160008383613274565b5050565b6000808273ffffffffffffffffffffffffffffffffffffffff163b119050919050565b5080546000825590600052602060002090810190613bf69190613c1a565b50565b5080546000825590600052602060002090810190613c179190613c1a565b50565b5b80821115613c33576000816000905550600101613c1b565b5090565b6000604051905090565b600080fd5b600080fd5b60007fffffffff0000000000000000000000000000000000000000000000000000000082169050919050565b613c8081613c4b565b8114613c8b57600080fd5b50565b600081359050613c9d81613c77565b92915050565b600060208284031215613cb957613cb8613c41565b5b6000613cc784828501613c8e565b91505092915050565b60008115159050919050565b613ce581613cd0565b82525050565b6000602082019050613d006000830184613cdc565b92915050565b600081519050919050565b600082825260208201905092915050565b60005b83811015613d40578082015181840152602081019050613d25565b60008484015250505050565b6000601f19601f8301169050919050565b6000613d6882613d06565b613d728185613d11565b9350613d82818560208601613d22565b613d8b81613d4c565b840191505092915050565b60006020820190508181036000830152613db08184613d5d565b905092915050565b6000819050919050565b613dcb81613db8565b8114613dd657600080fd5b50565b600081359050613de881613dc2565b92915050565b600060208284031215613e0457613e03613c41565b5b6000613e1284828501613dd9565b91505092915050565b600073ffffffffffffffffffffffffffffffffffffffff82169050919050565b6000613e4682613e1b565b9050919050565b613e5681613e3b565b82525050565b6000602082019050613e716000830184613e4d565b92915050565b613e8081613e3b565b8114613e8b57600080fd5b50565b600081359050613e9d81613e77565b92915050565b60008060408385031215613eba57613eb9613c41565b5b6000613ec885828601613e8e565b9250506020613ed985828601613dd9565b9150509250929050565b600080600060608486031215613efc57613efb613c41565b5b6000613f0a86828701613e8e565b9350506020613f1b86828701613e8e565b9250506040613f2c86828701613dd9565b9150509250925092565b600080fd5b600080fd5b600080fd5b60008083601f840112613f5b57613f5a613f36565b5b8235905067ffffffffffffffff811115613f7857613f77613f3b565b5b602083019150836001820283011115613f9457613f93613f40565b5b9250929050565b60008060208385031215613fb257613fb1613c41565b5b600083013567ffffffffffffffff811115613fd057613fcf613c46565b5b613fdc85828601613f45565b92509250509250929050565b6000806000806080858703121561400257614001613c41565b5b600061401087828801613e8e565b945050602061402187828801613e8e565b935050604061403287828801613dd9565b925050606061404387828801613dd9565b91505092959194509250565b6000806040838503121561406657614065613c41565b5b600061407485828601613dd9565b925050602061408585828601613dd9565b9150509250929050565b600081519050919050565b600082825260208201905092915050565b60006140b68261408f565b6140c0818561409a565b93506140d0818560208601613d22565b6140d981613d4c565b840191505092915050565b60006040820190506140f96000830185613cdc565b818103602083015261410b81846140ab565b90509392505050565b60006020828403121561412a57614129613c41565b5b600061413884828501613e8e565b91505092915050565b61414a81613db8565b82525050565b60006020820190506141656000830184614141565b92915050565b600061417682613e3b565b9050919050565b6141868161416b565b811461419157600080fd5b50565b6000813590506141a38161417d565b92915050565b6000602082840312156141bf576141be613c41565b5b60006141cd84828501614194565b91505092915050565b600060c0820190506141eb6000830189613e4d565b6141f86020830188613e4d565b6142056040830187613e4d565b6142126060830186614141565b61421f6080830185614141565b61422c60a0830184614141565b979650505050505050565b61424081613cd0565b811461424b57600080fd5b50565b60008135905061425d81614237565b92915050565b6000806040838503121561427a57614279613c41565b5b600061428885828601613e8e565b92505060206142998582860161424e565b9150509250929050565b600080fd5b7f4e487b7100000000000000000000000000000000000000000000000000000000600052604160045260246000fd5b6142e082613d4c565b810181811067ffffffffffffffff821117156142ff576142fe6142a8565b5b80604052505050565b6000614312613c37565b905061431e82826142d7565b919050565b600067ffffffffffffffff82111561433e5761433d6142a8565b5b61434782613d4c565b9050602081019050919050565b82818337600083830152505050565b600061437661437184614323565b614308565b905082815260208101848484011115614392576143916142a3565b5b61439d848285614354565b509392505050565b600082601f8301126143ba576143b9613f36565b5b81356143ca848260208601614363565b91505092915050565b600080600080608085870312156143ed576143ec613c41565b5b60006143fb87828801613e8e565b945050602061440c87828801613e8e565b935050604061441d87828801613dd9565b925050606085013567ffffffffffffffff81111561443e5761443d613c46565b5b61444a878288016143a5565b91505092959194509250565b6000806040838503121561446d5761446c613c41565b5b600061447b85828601613e8e565b925050602061448c85828601613e8e565b9150509250929050565b7f4e487b7100000000000000000000000000000000000000000000000000000000600052602260045260246000fd5b600060028204905060018216806144dd57607f821691505b6020821081036144f0576144ef614496565b5b50919050565b7f4552433732313a20617070726f76616c20746f2063757272656e74206f776e6560008201527f7200000000000000000000000000000000000000000000000000000000000000602082015250565b6000614552602183613d11565b915061455d826144f6565b604082019050919050565b6000602082019050818103600083015261458181614545565b9050919050565b7f4552433732313a20617070726f76652063616c6c6572206973206e6f7420746f60008201527f6b656e206f776e6572206e6f7220617070726f76656420666f7220616c6c0000602082015250565b60006145e4603e83613d11565b91506145ef82614588565b604082019050919050565b60006020820190508181036000830152614613816145d7565b9050919050565b7f4e487b7100000000000000000000000000000000000000000000000000000000600052601160045260246000fd5b600061465482613db8565b915061465f83613db8565b92508282039050818111156146775761467661461a565b5b92915050565b7f4e487b7100000000000000000000000000000000000000000000000000000000600052603260045260246000fd5b7f4e487b7100000000000000000000000000000000000000000000000000000000600052603160045260246000fd5b60006146e682613db8565b91507fffffffffffffffffffffffffffffffffffffffffffffffffffffffffffffffff82036147185761471761461a565b5b600182019050919050565b7f5265656e7472616e637947756172643a207265656e7472616e742063616c6c00600082015250565b6000614759601f83613d11565b915061476482614723565b602082019050919050565b600060208201905081810360008301526147888161474c565b9050919050565b7f4552433732313a2063616c6c6572206973206e6f7420746f6b656e206f776e6560008201527f72206e6f7220617070726f766564000000000000000000000000000000000000602082015250565b60006147eb602e83613d11565b91506147f68261478f565b604082019050919050565b6000602082019050818103600083015261481a816147de565b9050919050565b60006080820190506148366000830187613e4d565b6148436020830186614141565b6148506040830185614141565b61485d6060830184614141565b95945050505050565b7f4552433732313a20696e76616c696420746f6b656e2049440000000000000000600082015250565b600061489c601883613d11565b91506148a782614866565b602082019050919050565b600060208201905081810360008301526148cb8161488f565b9050919050565b7f4552433732313a2061646472657373207a65726f206973206e6f74206120766160008201527f6c6964206f776e65720000000000000000000000000000000000000000000000602082015250565b600061492e602983613d11565b9150614939826148d2565b604082019050919050565b6000602082019050818103600083015261495d81614921565b9050919050565b60008151905061497381613dc2565b92915050565b60006020828403121561498f5761498e613c41565b5b600061499d84828501614964565b91505092915050565b60006040820190506149bb6000830185613e4d565b6149c86020830184614141565b9392505050565b6000815190506149de81614237565b92915050565b6000602082840312156149fa576149f9613c41565b5b6000614a08848285016149cf565b91505092915050565b7f556e61626c6520746f207472616e736665720000000000000000000000000000600082015250565b6000614a47601283613d11565b9150614a5282614a11565b602082019050919050565b60006020820190508181036000830152614a7681614a3a565b9050919050565b7f4578706972333a204e6f6e2d4578697374656e7420546f6b656e204944000000600082015250565b6000614ab3601d83613d11565b9150614abe82614a7d565b602082019050919050565b60006020820190508181036000830152614ae281614aa6565b9050919050565b7f4f776e61626c653a206e6577206f776e657220697320746865207a65726f206160008201527f6464726573730000000000000000000000000000000000000000000000000000602082015250565b6000614b45602683613d11565b9150614b5082614ae9565b604082019050919050565b60006020820190508181036000830152614b7481614b38565b9050919050565b7f4e487b7100000000000000000000000000000000000000000000000000000000600052601260045260246000fd5b6000614bb582613db8565b9150614bc083613db8565b925082614bd057614bcf614b7b565b5b828204905092915050565b6000614be682613db8565b9150614bf183613db8565b925082614c0157614c00614b7b565b5b828206905092915050565b6000606082019050614c216000830186613e4d565b614c2e6020830185613e4d565b614c3b6040830184614141565b949350505050565b50565b6000614c5360008361409a565b9150614c5e82614c43565b600082019050919050565b600060a082019050614c7e6000830187613e4d565b614c8b6020830186613e4d565b614c986040830185614141565b614ca56060830184614141565b8181036080830152614cb681614c46565b905095945050505050565b7f4552433732313a207472616e736665722066726f6d20696e636f72726563742060008201527f6f776e6572000000000000000000000000000000000000000000000000000000602082015250565b6000614d1d602583613d11565b9150614d2882614cc1565b604082019050919050565b60006020820190508181036000830152614d4c81614d10565b9050919050565b7f4552433732313a207472616e7366657220746f20746865207a65726f2061646460008201527f7265737300000000000000000000000000000000000000000000000000000000602082015250565b6000614daf602483613d11565b9150614dba82614d53565b604082019050919050565b60006020820190508181036000830152614dde81614da2565b9050919050565b6000614df082613db8565b9150614dfb83613db8565b9250828201905080821115614e1357614e1261461a565b5b92915050565b7f4f776e61626c653a2063616c6c6572206973206e6f7420746865206f776e6572600082015250565b6000614e4f602083613d11565b9150614e5a82614e19565b602082019050919050565b60006020820190508181036000830152614e7e81614e42565b9050919050565b7f4552433732313a20617070726f766520746f2063616c6c657200000000000000600082015250565b6000614ebb601983613d11565b9150614ec682614e85565b602082019050919050565b60006020820190508181036000830152614eea81614eae565b9050919050565b7f4552433732313a207472616e7366657220746f206e6f6e20455243373231526560008201527f63656976657220696d706c656d656e7465720000000000000000000000000000602082015250565b6000614f4d603283613d11565b9150614f5882614ef1565b604082019050919050565b60006020820190508181036000830152614f7c81614f40565b9050919050565b600081905092915050565b7f227d2c7b2274726169745f74797065223a22546f6b656e2054797065222c227660008201527f616c7565223a2200000000000000000000000000000000000000000000000000602082015250565b6000614fea602783614f83565b9150614ff582614f8e565b602782019050919050565b600061500b82613d06565b6150158185614f83565b9350615025818560208601613d22565b80840191505092915050565b7f227d2c7b2274726169745f74797065223a22616d6f756e74222c2276616c756560008201527f223a220000000000000000000000000000000000000000000000000000000000602082015250565b600061508d602383614f83565b915061509882615031565b602382019050919050565b60006150ae82614fdd565b91506150ba8285615000565b91506150c582615080565b91506150d18284615000565b91508190509392505050565b7f227d2c7b2274726169745f74797065223a22746f6b656e4964222c2276616c7560008201527f65223a2200000000000000000000000000000000000000000000000000000000602082015250565b6000615139602483614f83565b9150615144826150dd565b602482019050919050565b600061515a82614fdd565b91506151668285615000565b91506151718261512c565b915061517d8284615000565b91508190509392505050565b600061519482614fdd565b91506151a08286615000565b91506151ab8261512c565b91506151b78285615000565b91506151c282615080565b91506151ce8284615000565b9150819050949350505050565b7f7b226e616d65223a220000000000000000000000000000000000000000000000600082015250565b6000615211600983614f83565b915061521c826151db565b600982019050919050565b7f2023000000000000000000000000000000000000000000000000000000000000600082015250565b600061525d600283614f83565b915061526882615227565b600282019050919050565b7f222c2273796d626f6c223a220000000000000000000000000000000000000000600082015250565b60006152a9600c83614f83565b91506152b482615273565b600c82019050919050565b7f222c226465736372697074696f6e223a224578706972333a20596f7572206f6e60008201527f2d636861696e2077696c6c222c22696d616765223a2022646174613a696d616760208201527f652f7376672b786d6c3b6261736536342c000000000000000000000000000000604082015250565b6000615341605183614f83565b915061534c826152bf565b605182019050919050565b600061536282615204565b915061536e8287615000565b915061537982615250565b91506153858286615000565b91506153908261529c565b915061539c8285615000565b91506153a782615334565b91506153b38284615000565b915081905095945050505050565b7f222c2261747472696275746573223a5b7b2274726169745f74797065223a227460008201527f65737461746f72222c2276616c7565223a220000000000000000000000000000602082015250565b600061541d603283614f83565b9150615428826153c1565b603282019050919050565b7f227d2c7b2274726169745f74797065223a2262656e6566696369617279222c2260008201527f76616c7565223a22000000000000000000000000000000000000000000000000602082015250565b600061548f602883614f83565b915061549a82615433565b602882019050919050565b7f227d2c7b2274726169745f74797065223a22746f6b656e222c2276616c75652260008201527f3a22000000000000000000000000000000000000000000000000000000000000602082015250565b6000615501602283614f83565b915061550c826154a5565b602282019050919050565b7f227d5d7d00000000000000000000000000000000000000000000000000000000600082015250565b600061554d600483614f83565b915061555882615517565b600482019050919050565b600061556f8288615000565b915061557a82615410565b91506155868287615000565b915061559182615482565b915061559d8286615000565b91506155a8826154f4565b91506155b48285615000565b91506155c08284615000565b91506155cb82615540565b91508190509695505050505050565b7f646174613a6170706c69636174696f6e2f6a736f6e3b6261736536342c000000600082015250565b6000615610601d83614f83565b915061561b826155da565b601d82019050919050565b600061563182615603565b915061563d8284615000565b915081905092915050565b600060808201905061565d6000830187613e4d565b61566a6020830186613e4d565b6156776040830185614141565b818103606083015261568981846140ab565b905095945050505050565b6000815190506156a381613c77565b92915050565b6000602082840312156156bf576156be613c41565b5b60006156cd84828501615694565b91505092915050565b60006156e28286615000565b91506156ee8285615000565b91506156fa8284615000565b9150819050949350505050565b600061571282613db8565b915061571d83613db8565b925082820261572b81613db8565b915082820484148315176157425761574161461a565b5b5092915050565b600061575482613db8565b9150600082036157675761576661461a565b5b600182039050919050565b7f537472696e67733a20686578206c656e67746820696e73756666696369656e74600082015250565b60006157a8602083613d11565b91506157b382615772565b602082019050919050565b600060208201905081810360008301526157d78161579b565b9050919050565b7f4552433732313a206d696e7420746f20746865207a65726f2061646472657373600082015250565b6000615814602083613d11565b915061581f826157de565b602082019050919050565b6000602082019050818103600083015261584381615807565b9050919050565b7f4552433732313a20746f6b656e20616c7265616479206d696e74656400000000600082015250565b6000615880601c83613d11565b915061588b8261584a565b602082019050919050565b600060208201905081810360008301526158af81615873565b905091905056fe3c73766720786d6c6e733d22687474703a2f2f7777772e77332e6f72672f323030302f737667222077696474683d2235303022206865696768743d22353030222076696577426f783d2230203020353030203530302220666f6e742d66616d696c793d222d6170706c652d73797374656d2c426c696e6b4d616353797374656d466f6e742c275365676f65205549272c2748656c766574696361204e657565272c417269616c2c73616e732d7365726966223e3c7265637420783d22302220793d2230222077696474683d223130302522206865696768743d2231303025222066696c6c3d2223656565222072783d2231302522202f3e3c672069643d2274657874222066696c6c3d22626c61636b2220666f6e742d73697a653d2238302220666f6e742d7765696768743d223530302220746578742d616e63686f723d226d6964646c65223e3c7465787420783d223530252220793d223430252220666f6e742d7765696768743d22373030223e4578706972333c2f746578743e3c7465787420783d223530252220793d22363525223e4c65676163793c2f746578743e3c7465787420783d223930252220793d223930252220666f6e742d73697a653d2233362220746578742d616e63686f723d22656e64223e4142434445464748494a4b4c4d4e4f505152535455565758595a6162636465666768696a6b6c6d6e6f707172737475767778797a303132333435363738392b2fa26469706673582212202ed9d98c9f706bd6874c192957ba3b3e0aaff91aab370e07f7abd507c8debe4b64736f6c63430008110033",
  "linkReferences": {},
  "deployedLinkReferences": {}
}