{
  "_format": "hh-sol-artifact-1",
  "contractName": "Expir3",
  "sourceName": "contracts/Expir3.sol",
  "abi": [
    {
      "inputs": [],
      "stateMutability": "nonpayable",
      "type": "constructor"
    },
    {
      "inputs": [],
      "name": "InvalidLegacy",
      "type": "error"
    },
    {
      "inputs": [],
      "name": "NoLegacyRegistered",
      "type": "error"
    },
    {
      "inputs": [],
      "name": "NonTransferrableToken",
      "type": "error"
    },
    {
      "anonymous": false,
      "inputs": [
        {
          "indexed": true,
          "internalType": "uint256",
          "name": "timestamp",
          "type": "uint256"
        },
        {
          "indexed": true,
          "internalType": "address",
          "name": "testator",
          "type": "address"
        },
        {
          "indexed": true,
          "internalType": "address",
          "name": "token",
          "type": "address"
        },
        {
          "indexed": false,
          "internalType": "address",
          "name": "beneficiary",
          "type": "address"
        },
        {
          "indexed": false,
          "internalType": "uint256",
          "name": "amount",
          "type": "uint256"
        },
        {
          "indexed": false,
          "internalType": "uint256",
          "name": "tokenId",
          "type": "uint256"
        },
        {
          "indexed": false,
          "internalType": "uint256",
          "name": "nftId",
          "type": "uint256"
        }
      ],
      "name": "AddLegacy",
      "type": "event"
    },
    {
      "anonymous": false,
      "inputs": [
        {
          "indexed": true,
          "internalType": "address",
          "name": "owner",
          "type": "address"
        },
        {
          "indexed": true,
          "internalType": "address",
          "name": "approved",
          "type": "address"
        },
        {
          "indexed": true,
          "internalType": "uint256",
          "name": "tokenId",
          "type": "uint256"
        }
      ],
      "name": "Approval",
      "type": "event"
    },
    {
      "anonymous": false,
      "inputs": [
        {
          "indexed": true,
          "internalType": "address",
          "name": "owner",
          "type": "address"
        },
        {
          "indexed": true,
          "internalType": "address",
          "name": "operator",
          "type": "address"
        },
        {
          "indexed": false,
          "internalType": "bool",
          "name": "approved",
          "type": "bool"
        }
      ],
      "name": "ApprovalForAll",
      "type": "event"
    },
    {
      "anonymous": false,
      "inputs": [
        {
          "indexed": true,
          "internalType": "uint256",
          "name": "timestamp",
          "type": "uint256"
        },
        {
          "indexed": true,
          "internalType": "address",
          "name": "testator",
          "type": "address"
        },
        {
          "indexed": true,
          "internalType": "uint256",
          "name": "executionDay",
          "type": "uint256"
        }
      ],
      "name": "Executed",
      "type": "event"
    },
    {
      "anonymous": false,
      "inputs": [
        {
          "indexed": true,
          "internalType": "uint256",
          "name": "timestamp",
          "type": "uint256"
        },
        {
          "indexed": true,
          "internalType": "address",
          "name": "testator",
          "type": "address"
        },
        {
          "indexed": true,
          "internalType": "address",
          "name": "beneficiary",
          "type": "address"
        },
        {
          "indexed": false,
          "internalType": "address",
          "name": "token",
          "type": "address"
        },
        {
          "indexed": false,
          "internalType": "uint256",
          "name": "amount",
          "type": "uint256"
        },
        {
          "indexed": false,
          "internalType": "uint256",
          "name": "tokenId",
          "type": "uint256"
        },
        {
          "indexed": false,
          "internalType": "uint256",
          "name": "nftId",
          "type": "uint256"
        }
      ],
      "name": "LegacyTransferFailed",
      "type": "event"
    },
    {
      "anonymous": false,
      "inputs": [
        {
          "indexed": true,
          "internalType": "uint256",
          "name": "timestamp",
          "type": "uint256"
        },
        {
          "indexed": true,
          "internalType": "address",
          "name": "testator",
          "type": "address"
        },
        {
          "indexed": true,
          "internalType": "uint256",
          "name": "executionDay",
          "type": "uint256"
        }
      ],
      "name": "NewExecutionDay",
      "type": "event"
    },
    {
      "anonymous": false,
      "inputs": [
        {
          "indexed": true,
          "internalType": "address",
          "name": "previousOwner",
          "type": "address"
        },
        {
          "indexed": true,
          "internalType": "address",
          "name": "newOwner",
          "type": "address"
        }
      ],
      "name": "OwnershipTransferred",
      "type": "event"
    },
    {
      "anonymous": false,
      "inputs": [
        {
          "indexed": true,
          "internalType": "uint256",
          "name": "timestamp",
          "type": "uint256"
        },
        {
          "indexed": true,
          "internalType": "address",
          "name": "testator",
          "type": "address"
        },
        {
          "indexed": true,
          "internalType": "address",
          "name": "token",
          "type": "address"
        },
        {
          "indexed": false,
          "internalType": "address",
          "name": "beneficiary",
          "type": "address"
        },
        {
          "indexed": false,
          "internalType": "uint256",
          "name": "amount",
          "type": "uint256"
        },
        {
          "indexed": false,
          "internalType": "uint256",
          "name": "tokenId",
          "type": "uint256"
        },
        {
          "indexed": false,
          "internalType": "uint256",
          "name": "nftId",
          "type": "uint256"
        }
      ],
      "name": "RemoveLegacy",
      "type": "event"
    },
    {
      "anonymous": false,
      "inputs": [
        {
          "indexed": true,
          "internalType": "address",
          "name": "from",
          "type": "address"
        },
        {
          "indexed": true,
          "internalType": "address",
          "name": "to",
          "type": "address"
        },
        {
          "indexed": true,
          "internalType": "uint256",
          "name": "tokenId",
          "type": "uint256"
        }
      ],
      "name": "Transfer",
      "type": "event"
    },
    {
      "inputs": [],
      "name": "_tokenIdCounter",
      "outputs": [
        {
          "internalType": "uint256",
          "name": "_value",
          "type": "uint256"
        }
      ],
      "stateMutability": "view",
      "type": "function"
    },
    {
      "inputs": [
        {
          "internalType": "address",
          "name": "token",
          "type": "address"
        },
        {
          "internalType": "address",
          "name": "beneficiary",
          "type": "address"
        },
        {
          "internalType": "uint256",
          "name": "amount",
          "type": "uint256"
        },
        {
          "internalType": "uint256",
          "name": "tokenId",
          "type": "uint256"
        }
      ],
      "name": "addLegacy",
      "outputs": [],
      "stateMutability": "nonpayable",
      "type": "function"
    },
    {
      "inputs": [
        {
          "internalType": "address",
          "name": "to",
          "type": "address"
        },
        {
          "internalType": "uint256",
          "name": "tokenId",
          "type": "uint256"
        }
      ],
      "name": "approve",
      "outputs": [],
      "stateMutability": "nonpayable",
      "type": "function"
    },
    {
      "inputs": [
        {
          "internalType": "address",
          "name": "owner",
          "type": "address"
        }
      ],
      "name": "balanceOf",
      "outputs": [
        {
          "internalType": "uint256",
          "name": "",
          "type": "uint256"
        }
      ],
      "stateMutability": "view",
      "type": "function"
    },
    {
      "inputs": [],
      "name": "checkIn",
      "outputs": [],
      "stateMutability": "nonpayable",
      "type": "function"
    },
    {
      "inputs": [
        {
          "internalType": "bytes",
          "name": "",
          "type": "bytes"
        }
      ],
      "name": "checkUpkeep",
      "outputs": [
        {
          "internalType": "bool",
          "name": "upkeepNeeded",
          "type": "bool"
        },
        {
          "internalType": "bytes",
          "name": "tempData",
          "type": "bytes"
        }
      ],
      "stateMutability": "view",
      "type": "function"
    },
    {
      "inputs": [
        {
          "internalType": "uint256",
          "name": "day",
          "type": "uint256"
        }
      ],
      "name": "executeDay",
      "outputs": [],
      "stateMutability": "nonpayable",
      "type": "function"
    },
    {
      "inputs": [
        {
          "internalType": "address",
          "name": "",
          "type": "address"
        }
      ],
      "name": "executionDay",
      "outputs": [
        {
          "internalType": "uint256",
          "name": "",
          "type": "uint256"
        }
      ],
      "stateMutability": "view",
      "type": "function"
    },
    {
      "inputs": [
        {
          "internalType": "uint256",
          "name": "",
          "type": "uint256"
        },
        {
          "internalType": "uint256",
          "name": "",
          "type": "uint256"
        }
      ],
      "name": "executionList",
      "outputs": [
        {
          "internalType": "address",
          "name": "",
          "type": "address"
        }
      ],
      "stateMutability": "view",
      "type": "function"
    },
    {
      "inputs": [],
      "name": "fakeExecute",
      "outputs": [],
      "stateMutability": "nonpayable",
      "type": "function"
    },
    {
      "inputs": [],
      "name": "fakeUpkeep",
      "outputs": [
        {
          "internalType": "bool",
          "name": "",
          "type": "bool"
        }
      ],
      "stateMutability": "view",
      "type": "function"
    },
    {
      "inputs": [
        {
          "internalType": "uint256",
          "name": "tokenId",
          "type": "uint256"
        }
      ],
      "name": "getApproved",
      "outputs": [
        {
          "internalType": "address",
          "name": "",
          "type": "address"
        }
      ],
      "stateMutability": "view",
      "type": "function"
    },
    {
      "inputs": [
        {
          "internalType": "address",
          "name": "owner",
          "type": "address"
        },
        {
          "internalType": "address",
          "name": "operator",
          "type": "address"
        }
      ],
      "name": "isApprovedForAll",
      "outputs": [
        {
          "internalType": "bool",
          "name": "",
          "type": "bool"
        }
      ],
      "stateMutability": "view",
      "type": "function"
    },
    {
      "inputs": [
        {
          "internalType": "address",
          "name": "",
          "type": "address"
        },
        {
          "internalType": "uint256",
          "name": "",
          "type": "uint256"
        }
      ],
      "name": "legacies",
      "outputs": [
        {
          "internalType": "uint256",
          "name": "",
          "type": "uint256"
        }
      ],
      "stateMutability": "view",
      "type": "function"
    },
    {
      "inputs": [
        {
          "internalType": "address",
          "name": "testator",
          "type": "address"
        }
      ],
      "name": "legacyCount",
      "outputs": [
        {
          "internalType": "uint256",
          "name": "",
          "type": "uint256"
        }
      ],
      "stateMutability": "view",
      "type": "function"
    },
    {
      "inputs": [
        {
          "internalType": "uint256",
          "name": "",
          "type": "uint256"
        }
      ],
      "name": "legacyNFTs",
      "outputs": [
        {
          "internalType": "address",
          "name": "testator",
          "type": "address"
        },
        {
          "internalType": "address",
          "name": "token",
          "type": "address"
        },
        {
          "internalType": "address",
          "name": "beneficiary",
          "type": "address"
        },
        {
          "internalType": "uint256",
          "name": "amount",
          "type": "uint256"
        },
        {
          "internalType": "uint256",
          "name": "tokenId",
          "type": "uint256"
        }
      ],
      "stateMutability": "view",
      "type": "function"
    },
    {
      "inputs": [],
      "name": "name",
      "outputs": [
        {
          "internalType": "string",
          "name": "",
          "type": "string"
        }
      ],
      "stateMutability": "view",
      "type": "function"
    },
    {
      "inputs": [],
      "name": "owner",
      "outputs": [
        {
          "internalType": "address",
          "name": "",
          "type": "address"
        }
      ],
      "stateMutability": "view",
      "type": "function"
    },
    {
      "inputs": [
        {
          "internalType": "uint256",
          "name": "tokenId",
          "type": "uint256"
        }
      ],
      "name": "ownerOf",
      "outputs": [
        {
          "internalType": "address",
          "name": "",
          "type": "address"
        }
      ],
      "stateMutability": "view",
      "type": "function"
    },
    {
      "inputs": [
        {
          "internalType": "bytes",
          "name": "",
          "type": "bytes"
        }
      ],
      "name": "performUpkeep",
      "outputs": [],
      "stateMutability": "nonpayable",
      "type": "function"
    },
    {
      "inputs": [
        {
          "internalType": "uint256",
          "name": "position",
          "type": "uint256"
        }
      ],
      "name": "removeLegacy",
      "outputs": [],
      "stateMutability": "nonpayable",
      "type": "function"
    },
    {
      "inputs": [],
      "name": "renounceOwnership",
      "outputs": [],
      "stateMutability": "nonpayable",
      "type": "function"
    },
    {
      "inputs": [
        {
          "internalType": "address",
          "name": "from",
          "type": "address"
        },
        {
          "internalType": "address",
          "name": "to",
          "type": "address"
        },
        {
          "internalType": "uint256",
          "name": "tokenId",
          "type": "uint256"
        }
      ],
      "name": "safeTransferFrom",
      "outputs": [],
      "stateMutability": "nonpayable",
      "type": "function"
    },
    {
      "inputs": [
        {
          "internalType": "address",
          "name": "from",
          "type": "address"
        },
        {
          "internalType": "address",
          "name": "to",
          "type": "address"
        },
        {
          "internalType": "uint256",
          "name": "tokenId",
          "type": "uint256"
        },
        {
          "internalType": "bytes",
          "name": "data",
          "type": "bytes"
        }
      ],
      "name": "safeTransferFrom",
      "outputs": [],
      "stateMutability": "nonpayable",
      "type": "function"
    },
    {
      "inputs": [
        {
          "internalType": "address",
          "name": "operator",
          "type": "address"
        },
        {
          "internalType": "bool",
          "name": "approved",
          "type": "bool"
        }
      ],
      "name": "setApprovalForAll",
      "outputs": [],
      "stateMutability": "nonpayable",
      "type": "function"
    },
    {
      "inputs": [
        {
          "internalType": "bytes4",
          "name": "interfaceId",
          "type": "bytes4"
        }
      ],
      "name": "supportsInterface",
      "outputs": [
        {
          "internalType": "bool",
          "name": "",
          "type": "bool"
        }
      ],
      "stateMutability": "view",
      "type": "function"
    },
    {
      "inputs": [],
      "name": "symbol",
      "outputs": [
        {
          "internalType": "string",
          "name": "",
          "type": "string"
        }
      ],
      "stateMutability": "view",
      "type": "function"
    },
    {
      "inputs": [
        {
          "internalType": "uint256",
          "name": "tokenId",
          "type": "uint256"
        }
      ],
      "name": "tokenURI",
      "outputs": [
        {
          "internalType": "string",
          "name": "",
          "type": "string"
        }
      ],
      "stateMutability": "view",
      "type": "function"
    },
    {
      "inputs": [
        {
          "internalType": "address",
          "name": "from",
          "type": "address"
        },
        {
          "internalType": "address",
          "name": "to",
          "type": "address"
        },
        {
          "internalType": "uint256",
          "name": "tokenId",
          "type": "uint256"
        }
      ],
      "name": "transferFrom",
      "outputs": [],
      "stateMutability": "nonpayable",
      "type": "function"
    },
    {
      "inputs": [
        {
          "internalType": "address",
          "name": "newOwner",
          "type": "address"
        }
      ],
      "name": "transferOwnership",
      "outputs": [],
      "stateMutability": "nonpayable",
      "type": "function"
    },
    {
      "inputs": [
        {
          "internalType": "uint256",
          "name": "day",
          "type": "uint256"
        }
      ],
      "name": "willsToExecuteInDay",
      "outputs": [
        {
          "internalType": "bool",
          "name": "",
          "type": "bool"
        }
      ],
      "stateMutability": "view",
      "type": "function"
    },
    {
      "inputs": [
        {
          "internalType": "contract IERC20",
          "name": "_tokenAddress",
          "type": "address"
        }
      ],
      "name": "withdrawToken",
      "outputs": [],
      "stateMutability": "nonpayable",
      "type": "function"
    }
  ],
  "bytecode": "0x60806040523480156200001157600080fd5b506040518060400160405280600681526020017f45787069723300000000000000000000000000000000000000000000000000008152506040518060400160405280600381526020017f45585000000000000000000000000000000000000000000000000000000000008152506200009e62000092620000e860201b60201c565b620000f060201b60201c565b600180819055508160029081620000b6919062000444565b508060039081620000c8919062000444565b505050620000e26008620001b460201b620020d31760201c565b6200052b565b600033905090565b60008060009054906101000a900473ffffffffffffffffffffffffffffffffffffffff169050816000806101000a81548173ffffffffffffffffffffffffffffffffffffffff021916908373ffffffffffffffffffffffffffffffffffffffff1602179055508173ffffffffffffffffffffffffffffffffffffffff168173ffffffffffffffffffffffffffffffffffffffff167f8be0079c531659141344cd1fd0a4f28419497f9722a3daafe3b4186f6b6457e060405160405180910390a35050565b6001816000016000828254019250508190555050565b600081519050919050565b7f4e487b7100000000000000000000000000000000000000000000000000000000600052604160045260246000fd5b7f4e487b7100000000000000000000000000000000000000000000000000000000600052602260045260246000fd5b600060028204905060018216806200024c57607f821691505b60208210810362000262576200026162000204565b5b50919050565b60008190508160005260206000209050919050565b60006020601f8301049050919050565b600082821b905092915050565b600060088302620002cc7fffffffffffffffffffffffffffffffffffffffffffffffffffffffffffffffff826200028d565b620002d886836200028d565b95508019841693508086168417925050509392505050565b6000819050919050565b6000819050919050565b6000620003256200031f6200031984620002f0565b620002fa565b620002f0565b9050919050565b6000819050919050565b620003418362000304565b6200035962000350826200032c565b8484546200029a565b825550505050565b600090565b6200037062000361565b6200037d81848462000336565b505050565b5b81811015620003a5576200039960008262000366565b60018101905062000383565b5050565b601f821115620003f457620003be8162000268565b620003c9846200027d565b81016020851015620003d9578190505b620003f1620003e8856200027d565b83018262000382565b50505b505050565b600082821c905092915050565b60006200041960001984600802620003f9565b1980831691505092915050565b600062000434838362000406565b9150826002028217905092915050565b6200044f82620001ca565b67ffffffffffffffff8111156200046b576200046a620001d5565b5b62000477825462000233565b62000484828285620003a9565b600060209050601f831160018114620004bc5760008415620004a7578287015190505b620004b3858262000426565b86555062000523565b601f198416620004cc8662000268565b60005b82811015620004f657848901518255600182019150602085019450602081019050620004cf565b8683101562000516578489015162000512601f89168262000406565b8355505b6001600288020188555050505b505050505050565b615b79806200053b6000396000f3fe608060405234801561001057600080fd5b50600436106101f05760003560e01c8063715018a61161010f578063b88d4fde116100a2578063f02da65f11610071578063f02da65f146105de578063f2fde38b1461060e578063f3feed411461062a578063fff1216214610648576101f0565b8063b88d4fde14610532578063c87b56dd1461054e578063cfc3ebe71461057e578063e985e9c5146105ae576101f0565b80638e2003ca116100de5780638e2003ca1461049457806394d7729f146104c457806395d89b41146104f8578063a22cb46514610516576101f0565b8063715018a61461043257806384c4bd4b1461043c578063894760691461045a5780638da5cb5b14610476576101f0565b80634585e33b1161018757806366484fcf1161015657806366484fcf146103855780636aac353f146103a15780636e04ff0d146103d157806370a0823114610402576101f0565b80634585e33b146102ed5780634cd371741461030957806353190ec5146103395780636352211e14610355576101f0565b8063183ff085116101c3578063183ff0851461028f5780631a56273f1461029957806323b872dd146102b557806342842e0e146102d1576101f0565b806301ffc9a7146101f557806306fdde0314610225578063081812fc14610243578063095ea7b314610273575b600080fd5b61020f600480360381019061020a9190613d28565b610652565b60405161021c9190613d70565b60405180910390f35b61022d610734565b60405161023a9190613e1b565b60405180910390f35b61025d60048036038101906102589190613e73565b6107c6565b60405161026a9190613ee1565b60405180910390f35b61028d60048036038101906102889190613f28565b61080c565b005b610297610923565b005b6102b360048036038101906102ae9190613e73565b610e5c565b005b6102cf60048036038101906102ca9190613f68565b611003565b005b6102eb60048036038101906102e69190613f68565b611063565b005b61030760048036038101906103029190614020565b611083565b005b610323600480360381019061031e9190613e73565b6110ac565b6040516103309190613d70565b60405180910390f35b610353600480360381019061034e919061406d565b6110ce565b005b61036f600480360381019061036a9190613e73565b61148a565b60405161037c9190613ee1565b60405180910390f35b61039f600480360381019061039a9190613e73565b61153b565b005b6103bb60048036038101906103b691906140d4565b611957565b6040516103c89190613ee1565b60405180910390f35b6103eb60048036038101906103e69190614020565b6119a5565b6040516103f9929190614169565b60405180910390f35b61041c60048036038101906104179190614199565b6119f3565b60405161042991906141d5565b60405180910390f35b61043a611aaa565b005b610444611abe565b60405161045191906141d5565b60405180910390f35b610474600480360381019061046f919061422e565b611aca565b005b61047e611c0b565b60405161048b9190613ee1565b60405180910390f35b6104ae60048036038101906104a99190614199565b611c34565b6040516104bb91906141d5565b60405180910390f35b6104de60048036038101906104d99190613e73565b611c80565b6040516104ef95949392919061425b565b60405180910390f35b610500611d16565b60405161050d9190613e1b565b60405180910390f35b610530600480360381019061052b91906142da565b611da8565b005b61054c6004803603810190610547919061444a565b611dbe565b005b61056860048036038101906105639190613e73565b611e20565b6040516105759190613e1b565b60405180910390f35b61059860048036038101906105939190613f28565b611f1b565b6040516105a591906141d5565b60405180910390f35b6105c860048036038101906105c391906144cd565b611f4c565b6040516105d59190613d70565b60405180910390f35b6105f860048036038101906105f39190614199565b611fe0565b60405161060591906141d5565b60405180910390f35b61062860048036038101906106239190614199565b611ff8565b005b61063261207b565b60405161063f9190613d70565b60405180910390f35b6106506120ac565b005b60007f80ac58cd000000000000000000000000000000000000000000000000000000007bffffffffffffffffffffffffffffffffffffffffffffffffffffffff1916827bffffffffffffffffffffffffffffffffffffffffffffffffffffffff1916148061071d57507f5b5e139f000000000000000000000000000000000000000000000000000000007bffffffffffffffffffffffffffffffffffffffffffffffffffffffff1916827bffffffffffffffffffffffffffffffffffffffffffffffffffffffff1916145b8061072d575061072c826120e9565b5b9050919050565b6060600280546107439061453c565b80601f016020809104026020016040519081016040528092919081815260200182805461076f9061453c565b80156107bc5780601f10610791576101008083540402835291602001916107bc565b820191906000526020600020905b81548152906001019060200180831161079f57829003601f168201915b5050505050905090565b60006107d182612153565b6006600083815260200190815260200160002060009054906101000a900473ffffffffffffffffffffffffffffffffffffffff169050919050565b60006108178261148a565b90508073ffffffffffffffffffffffffffffffffffffffff168373ffffffffffffffffffffffffffffffffffffffff1603610887576040517f08c379a000000000000000000000000000000000000000000000000000000000815260040161087e906145df565b60405180910390fd5b8073ffffffffffffffffffffffffffffffffffffffff166108a661219e565b73ffffffffffffffffffffffffffffffffffffffff1614806108d557506108d4816108cf61219e565b611f4c565b5b610914576040517f08c379a000000000000000000000000000000000000000000000000000000000815260040161090b90614671565b60405180910390fd5b61091e83836121a6565b505050565b6000600b60003373ffffffffffffffffffffffffffffffffffffffff1673ffffffffffffffffffffffffffffffffffffffff168152602001908152602001600020805490500361099f576040517f898073a700000000000000000000000000000000000000000000000000000000815260040160405180910390fd5b6000600960003373ffffffffffffffffffffffffffffffffffffffff1673ffffffffffffffffffffffffffffffffffffffff1681526020019081526020016000205490506109fa62015180426109f591906146c0565b61225f565b600960003373ffffffffffffffffffffffffffffffffffffffff1673ffffffffffffffffffffffffffffffffffffffff168152602001908152602001600020819055506000600a60008381526020019081526020016000208054905090506000811115610d21573373ffffffffffffffffffffffffffffffffffffffff16600a6000848152602001908152602001600020600183610a9891906146c0565b81548110610aa957610aa86146f4565b5b9060005260206000200160009054906101000a900473ffffffffffffffffffffffffffffffffffffffff1673ffffffffffffffffffffffffffffffffffffffff1603610b4c57600a6000838152602001908152602001600020805480610b1257610b11614723565b5b6001900381819060005260206000200160006101000a81549073ffffffffffffffffffffffffffffffffffffffff02191690559055610d20565b60005b600182610b5c91906146c0565b811015610cc6573373ffffffffffffffffffffffffffffffffffffffff16600a60008581526020019081526020016000208281548110610b9f57610b9e6146f4565b5b9060005260206000200160009054906101000a900473ffffffffffffffffffffffffffffffffffffffff1673ffffffffffffffffffffffffffffffffffffffff1603610cb357600a6000848152602001908152602001600020600183610c0591906146c0565b81548110610c1657610c156146f4565b5b9060005260206000200160009054906101000a900473ffffffffffffffffffffffffffffffffffffffff16600a60008581526020019081526020016000208281548110610c6657610c656146f4565b5b9060005260206000200160006101000a81548173ffffffffffffffffffffffffffffffffffffffff021916908373ffffffffffffffffffffffffffffffffffffffff160217905550610cc6565b8080610cbe90614752565b915050610b4f565b50600a6000838152602001908152602001600020805480610cea57610ce9614723565b5b6001900381819060005260206000200160006101000a81549073ffffffffffffffffffffffffffffffffffffffff021916905590555b5b600a6000600960003373ffffffffffffffffffffffffffffffffffffffff1673ffffffffffffffffffffffffffffffffffffffff168152602001908152602001600020548152602001908152602001600020339080600181540180825580915050600190039060005260206000200160009091909190916101000a81548173ffffffffffffffffffffffffffffffffffffffff021916908373ffffffffffffffffffffffffffffffffffffffff160217905550600960003373ffffffffffffffffffffffffffffffffffffffff1673ffffffffffffffffffffffffffffffffffffffff168152602001908152602001600020543373ffffffffffffffffffffffffffffffffffffffff16427fa433db6f15c439e04fa16b50313c8372f1bf5298f8840ada956a58983613819e60405160405180910390a45050565b600260015403610ea1576040517f08c379a0000000000000000000000000000000000000000000000000000000008152600401610e98906147e6565b60405180910390fd5b60026001819055506000600a6000838152602001908152602001600020805490500315610ff95760005b600a600083815260200190815260200160002080549050811015610fd857600073ffffffffffffffffffffffffffffffffffffffff16600a60008481526020019081526020016000208281548110610f2657610f256146f4565b5b9060005260206000200160009054906101000a900473ffffffffffffffffffffffffffffffffffffffff1673ffffffffffffffffffffffffffffffffffffffff1614610fc557610fc4600a60008481526020019081526020016000208281548110610f9457610f936146f4565b5b9060005260206000200160009054906101000a900473ffffffffffffffffffffffffffffffffffffffff16612284565b5b8080610fd090614752565b915050610ecb565b50600a60008281526020019081526020016000206000610ff89190613c5d565b5b6001808190555050565b61101461100e61219e565b82612790565b611053576040517f08c379a000000000000000000000000000000000000000000000000000000000815260040161104a90614878565b60405180910390fd5b61105e838383612825565b505050565b61107e83838360405180602001604052806000815250611dbe565b505050565b600061109c620151804261109791906146c0565b61225f565b90506110a781610e5c565b505050565b600080600a600084815260200190815260200160002080549050119050919050565b600073ffffffffffffffffffffffffffffffffffffffff168473ffffffffffffffffffffffffffffffffffffffff1614806111355750600073ffffffffffffffffffffffffffffffffffffffff168373ffffffffffffffffffffffffffffffffffffffff16145b8061114c575060008214801561114b5750600081145b5b15611183576040517fd9f24a3800000000000000000000000000000000000000000000000000000000815260040160405180910390fd5b600061118f6008612a8b565b905061119b8482612a99565b6111a560086120d3565b600080600960003373ffffffffffffffffffffffffffffffffffffffff1673ffffffffffffffffffffffffffffffffffffffff1681526020019081526020016000205414801561123757506000600b60003373ffffffffffffffffffffffffffffffffffffffff1673ffffffffffffffffffffffffffffffffffffffff16815260200190815260200160002080549050145b90506040518060a001604052803373ffffffffffffffffffffffffffffffffffffffff1681526020018773ffffffffffffffffffffffffffffffffffffffff1681526020018673ffffffffffffffffffffffffffffffffffffffff16815260200185815260200184815250600c600084815260200190815260200160002060008201518160000160006101000a81548173ffffffffffffffffffffffffffffffffffffffff021916908373ffffffffffffffffffffffffffffffffffffffff16021790555060208201518160010160006101000a81548173ffffffffffffffffffffffffffffffffffffffff021916908373ffffffffffffffffffffffffffffffffffffffff16021790555060408201518160020160006101000a81548173ffffffffffffffffffffffffffffffffffffffff021916908373ffffffffffffffffffffffffffffffffffffffff1602179055506060820151816003015560808201518160040155905050600b60003373ffffffffffffffffffffffffffffffffffffffff1673ffffffffffffffffffffffffffffffffffffffff1681526020019081526020016000208290806001815401808255809150506001900390600052602060002001600090919091909150558573ffffffffffffffffffffffffffffffffffffffff163373ffffffffffffffffffffffffffffffffffffffff16427f6ea57cf2d79ffa532a2740a50a9c2854a616487407f261980de9190108d558de8888888860405161146b9493929190614898565b60405180910390a4801561148257611481610923565b5b505050505050565b6000806004600084815260200190815260200160002060009054906101000a900473ffffffffffffffffffffffffffffffffffffffff169050600073ffffffffffffffffffffffffffffffffffffffff168173ffffffffffffffffffffffffffffffffffffffff1603611532576040517f08c379a000000000000000000000000000000000000000000000000000000000815260040161152990614929565b60405180910390fd5b80915050919050565b600b60003373ffffffffffffffffffffffffffffffffffffffff1673ffffffffffffffffffffffffffffffffffffffff1681526020019081526020016000208054905081106115b6576040517fd9f24a3800000000000000000000000000000000000000000000000000000000815260040160405180910390fd5b6000600b60003373ffffffffffffffffffffffffffffffffffffffff1673ffffffffffffffffffffffffffffffffffffffff1681526020019081526020016000208281548110611609576116086146f4565b5b906000526020600020015490506000600c600083815260200190815260200160002090506001600b60003373ffffffffffffffffffffffffffffffffffffffff1673ffffffffffffffffffffffffffffffffffffffff1681526020019081526020016000208054905061167c91906146c0565b83101561178d57600b60003373ffffffffffffffffffffffffffffffffffffffff1673ffffffffffffffffffffffffffffffffffffffff1681526020019081526020016000206001600b60003373ffffffffffffffffffffffffffffffffffffffff1673ffffffffffffffffffffffffffffffffffffffff1681526020019081526020016000208054905061171191906146c0565b81548110611722576117216146f4565b5b9060005260206000200154600b60003373ffffffffffffffffffffffffffffffffffffffff1673ffffffffffffffffffffffffffffffffffffffff168152602001908152602001600020848154811061177e5761177d6146f4565b5b90600052602060002001819055505b600b60003373ffffffffffffffffffffffffffffffffffffffff1673ffffffffffffffffffffffffffffffffffffffff1681526020019081526020016000208054806117dc576117db614723565b5b600190038181906000526020600020016000905590556117fb82612ab7565b8060010160009054906101000a900473ffffffffffffffffffffffffffffffffffffffff1673ffffffffffffffffffffffffffffffffffffffff163373ffffffffffffffffffffffffffffffffffffffff16427fe8335cf26fd54c097ee267e1b4d0aa424b5a93e9b5b124319bc609ef14fa7a658460020160009054906101000a900473ffffffffffffffffffffffffffffffffffffffff1685600301548660040154886040516118af9493929190614898565b60405180910390a4600c6000838152602001908152602001600020600080820160006101000a81549073ffffffffffffffffffffffffffffffffffffffff02191690556001820160006101000a81549073ffffffffffffffffffffffffffffffffffffffff02191690556002820160006101000a81549073ffffffffffffffffffffffffffffffffffffffff0219169055600382016000905560048201600090555050505050565b600a602052816000526040600020818154811061197357600080fd5b906000526020600020016000915091509054906101000a900473ffffffffffffffffffffffffffffffffffffffff1681565b600060606119b161207b565b915060405180602001604052806000815250905060006119de62015180426119d991906146c0565b61225f565b90506119e9816110ac565b9250509250929050565b60008073ffffffffffffffffffffffffffffffffffffffff168273ffffffffffffffffffffffffffffffffffffffff1603611a63576040517f08c379a0000000000000000000000000000000000000000000000000000000008152600401611a5a906149bb565b60405180910390fd5b600560008373ffffffffffffffffffffffffffffffffffffffff1673ffffffffffffffffffffffffffffffffffffffff168152602001908152602001600020549050919050565b611ab2612bd4565b611abc6000612c52565b565b60088060000154905081565b611ad2612bd4565b8073ffffffffffffffffffffffffffffffffffffffff1663a9059cbb338373ffffffffffffffffffffffffffffffffffffffff166370a08231336040518263ffffffff1660e01b8152600401611b289190613ee1565b602060405180830381865afa158015611b45573d6000803e3d6000fd5b505050506040513d601f19601f82011682018060405250810190611b6991906149f0565b6040518363ffffffff1660e01b8152600401611b86929190614a1d565b6020604051808303816000875af1158015611ba5573d6000803e3d6000fd5b505050506040513d601f19601f82011682018060405250810190611bc99190614a5b565b611c08576040517f08c379a0000000000000000000000000000000000000000000000000000000008152600401611bff90614ad4565b60405180910390fd5b50565b60008060009054906101000a900473ffffffffffffffffffffffffffffffffffffffff16905090565b6000600b60008373ffffffffffffffffffffffffffffffffffffffff1673ffffffffffffffffffffffffffffffffffffffff168152602001908152602001600020805490509050919050565b600c6020528060005260406000206000915090508060000160009054906101000a900473ffffffffffffffffffffffffffffffffffffffff16908060010160009054906101000a900473ffffffffffffffffffffffffffffffffffffffff16908060020160009054906101000a900473ffffffffffffffffffffffffffffffffffffffff16908060030154908060040154905085565b606060038054611d259061453c565b80601f0160208091040260200160405190810160405280929190818152602001828054611d519061453c565b8015611d9e5780601f10611d7357610100808354040283529160200191611d9e565b820191906000526020600020905b815481529060010190602001808311611d8157829003601f168201915b5050505050905090565b611dba611db361219e565b8383612d16565b5050565b611dcf611dc961219e565b83612790565b611e0e576040517f08c379a0000000000000000000000000000000000000000000000000000000008152600401611e0590614878565b60405180910390fd5b611e1a84848484612e82565b50505050565b6060611e2b82612ede565b611e6a576040517f08c379a0000000000000000000000000000000000000000000000000000000008152600401611e6190614b40565b60405180910390fd5b6000600c60008481526020019081526020016000209050611f138160000160009054906101000a900473ffffffffffffffffffffffffffffffffffffffff168260010160009054906101000a900473ffffffffffffffffffffffffffffffffffffffff168360020160009054906101000a900473ffffffffffffffffffffffffffffffffffffffff168460030154856004015488611f06610734565b611f0e611d16565b612f4a565b915050919050565b600b6020528160005260406000208181548110611f3757600080fd5b90600052602060002001600091509150505481565b6000600760008473ffffffffffffffffffffffffffffffffffffffff1673ffffffffffffffffffffffffffffffffffffffff16815260200190815260200160002060008373ffffffffffffffffffffffffffffffffffffffff1673ffffffffffffffffffffffffffffffffffffffff16815260200190815260200160002060009054906101000a900460ff16905092915050565b60096020528060005260406000206000915090505481565b612000612bd4565b600073ffffffffffffffffffffffffffffffffffffffff168173ffffffffffffffffffffffffffffffffffffffff160361206f576040517f08c379a000000000000000000000000000000000000000000000000000000000815260040161206690614bd2565b60405180910390fd5b61207881612c52565b50565b600080612095620151804261209091906146c0565b61225f565b905060006120a2826110ac565b9050809250505090565b60006120c562015180426120c091906146c0565b61225f565b90506120d081610e5c565b50565b6001816000016000828254019250508190555050565b60007f01ffc9a7000000000000000000000000000000000000000000000000000000007bffffffffffffffffffffffffffffffffffffffffffffffffffffffff1916827bffffffffffffffffffffffffffffffffffffffffffffffffffffffff1916149050919050565b61215c81612ede565b61219b576040517f08c379a000000000000000000000000000000000000000000000000000000000815260040161219290614929565b60405180910390fd5b50565b600033905090565b816006600083815260200190815260200160002060006101000a81548173ffffffffffffffffffffffffffffffffffffffff021916908373ffffffffffffffffffffffffffffffffffffffff160217905550808273ffffffffffffffffffffffffffffffffffffffff166122198361148a565b73ffffffffffffffffffffffffffffffffffffffff167f8c5be1e5ebec7d5bd14f71427d1e84f3dd0314c0f7b2291e5b200ac8c7c3b92560405160405180910390a45050565b600061016d62015180836122739190614c21565b61227d9190614c52565b9050919050565b61228c612bd4565b60005b600b60008373ffffffffffffffffffffffffffffffffffffffff1673ffffffffffffffffffffffffffffffffffffffff16815260200190815260200160002080549050811015612741576000600b60008473ffffffffffffffffffffffffffffffffffffffff1673ffffffffffffffffffffffffffffffffffffffff168152602001908152602001600020828154811061232c5761232b6146f4565b5b906000526020600020015490506000600c60008381526020019081526020016000209050600080826004015403612430578160010160009054906101000a900473ffffffffffffffffffffffffffffffffffffffff1673ffffffffffffffffffffffffffffffffffffffff166323b872dd868460020160009054906101000a900473ffffffffffffffffffffffffffffffffffffffff1685600301546040518463ffffffff1660e01b81526004016123e693929190614c83565b6020604051808303816000875af1158015612405573d6000803e3d6000fd5b505050506040513d601f19601f820116820180604052508101906124299190614a5b565b90506125c5565b60008260030154036124ff578160010160009054906101000a900473ffffffffffffffffffffffffffffffffffffffff1673ffffffffffffffffffffffffffffffffffffffff166342842e0e868460020160009054906101000a900473ffffffffffffffffffffffffffffffffffffffff1685600401546040518463ffffffff1660e01b81526004016124c593929190614c83565b600060405180830381600087803b1580156124df57600080fd5b505af19250505080156124f0575060015b156124fa57600190505b6125c4565b8160010160009054906101000a900473ffffffffffffffffffffffffffffffffffffffff1673ffffffffffffffffffffffffffffffffffffffff1663f242432a868460020160009054906101000a900473ffffffffffffffffffffffffffffffffffffffff16856004015486600301546040518563ffffffff1660e01b815260040161258e9493929190614ce0565b600060405180830381600087803b1580156125a857600080fd5b505af19250505080156125b9575060015b156125c357600190505b5b5b80612687578160020160009054906101000a900473ffffffffffffffffffffffffffffffffffffffff1673ffffffffffffffffffffffffffffffffffffffff168573ffffffffffffffffffffffffffffffffffffffff16427f38ac674ea617efa156301feeeaafc9168b433221ece94a2eedcf92e43215353a8560010160009054906101000a900473ffffffffffffffffffffffffffffffffffffffff16866003015487600401548960405161267e9493929190614898565b60405180910390a45b61269083612ab7565b600c6000848152602001908152602001600020600080820160006101000a81549073ffffffffffffffffffffffffffffffffffffffff02191690556001820160006101000a81549073ffffffffffffffffffffffffffffffffffffffff02191690556002820160006101000a81549073ffffffffffffffffffffffffffffffffffffffff0219169055600382016000905560048201600090555050505050808061273990614752565b91505061228f565b50600b60008273ffffffffffffffffffffffffffffffffffffffff1673ffffffffffffffffffffffffffffffffffffffff168152602001908152602001600020600061278d9190613c7e565b50565b60008061279c8361148a565b90508073ffffffffffffffffffffffffffffffffffffffff168473ffffffffffffffffffffffffffffffffffffffff1614806127de57506127dd8185611f4c565b5b8061281c57508373ffffffffffffffffffffffffffffffffffffffff16612804846107c6565b73ffffffffffffffffffffffffffffffffffffffff16145b91505092915050565b8273ffffffffffffffffffffffffffffffffffffffff166128458261148a565b73ffffffffffffffffffffffffffffffffffffffff161461289b576040517f08c379a000000000000000000000000000000000000000000000000000000000815260040161289290614daa565b60405180910390fd5b600073ffffffffffffffffffffffffffffffffffffffff168273ffffffffffffffffffffffffffffffffffffffff160361290a576040517f08c379a000000000000000000000000000000000000000000000000000000000815260040161290190614e3c565b60405180910390fd5b612915838383613248565b6129206000826121a6565b6001600560008573ffffffffffffffffffffffffffffffffffffffff1673ffffffffffffffffffffffffffffffffffffffff168152602001908152602001600020600082825461297091906146c0565b925050819055506001600560008473ffffffffffffffffffffffffffffffffffffffff1673ffffffffffffffffffffffffffffffffffffffff16815260200190815260200160002060008282546129c79190614e5c565b92505081905550816004600083815260200190815260200160002060006101000a81548173ffffffffffffffffffffffffffffffffffffffff021916908373ffffffffffffffffffffffffffffffffffffffff160217905550808273ffffffffffffffffffffffffffffffffffffffff168473ffffffffffffffffffffffffffffffffffffffff167fddf252ad1be2c89b69c2b068fc378daa952ba7f163c4a11628f55a4df523b3ef60405160405180910390a4612a868383836132f9565b505050565b600081600001549050919050565b612ab38282604051806020016040528060008152506132fe565b5050565b6000612ac28261148a565b9050612ad081600084613248565b612adb6000836121a6565b6001600560008373ffffffffffffffffffffffffffffffffffffffff1673ffffffffffffffffffffffffffffffffffffffff1681526020019081526020016000206000828254612b2b91906146c0565b925050819055506004600083815260200190815260200160002060006101000a81549073ffffffffffffffffffffffffffffffffffffffff021916905581600073ffffffffffffffffffffffffffffffffffffffff168273ffffffffffffffffffffffffffffffffffffffff167fddf252ad1be2c89b69c2b068fc378daa952ba7f163c4a11628f55a4df523b3ef60405160405180910390a4612bd0816000846132f9565b5050565b612bdc61219e565b73ffffffffffffffffffffffffffffffffffffffff16612bfa611c0b565b73ffffffffffffffffffffffffffffffffffffffff1614612c50576040517f08c379a0000000000000000000000000000000000000000000000000000000008152600401612c4790614edc565b60405180910390fd5b565b60008060009054906101000a900473ffffffffffffffffffffffffffffffffffffffff169050816000806101000a81548173ffffffffffffffffffffffffffffffffffffffff021916908373ffffffffffffffffffffffffffffffffffffffff1602179055508173ffffffffffffffffffffffffffffffffffffffff168173ffffffffffffffffffffffffffffffffffffffff167f8be0079c531659141344cd1fd0a4f28419497f9722a3daafe3b4186f6b6457e060405160405180910390a35050565b8173ffffffffffffffffffffffffffffffffffffffff168373ffffffffffffffffffffffffffffffffffffffff1603612d84576040517f08c379a0000000000000000000000000000000000000000000000000000000008152600401612d7b90614f48565b60405180910390fd5b80600760008573ffffffffffffffffffffffffffffffffffffffff1673ffffffffffffffffffffffffffffffffffffffff16815260200190815260200160002060008473ffffffffffffffffffffffffffffffffffffffff1673ffffffffffffffffffffffffffffffffffffffff16815260200190815260200160002060006101000a81548160ff0219169083151502179055508173ffffffffffffffffffffffffffffffffffffffff168373ffffffffffffffffffffffffffffffffffffffff167f17307eab39ab6107e8899845ad3d59bd9653f200f220920489ca2b5937696c3183604051612e759190613d70565b60405180910390a3505050565b612e8d848484612825565b612e9984848484613359565b612ed8576040517f08c379a0000000000000000000000000000000000000000000000000000000008152600401612ecf90614fda565b60405180910390fd5b50505050565b60008073ffffffffffffffffffffffffffffffffffffffff166004600084815260200190815260200160002060009054906101000a900473ffffffffffffffffffffffffffffffffffffffff1673ffffffffffffffffffffffffffffffffffffffff1614159050919050565b606080606060008703612ff5576040518060400160405280600581526020017f455243323000000000000000000000000000000000000000000000000000000081525091506040518060400160405280600581526020017f4552433230000000000000000000000000000000000000000000000000000000815250612fce896134e0565b604051602001612fdf92919061511a565b6040516020818303038152906040529050613140565b6000880361309b576040518060400160405280600681526020017f455243373231000000000000000000000000000000000000000000000000000081525091506040518060400160405280600681526020017f4552433732310000000000000000000000000000000000000000000000000000815250613074886134e0565b6040516020016130859291906151c6565b604051602081830303815290604052905061313f565b6040518060400160405280600781526020017f455243313135350000000000000000000000000000000000000000000000000081525091506040518060400160405280600781526020017f4552433131353500000000000000000000000000000000000000000000000000815250613112886134e0565b61311b8a6134e0565b60405160200161312d93929190615200565b60405160208183030381529060405290505b5b60008561314c886134e0565b8661315e61315987613640565b6136bd565b60405160200161317194939291906153ce565b60405160208183030381529060405290506000816131a68e73ffffffffffffffffffffffffffffffffffffffff166014613820565b6131c78d73ffffffffffffffffffffffffffffffffffffffff166014613820565b6131e88f73ffffffffffffffffffffffffffffffffffffffff166014613820565b866040516020016131fd9594939291906155da565b6040516020818303038152906040529050613217816136bd565b604051602001613227919061569d565b60405160208183030381529060405294505050505098975050505050505050565b600073ffffffffffffffffffffffffffffffffffffffff168373ffffffffffffffffffffffffffffffffffffffff16141580156132b25750600073ffffffffffffffffffffffffffffffffffffffff168273ffffffffffffffffffffffffffffffffffffffff1614155b156132e9576040517f23cbb2b200000000000000000000000000000000000000000000000000000000815260040160405180910390fd5b6132f4838383613a5c565b505050565b505050565b6133088383613a61565b6133156000848484613359565b613354576040517f08c379a000000000000000000000000000000000000000000000000000000000815260040161334b90614fda565b60405180910390fd5b505050565b600061337a8473ffffffffffffffffffffffffffffffffffffffff16613c3a565b156134d3578373ffffffffffffffffffffffffffffffffffffffff1663150b7a026133a361219e565b8786866040518563ffffffff1660e01b81526004016133c594939291906156bf565b6020604051808303816000875af192505050801561340157506040513d601f19601f820116820180604052508101906133fe9190615720565b60015b613483573d8060008114613431576040519150601f19603f3d011682016040523d82523d6000602084013e613436565b606091505b50600081510361347b576040517f08c379a000000000000000000000000000000000000000000000000000000000815260040161347290614fda565b60405180910390fd5b805181602001fd5b63150b7a0260e01b7bffffffffffffffffffffffffffffffffffffffffffffffffffffffff1916817bffffffffffffffffffffffffffffffffffffffffffffffffffffffff1916149150506134d8565b600190505b949350505050565b606060008203613527576040518060400160405280600181526020017f3000000000000000000000000000000000000000000000000000000000000000815250905061363b565b600082905060005b6000821461355957808061354290614752565b915050600a826135529190614c21565b915061352f565b60008167ffffffffffffffff8111156135755761357461431f565b5b6040519080825280601f01601f1916602001820160405280156135a75781602001600182028036833780820191505090505b5090505b60008514613634576001826135c091906146c0565b9150600a856135cf9190614c52565b60306135db9190614e5c565b60f81b8183815181106135f1576135f06146f4565b5b60200101907effffffffffffffffffffffffffffffffffffffffffffffffffffffffffffff1916908160001a905350600a8561362d9190614c21565b94506135ab565b8093505050505b919050565b60606040518061020001604052806101d6815260200161592e6101d69139826040518060400160405280601181526020017f3c2f746578743e3c2f673e3c2f7376673e0000000000000000000000000000008152506040516020016136a79392919061574d565b6040516020818303038152906040529050919050565b606060008251036136df5760405180602001604052806000815250905061381b565b6000604051806060016040528060408152602001615b04604091399050600060036002855161370e9190614e5c565b6137189190614c21565b6004613724919061577e565b67ffffffffffffffff81111561373d5761373c61431f565b5b6040519080825280601f01601f19166020018201604052801561376f5781602001600182028036833780820191505090505b509050600182016020820185865187015b808210156137db576003820191508151603f8160121c168501518453600184019350603f81600c1c168501518453600184019350603f8160061c168501518453600184019350603f8116850151845360018401935050613780565b50506003865106600181146137f7576002811461380a57613812565b603d6001830353603d6002830353613812565b603d60018303535b50505080925050505b919050565b606060006002836002613833919061577e565b61383d9190614e5c565b67ffffffffffffffff8111156138565761385561431f565b5b6040519080825280601f01601f1916602001820160405280156138885781602001600182028036833780820191505090505b5090507f3000000000000000000000000000000000000000000000000000000000000000816000815181106138c0576138bf6146f4565b5b60200101907effffffffffffffffffffffffffffffffffffffffffffffffffffffffffffff1916908160001a9053507f780000000000000000000000000000000000000000000000000000000000000081600181518110613924576139236146f4565b5b60200101907effffffffffffffffffffffffffffffffffffffffffffffffffffffffffffff1916908160001a90535060006001846002613964919061577e565b61396e9190614e5c565b90505b6001811115613a0e577f3031323334353637383961626364656600000000000000000000000000000000600f8616601081106139b0576139af6146f4565b5b1a60f81b8282815181106139c7576139c66146f4565b5b60200101907effffffffffffffffffffffffffffffffffffffffffffffffffffffffffffff1916908160001a905350600485901c945080613a07906157c0565b9050613971565b5060008414613a52576040517f08c379a0000000000000000000000000000000000000000000000000000000008152600401613a4990615835565b60405180910390fd5b8091505092915050565b505050565b600073ffffffffffffffffffffffffffffffffffffffff168273ffffffffffffffffffffffffffffffffffffffff1603613ad0576040517f08c379a0000000000000000000000000000000000000000000000000000000008152600401613ac7906158a1565b60405180910390fd5b613ad981612ede565b15613b19576040517f08c379a0000000000000000000000000000000000000000000000000000000008152600401613b109061590d565b60405180910390fd5b613b2560008383613248565b6001600560008473ffffffffffffffffffffffffffffffffffffffff1673ffffffffffffffffffffffffffffffffffffffff1681526020019081526020016000206000828254613b759190614e5c565b92505081905550816004600083815260200190815260200160002060006101000a81548173ffffffffffffffffffffffffffffffffffffffff021916908373ffffffffffffffffffffffffffffffffffffffff160217905550808273ffffffffffffffffffffffffffffffffffffffff16600073ffffffffffffffffffffffffffffffffffffffff167fddf252ad1be2c89b69c2b068fc378daa952ba7f163c4a11628f55a4df523b3ef60405160405180910390a4613c36600083836132f9565b5050565b6000808273ffffffffffffffffffffffffffffffffffffffff163b119050919050565b5080546000825590600052602060002090810190613c7b9190613c9f565b50565b5080546000825590600052602060002090810190613c9c9190613c9f565b50565b5b80821115613cb8576000816000905550600101613ca0565b5090565b6000604051905090565b600080fd5b600080fd5b60007fffffffff0000000000000000000000000000000000000000000000000000000082169050919050565b613d0581613cd0565b8114613d1057600080fd5b50565b600081359050613d2281613cfc565b92915050565b600060208284031215613d3e57613d3d613cc6565b5b6000613d4c84828501613d13565b91505092915050565b60008115159050919050565b613d6a81613d55565b82525050565b6000602082019050613d856000830184613d61565b92915050565b600081519050919050565b600082825260208201905092915050565b60005b83811015613dc5578082015181840152602081019050613daa565b60008484015250505050565b6000601f19601f8301169050919050565b6000613ded82613d8b565b613df78185613d96565b9350613e07818560208601613da7565b613e1081613dd1565b840191505092915050565b60006020820190508181036000830152613e358184613de2565b905092915050565b6000819050919050565b613e5081613e3d565b8114613e5b57600080fd5b50565b600081359050613e6d81613e47565b92915050565b600060208284031215613e8957613e88613cc6565b5b6000613e9784828501613e5e565b91505092915050565b600073ffffffffffffffffffffffffffffffffffffffff82169050919050565b6000613ecb82613ea0565b9050919050565b613edb81613ec0565b82525050565b6000602082019050613ef66000830184613ed2565b92915050565b613f0581613ec0565b8114613f1057600080fd5b50565b600081359050613f2281613efc565b92915050565b60008060408385031215613f3f57613f3e613cc6565b5b6000613f4d85828601613f13565b9250506020613f5e85828601613e5e565b9150509250929050565b600080600060608486031215613f8157613f80613cc6565b5b6000613f8f86828701613f13565b9350506020613fa086828701613f13565b9250506040613fb186828701613e5e565b9150509250925092565b600080fd5b600080fd5b600080fd5b60008083601f840112613fe057613fdf613fbb565b5b8235905067ffffffffffffffff811115613ffd57613ffc613fc0565b5b60208301915083600182028301111561401957614018613fc5565b5b9250929050565b6000806020838503121561403757614036613cc6565b5b600083013567ffffffffffffffff81111561405557614054613ccb565b5b61406185828601613fca565b92509250509250929050565b6000806000806080858703121561408757614086613cc6565b5b600061409587828801613f13565b94505060206140a687828801613f13565b93505060406140b787828801613e5e565b92505060606140c887828801613e5e565b91505092959194509250565b600080604083850312156140eb576140ea613cc6565b5b60006140f985828601613e5e565b925050602061410a85828601613e5e565b9150509250929050565b600081519050919050565b600082825260208201905092915050565b600061413b82614114565b614145818561411f565b9350614155818560208601613da7565b61415e81613dd1565b840191505092915050565b600060408201905061417e6000830185613d61565b81810360208301526141908184614130565b90509392505050565b6000602082840312156141af576141ae613cc6565b5b60006141bd84828501613f13565b91505092915050565b6141cf81613e3d565b82525050565b60006020820190506141ea60008301846141c6565b92915050565b60006141fb82613ec0565b9050919050565b61420b816141f0565b811461421657600080fd5b50565b60008135905061422881614202565b92915050565b60006020828403121561424457614243613cc6565b5b600061425284828501614219565b91505092915050565b600060a0820190506142706000830188613ed2565b61427d6020830187613ed2565b61428a6040830186613ed2565b61429760608301856141c6565b6142a460808301846141c6565b9695505050505050565b6142b781613d55565b81146142c257600080fd5b50565b6000813590506142d4816142ae565b92915050565b600080604083850312156142f1576142f0613cc6565b5b60006142ff85828601613f13565b9250506020614310858286016142c5565b9150509250929050565b600080fd5b7f4e487b7100000000000000000000000000000000000000000000000000000000600052604160045260246000fd5b61435782613dd1565b810181811067ffffffffffffffff821117156143765761437561431f565b5b80604052505050565b6000614389613cbc565b9050614395828261434e565b919050565b600067ffffffffffffffff8211156143b5576143b461431f565b5b6143be82613dd1565b9050602081019050919050565b82818337600083830152505050565b60006143ed6143e88461439a565b61437f565b9050828152602081018484840111156144095761440861431a565b5b6144148482856143cb565b509392505050565b600082601f83011261443157614430613fbb565b5b81356144418482602086016143da565b91505092915050565b6000806000806080858703121561446457614463613cc6565b5b600061447287828801613f13565b945050602061448387828801613f13565b935050604061449487828801613e5e565b925050606085013567ffffffffffffffff8111156144b5576144b4613ccb565b5b6144c18782880161441c565b91505092959194509250565b600080604083850312156144e4576144e3613cc6565b5b60006144f285828601613f13565b925050602061450385828601613f13565b9150509250929050565b7f4e487b7100000000000000000000000000000000000000000000000000000000600052602260045260246000fd5b6000600282049050600182168061455457607f821691505b6020821081036145675761456661450d565b5b50919050565b7f4552433732313a20617070726f76616c20746f2063757272656e74206f776e6560008201527f7200000000000000000000000000000000000000000000000000000000000000602082015250565b60006145c9602183613d96565b91506145d48261456d565b604082019050919050565b600060208201905081810360008301526145f8816145bc565b9050919050565b7f4552433732313a20617070726f76652063616c6c6572206973206e6f7420746f60008201527f6b656e206f776e6572206e6f7220617070726f76656420666f7220616c6c0000602082015250565b600061465b603e83613d96565b9150614666826145ff565b604082019050919050565b6000602082019050818103600083015261468a8161464e565b9050919050565b7f4e487b7100000000000000000000000000000000000000000000000000000000600052601160045260246000fd5b60006146cb82613e3d565b91506146d683613e3d565b92508282039050818111156146ee576146ed614691565b5b92915050565b7f4e487b7100000000000000000000000000000000000000000000000000000000600052603260045260246000fd5b7f4e487b7100000000000000000000000000000000000000000000000000000000600052603160045260246000fd5b600061475d82613e3d565b91507fffffffffffffffffffffffffffffffffffffffffffffffffffffffffffffffff820361478f5761478e614691565b5b600182019050919050565b7f5265656e7472616e637947756172643a207265656e7472616e742063616c6c00600082015250565b60006147d0601f83613d96565b91506147db8261479a565b602082019050919050565b600060208201905081810360008301526147ff816147c3565b9050919050565b7f4552433732313a2063616c6c6572206973206e6f7420746f6b656e206f776e6560008201527f72206e6f7220617070726f766564000000000000000000000000000000000000602082015250565b6000614862602e83613d96565b915061486d82614806565b604082019050919050565b6000602082019050818103600083015261489181614855565b9050919050565b60006080820190506148ad6000830187613ed2565b6148ba60208301866141c6565b6148c760408301856141c6565b6148d460608301846141c6565b95945050505050565b7f4552433732313a20696e76616c696420746f6b656e2049440000000000000000600082015250565b6000614913601883613d96565b915061491e826148dd565b602082019050919050565b6000602082019050818103600083015261494281614906565b9050919050565b7f4552433732313a2061646472657373207a65726f206973206e6f74206120766160008201527f6c6964206f776e65720000000000000000000000000000000000000000000000602082015250565b60006149a5602983613d96565b91506149b082614949565b604082019050919050565b600060208201905081810360008301526149d481614998565b9050919050565b6000815190506149ea81613e47565b92915050565b600060208284031215614a0657614a05613cc6565b5b6000614a14848285016149db565b91505092915050565b6000604082019050614a326000830185613ed2565b614a3f60208301846141c6565b9392505050565b600081519050614a55816142ae565b92915050565b600060208284031215614a7157614a70613cc6565b5b6000614a7f84828501614a46565b91505092915050565b7f556e61626c6520746f207472616e736665720000000000000000000000000000600082015250565b6000614abe601283613d96565b9150614ac982614a88565b602082019050919050565b60006020820190508181036000830152614aed81614ab1565b9050919050565b7f4578706972333a204e6f6e2d4578697374656e7420546f6b656e204944000000600082015250565b6000614b2a601d83613d96565b9150614b3582614af4565b602082019050919050565b60006020820190508181036000830152614b5981614b1d565b9050919050565b7f4f776e61626c653a206e6577206f776e657220697320746865207a65726f206160008201527f6464726573730000000000000000000000000000000000000000000000000000602082015250565b6000614bbc602683613d96565b9150614bc782614b60565b604082019050919050565b60006020820190508181036000830152614beb81614baf565b9050919050565b7f4e487b7100000000000000000000000000000000000000000000000000000000600052601260045260246000fd5b6000614c2c82613e3d565b9150614c3783613e3d565b925082614c4757614c46614bf2565b5b828204905092915050565b6000614c5d82613e3d565b9150614c6883613e3d565b925082614c7857614c77614bf2565b5b828206905092915050565b6000606082019050614c986000830186613ed2565b614ca56020830185613ed2565b614cb260408301846141c6565b949350505050565b50565b6000614cca60008361411f565b9150614cd582614cba565b600082019050919050565b600060a082019050614cf56000830187613ed2565b614d026020830186613ed2565b614d0f60408301856141c6565b614d1c60608301846141c6565b8181036080830152614d2d81614cbd565b905095945050505050565b7f4552433732313a207472616e736665722066726f6d20696e636f72726563742060008201527f6f776e6572000000000000000000000000000000000000000000000000000000602082015250565b6000614d94602583613d96565b9150614d9f82614d38565b604082019050919050565b60006020820190508181036000830152614dc381614d87565b9050919050565b7f4552433732313a207472616e7366657220746f20746865207a65726f2061646460008201527f7265737300000000000000000000000000000000000000000000000000000000602082015250565b6000614e26602483613d96565b9150614e3182614dca565b604082019050919050565b60006020820190508181036000830152614e5581614e19565b9050919050565b6000614e6782613e3d565b9150614e7283613e3d565b9250828201905080821115614e8a57614e89614691565b5b92915050565b7f4f776e61626c653a2063616c6c6572206973206e6f7420746865206f776e6572600082015250565b6000614ec6602083613d96565b9150614ed182614e90565b602082019050919050565b60006020820190508181036000830152614ef581614eb9565b9050919050565b7f4552433732313a20617070726f766520746f2063616c6c657200000000000000600082015250565b6000614f32601983613d96565b9150614f3d82614efc565b602082019050919050565b60006020820190508181036000830152614f6181614f25565b9050919050565b7f4552433732313a207472616e7366657220746f206e6f6e20455243373231526560008201527f63656976657220696d706c656d656e7465720000000000000000000000000000602082015250565b6000614fc4603283613d96565b9150614fcf82614f68565b604082019050919050565b60006020820190508181036000830152614ff381614fb7565b9050919050565b600081905092915050565b7f227d2c7b2274726169745f74797065223a22546f6b656e2054797065222c227660008201527f616c7565223a2200000000000000000000000000000000000000000000000000602082015250565b6000615061602783614ffa565b915061506c82615005565b602782019050919050565b600061508282613d8b565b61508c8185614ffa565b935061509c818560208601613da7565b80840191505092915050565b7f227d2c7b2274726169745f74797065223a22616d6f756e74222c2276616c756560008201527f223a220000000000000000000000000000000000000000000000000000000000602082015250565b6000615104602383614ffa565b915061510f826150a8565b602382019050919050565b600061512582615054565b91506151318285615077565b915061513c826150f7565b91506151488284615077565b91508190509392505050565b7f227d2c7b2274726169745f74797065223a22746f6b656e4964222c2276616c7560008201527f65223a2200000000000000000000000000000000000000000000000000000000602082015250565b60006151b0602483614ffa565b91506151bb82615154565b602482019050919050565b60006151d182615054565b91506151dd8285615077565b91506151e8826151a3565b91506151f48284615077565b91508190509392505050565b600061520b82615054565b91506152178286615077565b9150615222826151a3565b915061522e8285615077565b9150615239826150f7565b91506152458284615077565b9150819050949350505050565b7f7b226e616d65223a220000000000000000000000000000000000000000000000600082015250565b6000615288600983614ffa565b915061529382615252565b600982019050919050565b7f2023000000000000000000000000000000000000000000000000000000000000600082015250565b60006152d4600283614ffa565b91506152df8261529e565b600282019050919050565b7f222c2273796d626f6c223a220000000000000000000000000000000000000000600082015250565b6000615320600c83614ffa565b915061532b826152ea565b600c82019050919050565b7f222c226465736372697074696f6e223a224578706972333a20596f7572206f6e60008201527f2d636861696e2077696c6c222c22696d616765223a2022646174613a696d616760208201527f652f7376672b786d6c3b6261736536342c000000000000000000000000000000604082015250565b60006153b8605183614ffa565b91506153c382615336565b605182019050919050565b60006153d98261527b565b91506153e58287615077565b91506153f0826152c7565b91506153fc8286615077565b915061540782615313565b91506154138285615077565b915061541e826153ab565b915061542a8284615077565b915081905095945050505050565b7f222c2261747472696275746573223a5b7b2274726169745f74797065223a227460008201527f65737461746f72222c2276616c7565223a220000000000000000000000000000602082015250565b6000615494603283614ffa565b915061549f82615438565b603282019050919050565b7f227d2c7b2274726169745f74797065223a2262656e6566696369617279222c2260008201527f76616c7565223a22000000000000000000000000000000000000000000000000602082015250565b6000615506602883614ffa565b9150615511826154aa565b602882019050919050565b7f227d2c7b2274726169745f74797065223a22746f6b656e222c2276616c75652260008201527f3a22000000000000000000000000000000000000000000000000000000000000602082015250565b6000615578602283614ffa565b91506155838261551c565b602282019050919050565b7f227d5d7d00000000000000000000000000000000000000000000000000000000600082015250565b60006155c4600483614ffa565b91506155cf8261558e565b600482019050919050565b60006155e68288615077565b91506155f182615487565b91506155fd8287615077565b9150615608826154f9565b91506156148286615077565b915061561f8261556b565b915061562b8285615077565b91506156378284615077565b9150615642826155b7565b91508190509695505050505050565b7f646174613a6170706c69636174696f6e2f6a736f6e3b6261736536342c000000600082015250565b6000615687601d83614ffa565b915061569282615651565b601d82019050919050565b60006156a88261567a565b91506156b48284615077565b915081905092915050565b60006080820190506156d46000830187613ed2565b6156e16020830186613ed2565b6156ee60408301856141c6565b81810360608301526157008184614130565b905095945050505050565b60008151905061571a81613cfc565b92915050565b60006020828403121561573657615735613cc6565b5b60006157448482850161570b565b91505092915050565b60006157598286615077565b91506157658285615077565b91506157718284615077565b9150819050949350505050565b600061578982613e3d565b915061579483613e3d565b92508282026157a281613e3d565b915082820484148315176157b9576157b8614691565b5b5092915050565b60006157cb82613e3d565b9150600082036157de576157dd614691565b5b600182039050919050565b7f537472696e67733a20686578206c656e67746820696e73756666696369656e74600082015250565b600061581f602083613d96565b915061582a826157e9565b602082019050919050565b6000602082019050818103600083015261584e81615812565b9050919050565b7f4552433732313a206d696e7420746f20746865207a65726f2061646472657373600082015250565b600061588b602083613d96565b915061589682615855565b602082019050919050565b600060208201905081810360008301526158ba8161587e565b9050919050565b7f4552433732313a20746f6b656e20616c7265616479206d696e74656400000000600082015250565b60006158f7601c83613d96565b9150615902826158c1565b602082019050919050565b60006020820190508181036000830152615926816158ea565b905091905056fe3c73766720786d6c6e733d22687474703a2f2f7777772e77332e6f72672f323030302f737667222077696474683d2235303022206865696768743d22353030222076696577426f783d2230203020353030203530302220666f6e742d66616d696c793d222d6170706c652d73797374656d2c426c696e6b4d616353797374656d466f6e742c275365676f65205549272c2748656c766574696361204e657565272c417269616c2c73616e732d7365726966223e3c7265637420783d22302220793d2230222077696474683d223130302522206865696768743d2231303025222066696c6c3d2223656565222072783d2231302522202f3e3c672069643d2274657874222066696c6c3d22626c61636b2220666f6e742d73697a653d2238302220666f6e742d7765696768743d223530302220746578742d616e63686f723d226d6964646c65223e3c7465787420783d223530252220793d223430252220666f6e742d7765696768743d22373030223e4578706972333c2f746578743e3c7465787420783d223530252220793d22363525223e4c65676163793c2f746578743e3c7465787420783d223930252220793d223930252220666f6e742d73697a653d2233362220746578742d616e63686f723d22656e64223e4142434445464748494a4b4c4d4e4f505152535455565758595a6162636465666768696a6b6c6d6e6f707172737475767778797a303132333435363738392b2fa2646970667358221220ec72a6f6364e4a295ef9b84de857d36b097e14d42c0a45dd8b992458d94fbfb664736f6c63430008110033",
  "linkReferences": {},
  "deployedLinkReferences": {}
}