{
    "_format": "hh-sol-artifact-1",
    "contractName": "Expir3",
    "sourceName": "contracts/Expir3.sol",
    "abi": [
        {
            "inputs": [],
            "stateMutability": "nonpayable",
            "type": "constructor"
        },
        {
            "inputs": [],
            "name": "InvalidLegacy",
            "type": "error"
        },
        {
            "inputs": [],
            "name": "NoLegacyRegistered",
            "type": "error"
        },
        {
            "anonymous": false,
            "inputs": [
                {
                    "indexed": true,
                    "internalType": "uint256",
                    "name": "timestamp",
                    "type": "uint256"
                },
                {
                    "indexed": true,
                    "internalType": "address",
                    "name": "testator",
                    "type": "address"
                },
                {
                    "indexed": true,
                    "internalType": "address",
                    "name": "token",
                    "type": "address"
                },
                {
                    "indexed": false,
                    "internalType": "address",
                    "name": "beneficiary",
                    "type": "address"
                },
                {
                    "indexed": false,
                    "internalType": "uint256",
                    "name": "amount",
                    "type": "uint256"
                },
                {
                    "indexed": false,
                    "internalType": "uint256",
                    "name": "tokenId",
                    "type": "uint256"
                }
            ],
            "name": "AddLegacy",
            "type": "event"
        },
        {
            "anonymous": false,
            "inputs": [
                {
                    "indexed": true,
                    "internalType": "address",
                    "name": "owner",
                    "type": "address"
                },
                {
                    "indexed": true,
                    "internalType": "address",
                    "name": "approved",
                    "type": "address"
                },
                {
                    "indexed": true,
                    "internalType": "uint256",
                    "name": "tokenId",
                    "type": "uint256"
                }
            ],
            "name": "Approval",
            "type": "event"
        },
        {
            "anonymous": false,
            "inputs": [
                {
                    "indexed": true,
                    "internalType": "address",
                    "name": "owner",
                    "type": "address"
                },
                {
                    "indexed": true,
                    "internalType": "address",
                    "name": "operator",
                    "type": "address"
                },
                {
                    "indexed": false,
                    "internalType": "bool",
                    "name": "approved",
                    "type": "bool"
                }
            ],
            "name": "ApprovalForAll",
            "type": "event"
        },
        {
            "anonymous": false,
            "inputs": [
                {
                    "indexed": true,
                    "internalType": "uint256",
                    "name": "timestamp",
                    "type": "uint256"
                },
                {
                    "indexed": true,
                    "internalType": "address",
                    "name": "testator",
                    "type": "address"
                },
                {
                    "indexed": true,
                    "internalType": "uint256",
                    "name": "executionDay",
                    "type": "uint256"
                }
            ],
            "name": "Executed",
            "type": "event"
        },
        {
            "anonymous": false,
            "inputs": [
                {
                    "indexed": true,
                    "internalType": "uint256",
                    "name": "timestamp",
                    "type": "uint256"
                },
                {
                    "indexed": true,
                    "internalType": "address",
                    "name": "testator",
                    "type": "address"
                },
                {
                    "indexed": true,
                    "internalType": "address",
                    "name": "beneficiary",
                    "type": "address"
                },
                {
                    "indexed": false,
                    "internalType": "address",
                    "name": "token",
                    "type": "address"
                },
                {
                    "indexed": false,
                    "internalType": "uint256",
                    "name": "amount",
                    "type": "uint256"
                },
                {
                    "indexed": false,
                    "internalType": "uint256",
                    "name": "tokenId",
                    "type": "uint256"
                }
            ],
            "name": "LegacyTransferFailed",
            "type": "event"
        },
        {
            "anonymous": false,
            "inputs": [
                {
                    "indexed": true,
                    "internalType": "uint256",
                    "name": "timestamp",
                    "type": "uint256"
                },
                {
                    "indexed": true,
                    "internalType": "address",
                    "name": "testator",
                    "type": "address"
                },
                {
                    "indexed": true,
                    "internalType": "uint256",
                    "name": "executionDay",
                    "type": "uint256"
                }
            ],
            "name": "NewExecutionDay",
            "type": "event"
        },
        {
            "anonymous": false,
            "inputs": [
                {
                    "indexed": true,
                    "internalType": "address",
                    "name": "previousOwner",
                    "type": "address"
                },
                {
                    "indexed": true,
                    "internalType": "address",
                    "name": "newOwner",
                    "type": "address"
                }
            ],
            "name": "OwnershipTransferred",
            "type": "event"
        },
        {
            "anonymous": false,
            "inputs": [
                {
                    "indexed": true,
                    "internalType": "uint256",
                    "name": "timestamp",
                    "type": "uint256"
                },
                {
                    "indexed": true,
                    "internalType": "address",
                    "name": "testator",
                    "type": "address"
                },
                {
                    "indexed": true,
                    "internalType": "address",
                    "name": "token",
                    "type": "address"
                },
                {
                    "indexed": false,
                    "internalType": "address",
                    "name": "beneficiary",
                    "type": "address"
                },
                {
                    "indexed": false,
                    "internalType": "uint256",
                    "name": "amount",
                    "type": "uint256"
                },
                {
                    "indexed": false,
                    "internalType": "uint256",
                    "name": "tokenId",
                    "type": "uint256"
                }
            ],
            "name": "RemoveLegacy",
            "type": "event"
        },
        {
            "anonymous": false,
            "inputs": [
                {
                    "indexed": true,
                    "internalType": "address",
                    "name": "from",
                    "type": "address"
                },
                {
                    "indexed": true,
                    "internalType": "address",
                    "name": "to",
                    "type": "address"
                },
                {
                    "indexed": true,
                    "internalType": "uint256",
                    "name": "tokenId",
                    "type": "uint256"
                }
            ],
            "name": "Transfer",
            "type": "event"
        },
        {
            "inputs": [
                {
                    "internalType": "address",
                    "name": "token",
                    "type": "address"
                },
                {
                    "internalType": "address",
                    "name": "beneficiary",
                    "type": "address"
                },
                {
                    "internalType": "uint256",
                    "name": "amount",
                    "type": "uint256"
                },
                {
                    "internalType": "uint256",
                    "name": "tokenId",
                    "type": "uint256"
                }
            ],
            "name": "addLegacy",
            "outputs": [],
            "stateMutability": "nonpayable",
            "type": "function"
        },
        {
            "inputs": [
                {
                    "internalType": "address",
                    "name": "to",
                    "type": "address"
                },
                {
                    "internalType": "uint256",
                    "name": "tokenId",
                    "type": "uint256"
                }
            ],
            "name": "approve",
            "outputs": [],
            "stateMutability": "nonpayable",
            "type": "function"
        },
        {
            "inputs": [
                {
                    "internalType": "address",
                    "name": "owner",
                    "type": "address"
                }
            ],
            "name": "balanceOf",
            "outputs": [
                {
                    "internalType": "uint256",
                    "name": "",
                    "type": "uint256"
                }
            ],
            "stateMutability": "view",
            "type": "function"
        },
        {
            "inputs": [],
            "name": "checkIn",
            "outputs": [],
            "stateMutability": "nonpayable",
            "type": "function"
        },
        {
            "inputs": [
                {
                    "internalType": "bytes",
                    "name": "",
                    "type": "bytes"
                }
            ],
            "name": "checkUpkeep",
            "outputs": [
                {
                    "internalType": "bool",
                    "name": "upkeepNeeded",
                    "type": "bool"
                },
                {
                    "internalType": "bytes",
                    "name": "tempData",
                    "type": "bytes"
                }
            ],
            "stateMutability": "view",
            "type": "function"
        },
        {
            "inputs": [
                {
                    "internalType": "uint256",
                    "name": "day",
                    "type": "uint256"
                }
            ],
            "name": "executeDay",
            "outputs": [],
            "stateMutability": "nonpayable",
            "type": "function"
        },
        {
            "inputs": [
                {
                    "internalType": "address",
                    "name": "",
                    "type": "address"
                }
            ],
            "name": "executionDay",
            "outputs": [
                {
                    "internalType": "uint256",
                    "name": "",
                    "type": "uint256"
                }
            ],
            "stateMutability": "view",
            "type": "function"
        },
        {
            "inputs": [
                {
                    "internalType": "uint256",
                    "name": "",
                    "type": "uint256"
                },
                {
                    "internalType": "uint256",
                    "name": "",
                    "type": "uint256"
                }
            ],
            "name": "executionList",
            "outputs": [
                {
                    "internalType": "address",
                    "name": "",
                    "type": "address"
                }
            ],
            "stateMutability": "view",
            "type": "function"
        },
        {
            "inputs": [],
            "name": "fakeExecute",
            "outputs": [],
            "stateMutability": "nonpayable",
            "type": "function"
        },
        {
            "inputs": [],
            "name": "fakeUpkeep",
            "outputs": [
                {
                    "internalType": "bool",
                    "name": "",
                    "type": "bool"
                }
            ],
            "stateMutability": "view",
            "type": "function"
        },
        {
            "inputs": [
                {
                    "internalType": "uint256",
                    "name": "tokenId",
                    "type": "uint256"
                }
            ],
            "name": "getApproved",
            "outputs": [
                {
                    "internalType": "address",
                    "name": "",
                    "type": "address"
                }
            ],
            "stateMutability": "view",
            "type": "function"
        },
        {
            "inputs": [
                {
                    "internalType": "address",
                    "name": "owner",
                    "type": "address"
                },
                {
                    "internalType": "address",
                    "name": "operator",
                    "type": "address"
                }
            ],
            "name": "isApprovedForAll",
            "outputs": [
                {
                    "internalType": "bool",
                    "name": "",
                    "type": "bool"
                }
            ],
            "stateMutability": "view",
            "type": "function"
        },
        {
            "inputs": [
                {
                    "internalType": "address",
                    "name": "",
                    "type": "address"
                },
                {
                    "internalType": "uint256",
                    "name": "",
                    "type": "uint256"
                }
            ],
            "name": "legacies",
            "outputs": [
                {
                    "internalType": "address",
                    "name": "token",
                    "type": "address"
                },
                {
                    "internalType": "address",
                    "name": "beneficiary",
                    "type": "address"
                },
                {
                    "internalType": "uint256",
                    "name": "amount",
                    "type": "uint256"
                },
                {
                    "internalType": "uint256",
                    "name": "tokenId",
                    "type": "uint256"
                }
            ],
            "stateMutability": "view",
            "type": "function"
        },
        {
            "inputs": [],
            "name": "name",
            "outputs": [
                {
                    "internalType": "string",
                    "name": "",
                    "type": "string"
                }
            ],
            "stateMutability": "view",
            "type": "function"
        },
        {
            "inputs": [],
            "name": "owner",
            "outputs": [
                {
                    "internalType": "address",
                    "name": "",
                    "type": "address"
                }
            ],
            "stateMutability": "view",
            "type": "function"
        },
        {
            "inputs": [
                {
                    "internalType": "uint256",
                    "name": "tokenId",
                    "type": "uint256"
                }
            ],
            "name": "ownerOf",
            "outputs": [
                {
                    "internalType": "address",
                    "name": "",
                    "type": "address"
                }
            ],
            "stateMutability": "view",
            "type": "function"
        },
        {
            "inputs": [
                {
                    "internalType": "bytes",
                    "name": "",
                    "type": "bytes"
                }
            ],
            "name": "performUpkeep",
            "outputs": [],
            "stateMutability": "nonpayable",
            "type": "function"
        },
        {
            "inputs": [
                {
                    "internalType": "uint256",
                    "name": "position",
                    "type": "uint256"
                }
            ],
            "name": "removeLegacy",
            "outputs": [],
            "stateMutability": "nonpayable",
            "type": "function"
        },
        {
            "inputs": [],
            "name": "renounceOwnership",
            "outputs": [],
            "stateMutability": "nonpayable",
            "type": "function"
        },
        {
            "inputs": [
                {
                    "internalType": "address",
                    "name": "from",
                    "type": "address"
                },
                {
                    "internalType": "address",
                    "name": "to",
                    "type": "address"
                },
                {
                    "internalType": "uint256",
                    "name": "tokenId",
                    "type": "uint256"
                }
            ],
            "name": "safeTransferFrom",
            "outputs": [],
            "stateMutability": "nonpayable",
            "type": "function"
        },
        {
            "inputs": [
                {
                    "internalType": "address",
                    "name": "from",
                    "type": "address"
                },
                {
                    "internalType": "address",
                    "name": "to",
                    "type": "address"
                },
                {
                    "internalType": "uint256",
                    "name": "tokenId",
                    "type": "uint256"
                },
                {
                    "internalType": "bytes",
                    "name": "data",
                    "type": "bytes"
                }
            ],
            "name": "safeTransferFrom",
            "outputs": [],
            "stateMutability": "nonpayable",
            "type": "function"
        },
        {
            "inputs": [
                {
                    "internalType": "address",
                    "name": "operator",
                    "type": "address"
                },
                {
                    "internalType": "bool",
                    "name": "approved",
                    "type": "bool"
                }
            ],
            "name": "setApprovalForAll",
            "outputs": [],
            "stateMutability": "nonpayable",
            "type": "function"
        },
        {
            "inputs": [
                {
                    "internalType": "bytes4",
                    "name": "interfaceId",
                    "type": "bytes4"
                }
            ],
            "name": "supportsInterface",
            "outputs": [
                {
                    "internalType": "bool",
                    "name": "",
                    "type": "bool"
                }
            ],
            "stateMutability": "view",
            "type": "function"
        },
        {
            "inputs": [],
            "name": "symbol",
            "outputs": [
                {
                    "internalType": "string",
                    "name": "",
                    "type": "string"
                }
            ],
            "stateMutability": "view",
            "type": "function"
        },
        {
            "inputs": [
                {
                    "internalType": "uint256",
                    "name": "tokenId",
                    "type": "uint256"
                }
            ],
            "name": "tokenURI",
            "outputs": [
                {
                    "internalType": "string",
                    "name": "",
                    "type": "string"
                }
            ],
            "stateMutability": "view",
            "type": "function"
        },
        {
            "inputs": [
                {
                    "internalType": "address",
                    "name": "from",
                    "type": "address"
                },
                {
                    "internalType": "address",
                    "name": "to",
                    "type": "address"
                },
                {
                    "internalType": "uint256",
                    "name": "tokenId",
                    "type": "uint256"
                }
            ],
            "name": "transferFrom",
            "outputs": [],
            "stateMutability": "nonpayable",
            "type": "function"
        },
        {
            "inputs": [
                {
                    "internalType": "address",
                    "name": "newOwner",
                    "type": "address"
                }
            ],
            "name": "transferOwnership",
            "outputs": [],
            "stateMutability": "nonpayable",
            "type": "function"
        },
        {
            "inputs": [
                {
                    "internalType": "uint256",
                    "name": "day",
                    "type": "uint256"
                }
            ],
            "name": "willsToExecuteInDay",
            "outputs": [
                {
                    "internalType": "bool",
                    "name": "",
                    "type": "bool"
                }
            ],
            "stateMutability": "view",
            "type": "function"
        },
        {
            "inputs": [
                {
                    "internalType": "contract IERC20",
                    "name": "_tokenAddress",
                    "type": "address"
                }
            ],
            "name": "withdrawToken",
            "outputs": [],
            "stateMutability": "nonpayable",
            "type": "function"
        }
    ],
    "bytecode": "0x60806040523480156200001157600080fd5b506040518060400160405280600681526020017f45787069723300000000000000000000000000000000000000000000000000008152506040518060400160405280600381526020017f45585000000000000000000000000000000000000000000000000000000000008152506200009e62000092620000d160201b60201c565b620000d960201b60201c565b600180819055508160029081620000b6919062000417565b508060039081620000c8919062000417565b505050620004fe565b600033905090565b60008060009054906101000a900473ffffffffffffffffffffffffffffffffffffffff169050816000806101000a81548173ffffffffffffffffffffffffffffffffffffffff021916908373ffffffffffffffffffffffffffffffffffffffff1602179055508173ffffffffffffffffffffffffffffffffffffffff168173ffffffffffffffffffffffffffffffffffffffff167f8be0079c531659141344cd1fd0a4f28419497f9722a3daafe3b4186f6b6457e060405160405180910390a35050565b600081519050919050565b7f4e487b7100000000000000000000000000000000000000000000000000000000600052604160045260246000fd5b7f4e487b7100000000000000000000000000000000000000000000000000000000600052602260045260246000fd5b600060028204905060018216806200021f57607f821691505b602082108103620002355762000234620001d7565b5b50919050565b60008190508160005260206000209050919050565b60006020601f8301049050919050565b600082821b905092915050565b6000600883026200029f7fffffffffffffffffffffffffffffffffffffffffffffffffffffffffffffffff8262000260565b620002ab868362000260565b95508019841693508086168417925050509392505050565b6000819050919050565b6000819050919050565b6000620002f8620002f2620002ec84620002c3565b620002cd565b620002c3565b9050919050565b6000819050919050565b6200031483620002d7565b6200032c6200032382620002ff565b8484546200026d565b825550505050565b600090565b6200034362000334565b6200035081848462000309565b505050565b5b8181101562000378576200036c60008262000339565b60018101905062000356565b5050565b601f821115620003c75762000391816200023b565b6200039c8462000250565b81016020851015620003ac578190505b620003c4620003bb8562000250565b83018262000355565b50505b505050565b600082821c905092915050565b6000620003ec60001984600802620003cc565b1980831691505092915050565b6000620004078383620003d9565b9150826002028217905092915050565b62000422826200019d565b67ffffffffffffffff8111156200043e576200043d620001a8565b5b6200044a825462000206565b620004578282856200037c565b600060209050601f8311600181146200048f57600084156200047a578287015190505b620004868582620003f9565b865550620004f6565b601f1984166200049f866200023b565b60005b82811015620004c957848901518255600182019150602085019450602081019050620004a2565b86831015620004e95784890151620004e5601f891682620003d9565b8355505b6001600288020188555050505b505050505050565b614345806200050e6000396000f3fe608060405234801561001057600080fd5b50600436106101cf5760003560e01c80636e04ff0d11610104578063b88d4fde116100a2578063f02da65f11610071578063f02da65f1461053e578063f2fde38b1461056e578063f3feed411461058a578063fff12162146105a8576101cf565b8063b88d4fde1461048f578063c87b56dd146104ab578063cfc3ebe7146104db578063e985e9c51461050e576101cf565b806389476069116100de578063894760691461041b5780638da5cb5b1461043757806395d89b4114610455578063a22cb46514610473576101cf565b80636e04ff0d146103b057806370a08231146103e1578063715018a614610411576101cf565b806342842e0e1161017157806353190ec51161014b57806353190ec5146103185780636352211e1461033457806366484fcf146103645780636aac353f14610380576101cf565b806342842e0e146102b05780634585e33b146102cc5780634cd37174146102e8576101cf565b8063095ea7b3116101ad578063095ea7b314610252578063183ff0851461026e5780631a56273f1461027857806323b872dd14610294576101cf565b806301ffc9a7146101d457806306fdde0314610204578063081812fc14610222575b600080fd5b6101ee60048036038101906101e99190612ecd565b6105b2565b6040516101fb9190612f15565b60405180910390f35b61020c610694565b6040516102199190612fc0565b60405180910390f35b61023c60048036038101906102379190613018565b610726565b6040516102499190613086565b60405180910390f35b61026c600480360381019061026791906130cd565b61076c565b005b610276610883565b005b610292600480360381019061028d9190613018565b610b7a565b005b6102ae60048036038101906102a9919061310d565b610d21565b005b6102ca60048036038101906102c5919061310d565b610d81565b005b6102e660048036038101906102e191906131c5565b610da1565b005b61030260048036038101906102fd9190613018565b610dca565b60405161030f9190612f15565b60405180910390f35b610332600480360381019061032d9190613212565b610dec565b005b61034e60048036038101906103499190613018565b6110dd565b60405161035b9190613086565b60405180910390f35b61037e60048036038101906103799190613018565b61118e565b005b61039a60048036038101906103959190613279565b611638565b6040516103a79190613086565b60405180910390f35b6103ca60048036038101906103c591906131c5565b611686565b6040516103d892919061330e565b60405180910390f35b6103fb60048036038101906103f6919061333e565b6116d4565b604051610408919061337a565b60405180910390f35b61041961178b565b005b610435600480360381019061043091906133d3565b61179f565b005b61043f6118e0565b60405161044c9190613086565b60405180910390f35b61045d611909565b60405161046a9190612fc0565b60405180910390f35b61048d6004803603810190610488919061342c565b61199b565b005b6104a960048036038101906104a4919061359c565b6119b1565b005b6104c560048036038101906104c09190613018565b611a13565b6040516104d29190612fc0565b60405180910390f35b6104f560048036038101906104f091906130cd565b611aef565b604051610505949392919061361f565b60405180910390f35b61052860048036038101906105239190613664565b611b7c565b6040516105359190612f15565b60405180910390f35b6105586004803603810190610553919061333e565b611c10565b604051610565919061337a565b60405180910390f35b6105886004803603810190610583919061333e565b611c28565b005b610592611cab565b60405161059f9190612f15565b60405180910390f35b6105b0611cdc565b005b60007f80ac58cd000000000000000000000000000000000000000000000000000000007bffffffffffffffffffffffffffffffffffffffffffffffffffffffff1916827bffffffffffffffffffffffffffffffffffffffffffffffffffffffff1916148061067d57507f5b5e139f000000000000000000000000000000000000000000000000000000007bffffffffffffffffffffffffffffffffffffffffffffffffffffffff1916827bffffffffffffffffffffffffffffffffffffffffffffffffffffffff1916145b8061068d575061068c82611d03565b5b9050919050565b6060600280546106a3906136d3565b80601f01602080910402602001604051908101604052809291908181526020018280546106cf906136d3565b801561071c5780601f106106f15761010080835404028352916020019161071c565b820191906000526020600020905b8154815290600101906020018083116106ff57829003601f168201915b5050505050905090565b600061073182611d6d565b6006600083815260200190815260200160002060009054906101000a900473ffffffffffffffffffffffffffffffffffffffff169050919050565b6000610777826110dd565b90508073ffffffffffffffffffffffffffffffffffffffff168373ffffffffffffffffffffffffffffffffffffffff16036107e7576040517f08c379a00000000000000000000000000000000000000000000000000000000081526004016107de90613776565b60405180910390fd5b8073ffffffffffffffffffffffffffffffffffffffff16610806611db8565b73ffffffffffffffffffffffffffffffffffffffff16148061083557506108348161082f611db8565b611b7c565b5b610874576040517f08c379a000000000000000000000000000000000000000000000000000000000815260040161086b90613808565b60405180910390fd5b61087e8383611dc0565b505050565b6000600c60003373ffffffffffffffffffffffffffffffffffffffff1673ffffffffffffffffffffffffffffffffffffffff16815260200190815260200160002080549050036108ff576040517f898073a700000000000000000000000000000000000000000000000000000000815260040160405180910390fd5b6000600a60003373ffffffffffffffffffffffffffffffffffffffff1673ffffffffffffffffffffffffffffffffffffffff16815260200190815260200160002054905061095a62015180426109559190613857565b611e79565b600a60003373ffffffffffffffffffffffffffffffffffffffff1673ffffffffffffffffffffffffffffffffffffffff1681526020019081526020016000208190555060005b600b600083815260200190815260200160002080549050811015610ac3573373ffffffffffffffffffffffffffffffffffffffff16600b600084815260200190815260200160002082815481106109fa576109f961388b565b5b9060005260206000200160009054906101000a900473ffffffffffffffffffffffffffffffffffffffff1673ffffffffffffffffffffffffffffffffffffffff1603610ab0576000600b60008481526020019081526020016000208281548110610a6757610a6661388b565b5b9060005260206000200160006101000a81548173ffffffffffffffffffffffffffffffffffffffff021916908373ffffffffffffffffffffffffffffffffffffffff1602179055505b8080610abb906138ba565b9150506109a0565b50600b6000600a60003373ffffffffffffffffffffffffffffffffffffffff1673ffffffffffffffffffffffffffffffffffffffff168152602001908152602001600020548152602001908152602001600020339080600181540180825580915050600190039060005260206000200160009091909190916101000a81548173ffffffffffffffffffffffffffffffffffffffff021916908373ffffffffffffffffffffffffffffffffffffffff16021790555050565b600260015403610bbf576040517f08c379a0000000000000000000000000000000000000000000000000000000008152600401610bb69061394e565b60405180910390fd5b60026001819055506000600b6000838152602001908152602001600020805490500315610d175760005b600b600083815260200190815260200160002080549050811015610cf657600073ffffffffffffffffffffffffffffffffffffffff16600b60008481526020019081526020016000208281548110610c4457610c4361388b565b5b9060005260206000200160009054906101000a900473ffffffffffffffffffffffffffffffffffffffff1673ffffffffffffffffffffffffffffffffffffffff1614610ce357610ce2600b60008481526020019081526020016000208281548110610cb257610cb161388b565b5b9060005260206000200160009054906101000a900473ffffffffffffffffffffffffffffffffffffffff16611e9e565b5b8080610cee906138ba565b915050610be9565b50600b60008281526020019081526020016000206000610d169190612d8a565b5b6001808190555050565b610d32610d2c611db8565b826122ef565b610d71576040517f08c379a0000000000000000000000000000000000000000000000000000000008152600401610d68906139e0565b60405180910390fd5b610d7c838383612384565b505050565b610d9c838383604051806020016040528060008152506119b1565b505050565b6000610dba6201518042610db59190613857565b611e79565b9050610dc581610b7a565b505050565b600080600b600084815260200190815260200160002080549050119050919050565b600073ffffffffffffffffffffffffffffffffffffffff168473ffffffffffffffffffffffffffffffffffffffff161480610e535750600073ffffffffffffffffffffffffffffffffffffffff168373ffffffffffffffffffffffffffffffffffffffff16145b80610e6a5750600082148015610e695750600081145b5b15610ea1576040517fd9f24a3800000000000000000000000000000000000000000000000000000000815260040160405180910390fd5b600c60003373ffffffffffffffffffffffffffffffffffffffff1673ffffffffffffffffffffffffffffffffffffffff16815260200190815260200160002060405180608001604052808673ffffffffffffffffffffffffffffffffffffffff1681526020018573ffffffffffffffffffffffffffffffffffffffff16815260200184815260200183815250908060018154018082558091505060019003906000526020600020906004020160009091909190915060008201518160000160006101000a81548173ffffffffffffffffffffffffffffffffffffffff021916908373ffffffffffffffffffffffffffffffffffffffff16021790555060208201518160010160006101000a81548173ffffffffffffffffffffffffffffffffffffffff021916908373ffffffffffffffffffffffffffffffffffffffff160217905550604082015181600201556060820151816003015550508373ffffffffffffffffffffffffffffffffffffffff163373ffffffffffffffffffffffffffffffffffffffff16427f0aa72fdf5d68e7afa39a01827c45b82fa63e1e06c4e2d84f32f75e844b585f4286868660405161105c93929190613a00565b60405180910390a46000600a60003373ffffffffffffffffffffffffffffffffffffffff1673ffffffffffffffffffffffffffffffffffffffff16815260200190815260200160002054036110b4576110b3610883565b5b60006110c060086125ea565b90506110cc60086125f8565b6110d6848261260e565b5050505050565b6000806004600084815260200190815260200160002060009054906101000a900473ffffffffffffffffffffffffffffffffffffffff169050600073ffffffffffffffffffffffffffffffffffffffff168173ffffffffffffffffffffffffffffffffffffffff1603611185576040517f08c379a000000000000000000000000000000000000000000000000000000000815260040161117c90613a83565b60405180910390fd5b80915050919050565b600c60003373ffffffffffffffffffffffffffffffffffffffff1673ffffffffffffffffffffffffffffffffffffffff168152602001908152602001600020805490508110611209576040517fd9f24a3800000000000000000000000000000000000000000000000000000000815260040160405180910390fd5b6000600c60003373ffffffffffffffffffffffffffffffffffffffff1673ffffffffffffffffffffffffffffffffffffffff168152602001908152602001600020828154811061125c5761125b61388b565b5b906000526020600020906004020190508060000160009054906101000a900473ffffffffffffffffffffffffffffffffffffffff1673ffffffffffffffffffffffffffffffffffffffff163373ffffffffffffffffffffffffffffffffffffffff16427fe102f8ccf4c0f0e46e0ab6a9e9001570418cab79cac1ce70365d9505555ca2e18460010160009054906101000a900473ffffffffffffffffffffffffffffffffffffffff168560020154866003015460405161131e93929190613a00565b60405180910390a46001600c60003373ffffffffffffffffffffffffffffffffffffffff1673ffffffffffffffffffffffffffffffffffffffff168152602001908152602001600020805490506113759190613857565b82101561156e57600c60003373ffffffffffffffffffffffffffffffffffffffff1673ffffffffffffffffffffffffffffffffffffffff1681526020019081526020016000206001600c60003373ffffffffffffffffffffffffffffffffffffffff1673ffffffffffffffffffffffffffffffffffffffff1681526020019081526020016000208054905061140a9190613857565b8154811061141b5761141a61388b565b5b9060005260206000209060040201600c60003373ffffffffffffffffffffffffffffffffffffffff1673ffffffffffffffffffffffffffffffffffffffff168152602001908152602001600020838154811061147a5761147961388b565b5b90600052602060002090600402016000820160009054906101000a900473ffffffffffffffffffffffffffffffffffffffff168160000160006101000a81548173ffffffffffffffffffffffffffffffffffffffff021916908373ffffffffffffffffffffffffffffffffffffffff1602179055506001820160009054906101000a900473ffffffffffffffffffffffffffffffffffffffff168160010160006101000a81548173ffffffffffffffffffffffffffffffffffffffff021916908373ffffffffffffffffffffffffffffffffffffffff16021790555060028201548160020155600382015481600301559050505b600c60003373ffffffffffffffffffffffffffffffffffffffff1673ffffffffffffffffffffffffffffffffffffffff1681526020019081526020016000208054806115bd576115bc613aa3565b5b6001900381819060005260206000209060040201600080820160006101000a81549073ffffffffffffffffffffffffffffffffffffffff02191690556001820160006101000a81549073ffffffffffffffffffffffffffffffffffffffff021916905560028201600090556003820160009055505090555050565b600b602052816000526040600020818154811061165457600080fd5b906000526020600020016000915091509054906101000a900473ffffffffffffffffffffffffffffffffffffffff1681565b60006060611692611cab565b915060405180602001604052806000815250905060006116bf62015180426116ba9190613857565b611e79565b90506116ca81610dca565b9250509250929050565b60008073ffffffffffffffffffffffffffffffffffffffff168273ffffffffffffffffffffffffffffffffffffffff1603611744576040517f08c379a000000000000000000000000000000000000000000000000000000000815260040161173b90613b44565b60405180910390fd5b600560008373ffffffffffffffffffffffffffffffffffffffff1673ffffffffffffffffffffffffffffffffffffffff168152602001908152602001600020549050919050565b61179361262c565b61179d60006126aa565b565b6117a761262c565b8073ffffffffffffffffffffffffffffffffffffffff1663a9059cbb338373ffffffffffffffffffffffffffffffffffffffff166370a08231336040518263ffffffff1660e01b81526004016117fd9190613086565b602060405180830381865afa15801561181a573d6000803e3d6000fd5b505050506040513d601f19601f8201168201806040525081019061183e9190613b79565b6040518363ffffffff1660e01b815260040161185b929190613ba6565b6020604051808303816000875af115801561187a573d6000803e3d6000fd5b505050506040513d601f19601f8201168201806040525081019061189e9190613be4565b6118dd576040517f08c379a00000000000000000000000000000000000000000000000000000000081526004016118d490613c5d565b60405180910390fd5b50565b60008060009054906101000a900473ffffffffffffffffffffffffffffffffffffffff16905090565b606060038054611918906136d3565b80601f0160208091040260200160405190810160405280929190818152602001828054611944906136d3565b80156119915780601f1061196657610100808354040283529160200191611991565b820191906000526020600020905b81548152906001019060200180831161197457829003601f168201915b5050505050905090565b6119ad6119a6611db8565b838361276e565b5050565b6119c26119bc611db8565b836122ef565b611a01576040517f08c379a00000000000000000000000000000000000000000000000000000000081526004016119f8906139e0565b60405180910390fd5b611a0d848484846128da565b50505050565b6060611a1e82612936565b611a5d576040517f08c379a0000000000000000000000000000000000000000000000000000000008152600401611a5490613cef565b60405180910390fd5b60098054611a6a906136d3565b80601f0160208091040260200160405190810160405280929190818152602001828054611a96906136d3565b8015611ae35780601f10611ab857610100808354040283529160200191611ae3565b820191906000526020600020905b815481529060010190602001808311611ac657829003601f168201915b50505050509050919050565b600c6020528160005260406000208181548110611b0b57600080fd5b9060005260206000209060040201600091509150508060000160009054906101000a900473ffffffffffffffffffffffffffffffffffffffff16908060010160009054906101000a900473ffffffffffffffffffffffffffffffffffffffff16908060020154908060030154905084565b6000600760008473ffffffffffffffffffffffffffffffffffffffff1673ffffffffffffffffffffffffffffffffffffffff16815260200190815260200160002060008373ffffffffffffffffffffffffffffffffffffffff1673ffffffffffffffffffffffffffffffffffffffff16815260200190815260200160002060009054906101000a900460ff16905092915050565b600a6020528060005260406000206000915090505481565b611c3061262c565b600073ffffffffffffffffffffffffffffffffffffffff168173ffffffffffffffffffffffffffffffffffffffff1603611c9f576040517f08c379a0000000000000000000000000000000000000000000000000000000008152600401611c9690613d81565b60405180910390fd5b611ca8816126aa565b50565b600080611cc56201518042611cc09190613857565b611e79565b90506000611cd282610dca565b9050809250505090565b6000611cf56201518042611cf09190613857565b611e79565b9050611d0081610b7a565b50565b60007f01ffc9a7000000000000000000000000000000000000000000000000000000007bffffffffffffffffffffffffffffffffffffffffffffffffffffffff1916827bffffffffffffffffffffffffffffffffffffffffffffffffffffffff1916149050919050565b611d7681612936565b611db5576040517f08c379a0000000000000000000000000000000000000000000000000000000008152600401611dac90613a83565b60405180910390fd5b50565b600033905090565b816006600083815260200190815260200160002060006101000a81548173ffffffffffffffffffffffffffffffffffffffff021916908373ffffffffffffffffffffffffffffffffffffffff160217905550808273ffffffffffffffffffffffffffffffffffffffff16611e33836110dd565b73ffffffffffffffffffffffffffffffffffffffff167f8c5be1e5ebec7d5bd14f71427d1e84f3dd0314c0f7b2291e5b200ac8c7c3b92560405160405180910390a45050565b600061016d6201518083611e8d9190613dd0565b611e979190613e01565b9050919050565b611ea661262c565b60005b600c60008373ffffffffffffffffffffffffffffffffffffffff1673ffffffffffffffffffffffffffffffffffffffff168152602001908152602001600020805490508110156122a0576000600c60008473ffffffffffffffffffffffffffffffffffffffff1673ffffffffffffffffffffffffffffffffffffffff1681526020019081526020016000208281548110611f4657611f4561388b565b5b90600052602060002090600402019050600080826003015403612036578160000160009054906101000a900473ffffffffffffffffffffffffffffffffffffffff1673ffffffffffffffffffffffffffffffffffffffff166323b872dd858460010160009054906101000a900473ffffffffffffffffffffffffffffffffffffffff1685600201546040518463ffffffff1660e01b8152600401611fec93929190613e32565b6020604051808303816000875af115801561200b573d6000803e3d6000fd5b505050506040513d601f19601f8201168201806040525081019061202f9190613be4565b90506121cb565b6000826002015403612105578160000160009054906101000a900473ffffffffffffffffffffffffffffffffffffffff1673ffffffffffffffffffffffffffffffffffffffff166342842e0e858460010160009054906101000a900473ffffffffffffffffffffffffffffffffffffffff1685600301546040518463ffffffff1660e01b81526004016120cb93929190613e32565b600060405180830381600087803b1580156120e557600080fd5b505af19250505080156120f6575060015b1561210057600190505b6121ca565b8160000160009054906101000a900473ffffffffffffffffffffffffffffffffffffffff1673ffffffffffffffffffffffffffffffffffffffff1663f242432a858460010160009054906101000a900473ffffffffffffffffffffffffffffffffffffffff16856003015486600201546040518563ffffffff1660e01b81526004016121949493929190613e8f565b600060405180830381600087803b1580156121ae57600080fd5b505af19250505080156121bf575060015b156121c957600190505b5b5b8061228b578160010160009054906101000a900473ffffffffffffffffffffffffffffffffffffffff1673ffffffffffffffffffffffffffffffffffffffff168473ffffffffffffffffffffffffffffffffffffffff16427fa701552cbc07ed8c7556a7e8c7978b85f8b48a7d117232c350a27bd984c4b34c8560000160009054906101000a900473ffffffffffffffffffffffffffffffffffffffff168660020154876003015460405161228293929190613a00565b60405180910390a45b50508080612298906138ba565b915050611ea9565b50600c60008273ffffffffffffffffffffffffffffffffffffffff1673ffffffffffffffffffffffffffffffffffffffff16815260200190815260200160002060006122ec9190612dab565b50565b6000806122fb836110dd565b90508073ffffffffffffffffffffffffffffffffffffffff168473ffffffffffffffffffffffffffffffffffffffff16148061233d575061233c8185611b7c565b5b8061237b57508373ffffffffffffffffffffffffffffffffffffffff1661236384610726565b73ffffffffffffffffffffffffffffffffffffffff16145b91505092915050565b8273ffffffffffffffffffffffffffffffffffffffff166123a4826110dd565b73ffffffffffffffffffffffffffffffffffffffff16146123fa576040517f08c379a00000000000000000000000000000000000000000000000000000000081526004016123f190613f59565b60405180910390fd5b600073ffffffffffffffffffffffffffffffffffffffff168273ffffffffffffffffffffffffffffffffffffffff1603612469576040517f08c379a000000000000000000000000000000000000000000000000000000000815260040161246090613feb565b60405180910390fd5b6124748383836129a2565b61247f600082611dc0565b6001600560008573ffffffffffffffffffffffffffffffffffffffff1673ffffffffffffffffffffffffffffffffffffffff16815260200190815260200160002060008282546124cf9190613857565b925050819055506001600560008473ffffffffffffffffffffffffffffffffffffffff1673ffffffffffffffffffffffffffffffffffffffff1681526020019081526020016000206000828254612526919061400b565b92505081905550816004600083815260200190815260200160002060006101000a81548173ffffffffffffffffffffffffffffffffffffffff021916908373ffffffffffffffffffffffffffffffffffffffff160217905550808273ffffffffffffffffffffffffffffffffffffffff168473ffffffffffffffffffffffffffffffffffffffff167fddf252ad1be2c89b69c2b068fc378daa952ba7f163c4a11628f55a4df523b3ef60405160405180910390a46125e58383836129a7565b505050565b600081600001549050919050565b6001816000016000828254019250508190555050565b6126288282604051806020016040528060008152506129ac565b5050565b612634611db8565b73ffffffffffffffffffffffffffffffffffffffff166126526118e0565b73ffffffffffffffffffffffffffffffffffffffff16146126a8576040517f08c379a000000000000000000000000000000000000000000000000000000000815260040161269f9061408b565b60405180910390fd5b565b60008060009054906101000a900473ffffffffffffffffffffffffffffffffffffffff169050816000806101000a81548173ffffffffffffffffffffffffffffffffffffffff021916908373ffffffffffffffffffffffffffffffffffffffff1602179055508173ffffffffffffffffffffffffffffffffffffffff168173ffffffffffffffffffffffffffffffffffffffff167f8be0079c531659141344cd1fd0a4f28419497f9722a3daafe3b4186f6b6457e060405160405180910390a35050565b8173ffffffffffffffffffffffffffffffffffffffff168373ffffffffffffffffffffffffffffffffffffffff16036127dc576040517f08c379a00000000000000000000000000000000000000000000000000000000081526004016127d3906140f7565b60405180910390fd5b80600760008573ffffffffffffffffffffffffffffffffffffffff1673ffffffffffffffffffffffffffffffffffffffff16815260200190815260200160002060008473ffffffffffffffffffffffffffffffffffffffff1673ffffffffffffffffffffffffffffffffffffffff16815260200190815260200160002060006101000a81548160ff0219169083151502179055508173ffffffffffffffffffffffffffffffffffffffff168373ffffffffffffffffffffffffffffffffffffffff167f17307eab39ab6107e8899845ad3d59bd9653f200f220920489ca2b5937696c31836040516128cd9190612f15565b60405180910390a3505050565b6128e5848484612384565b6128f184848484612a07565b612930576040517f08c379a000000000000000000000000000000000000000000000000000000000815260040161292790614189565b60405180910390fd5b50505050565b60008073ffffffffffffffffffffffffffffffffffffffff166004600084815260200190815260200160002060009054906101000a900473ffffffffffffffffffffffffffffffffffffffff1673ffffffffffffffffffffffffffffffffffffffff1614159050919050565b505050565b505050565b6129b68383612b8e565b6129c36000848484612a07565b612a02576040517f08c379a00000000000000000000000000000000000000000000000000000000081526004016129f990614189565b60405180910390fd5b505050565b6000612a288473ffffffffffffffffffffffffffffffffffffffff16612d67565b15612b81578373ffffffffffffffffffffffffffffffffffffffff1663150b7a02612a51611db8565b8786866040518563ffffffff1660e01b8152600401612a7394939291906141a9565b6020604051808303816000875af1925050508015612aaf57506040513d601f19601f82011682018060405250810190612aac919061420a565b60015b612b31573d8060008114612adf576040519150601f19603f3d011682016040523d82523d6000602084013e612ae4565b606091505b506000815103612b29576040517f08c379a0000000000000000000000000000000000000000000000000000000008152600401612b2090614189565b60405180910390fd5b805181602001fd5b63150b7a0260e01b7bffffffffffffffffffffffffffffffffffffffffffffffffffffffff1916817bffffffffffffffffffffffffffffffffffffffffffffffffffffffff191614915050612b86565b600190505b949350505050565b600073ffffffffffffffffffffffffffffffffffffffff168273ffffffffffffffffffffffffffffffffffffffff1603612bfd576040517f08c379a0000000000000000000000000000000000000000000000000000000008152600401612bf490614283565b60405180910390fd5b612c0681612936565b15612c46576040517f08c379a0000000000000000000000000000000000000000000000000000000008152600401612c3d906142ef565b60405180910390fd5b612c52600083836129a2565b6001600560008473ffffffffffffffffffffffffffffffffffffffff1673ffffffffffffffffffffffffffffffffffffffff1681526020019081526020016000206000828254612ca2919061400b565b92505081905550816004600083815260200190815260200160002060006101000a81548173ffffffffffffffffffffffffffffffffffffffff021916908373ffffffffffffffffffffffffffffffffffffffff160217905550808273ffffffffffffffffffffffffffffffffffffffff16600073ffffffffffffffffffffffffffffffffffffffff167fddf252ad1be2c89b69c2b068fc378daa952ba7f163c4a11628f55a4df523b3ef60405160405180910390a4612d63600083836129a7565b5050565b6000808273ffffffffffffffffffffffffffffffffffffffff163b119050919050565b5080546000825590600052602060002090810190612da89190612dcf565b50565b5080546000825560040290600052602060002090810190612dcc9190612dec565b50565b5b80821115612de8576000816000905550600101612dd0565b5090565b5b80821115612e5d57600080820160006101000a81549073ffffffffffffffffffffffffffffffffffffffff02191690556001820160006101000a81549073ffffffffffffffffffffffffffffffffffffffff02191690556002820160009055600382016000905550600401612ded565b5090565b6000604051905090565b600080fd5b600080fd5b60007fffffffff0000000000000000000000000000000000000000000000000000000082169050919050565b612eaa81612e75565b8114612eb557600080fd5b50565b600081359050612ec781612ea1565b92915050565b600060208284031215612ee357612ee2612e6b565b5b6000612ef184828501612eb8565b91505092915050565b60008115159050919050565b612f0f81612efa565b82525050565b6000602082019050612f2a6000830184612f06565b92915050565b600081519050919050565b600082825260208201905092915050565b60005b83811015612f6a578082015181840152602081019050612f4f565b60008484015250505050565b6000601f19601f8301169050919050565b6000612f9282612f30565b612f9c8185612f3b565b9350612fac818560208601612f4c565b612fb581612f76565b840191505092915050565b60006020820190508181036000830152612fda8184612f87565b905092915050565b6000819050919050565b612ff581612fe2565b811461300057600080fd5b50565b60008135905061301281612fec565b92915050565b60006020828403121561302e5761302d612e6b565b5b600061303c84828501613003565b91505092915050565b600073ffffffffffffffffffffffffffffffffffffffff82169050919050565b600061307082613045565b9050919050565b61308081613065565b82525050565b600060208201905061309b6000830184613077565b92915050565b6130aa81613065565b81146130b557600080fd5b50565b6000813590506130c7816130a1565b92915050565b600080604083850312156130e4576130e3612e6b565b5b60006130f2858286016130b8565b925050602061310385828601613003565b9150509250929050565b60008060006060848603121561312657613125612e6b565b5b6000613134868287016130b8565b9350506020613145868287016130b8565b925050604061315686828701613003565b9150509250925092565b600080fd5b600080fd5b600080fd5b60008083601f84011261318557613184613160565b5b8235905067ffffffffffffffff8111156131a2576131a1613165565b5b6020830191508360018202830111156131be576131bd61316a565b5b9250929050565b600080602083850312156131dc576131db612e6b565b5b600083013567ffffffffffffffff8111156131fa576131f9612e70565b5b6132068582860161316f565b92509250509250929050565b6000806000806080858703121561322c5761322b612e6b565b5b600061323a878288016130b8565b945050602061324b878288016130b8565b935050604061325c87828801613003565b925050606061326d87828801613003565b91505092959194509250565b600080604083850312156132905761328f612e6b565b5b600061329e85828601613003565b92505060206132af85828601613003565b9150509250929050565b600081519050919050565b600082825260208201905092915050565b60006132e0826132b9565b6132ea81856132c4565b93506132fa818560208601612f4c565b61330381612f76565b840191505092915050565b60006040820190506133236000830185612f06565b818103602083015261333581846132d5565b90509392505050565b60006020828403121561335457613353612e6b565b5b6000613362848285016130b8565b91505092915050565b61337481612fe2565b82525050565b600060208201905061338f600083018461336b565b92915050565b60006133a082613065565b9050919050565b6133b081613395565b81146133bb57600080fd5b50565b6000813590506133cd816133a7565b92915050565b6000602082840312156133e9576133e8612e6b565b5b60006133f7848285016133be565b91505092915050565b61340981612efa565b811461341457600080fd5b50565b60008135905061342681613400565b92915050565b6000806040838503121561344357613442612e6b565b5b6000613451858286016130b8565b925050602061346285828601613417565b9150509250929050565b600080fd5b7f4e487b7100000000000000000000000000000000000000000000000000000000600052604160045260246000fd5b6134a982612f76565b810181811067ffffffffffffffff821117156134c8576134c7613471565b5b80604052505050565b60006134db612e61565b90506134e782826134a0565b919050565b600067ffffffffffffffff82111561350757613506613471565b5b61351082612f76565b9050602081019050919050565b82818337600083830152505050565b600061353f61353a846134ec565b6134d1565b90508281526020810184848401111561355b5761355a61346c565b5b61356684828561351d565b509392505050565b600082601f83011261358357613582613160565b5b813561359384826020860161352c565b91505092915050565b600080600080608085870312156135b6576135b5612e6b565b5b60006135c4878288016130b8565b94505060206135d5878288016130b8565b93505060406135e687828801613003565b925050606085013567ffffffffffffffff81111561360757613606612e70565b5b6136138782880161356e565b91505092959194509250565b60006080820190506136346000830187613077565b6136416020830186613077565b61364e604083018561336b565b61365b606083018461336b565b95945050505050565b6000806040838503121561367b5761367a612e6b565b5b6000613689858286016130b8565b925050602061369a858286016130b8565b9150509250929050565b7f4e487b7100000000000000000000000000000000000000000000000000000000600052602260045260246000fd5b600060028204905060018216806136eb57607f821691505b6020821081036136fe576136fd6136a4565b5b50919050565b7f4552433732313a20617070726f76616c20746f2063757272656e74206f776e6560008201527f7200000000000000000000000000000000000000000000000000000000000000602082015250565b6000613760602183612f3b565b915061376b82613704565b604082019050919050565b6000602082019050818103600083015261378f81613753565b9050919050565b7f4552433732313a20617070726f76652063616c6c6572206973206e6f7420746f60008201527f6b656e206f776e6572206e6f7220617070726f76656420666f7220616c6c0000602082015250565b60006137f2603e83612f3b565b91506137fd82613796565b604082019050919050565b60006020820190508181036000830152613821816137e5565b9050919050565b7f4e487b7100000000000000000000000000000000000000000000000000000000600052601160045260246000fd5b600061386282612fe2565b915061386d83612fe2565b925082820390508181111561388557613884613828565b5b92915050565b7f4e487b7100000000000000000000000000000000000000000000000000000000600052603260045260246000fd5b60006138c582612fe2565b91507fffffffffffffffffffffffffffffffffffffffffffffffffffffffffffffffff82036138f7576138f6613828565b5b600182019050919050565b7f5265656e7472616e637947756172643a207265656e7472616e742063616c6c00600082015250565b6000613938601f83612f3b565b915061394382613902565b602082019050919050565b600060208201905081810360008301526139678161392b565b9050919050565b7f4552433732313a2063616c6c6572206973206e6f7420746f6b656e206f776e6560008201527f72206e6f7220617070726f766564000000000000000000000000000000000000602082015250565b60006139ca602e83612f3b565b91506139d58261396e565b604082019050919050565b600060208201905081810360008301526139f9816139bd565b9050919050565b6000606082019050613a156000830186613077565b613a22602083018561336b565b613a2f604083018461336b565b949350505050565b7f4552433732313a20696e76616c696420746f6b656e2049440000000000000000600082015250565b6000613a6d601883612f3b565b9150613a7882613a37565b602082019050919050565b60006020820190508181036000830152613a9c81613a60565b9050919050565b7f4e487b7100000000000000000000000000000000000000000000000000000000600052603160045260246000fd5b7f4552433732313a2061646472657373207a65726f206973206e6f74206120766160008201527f6c6964206f776e65720000000000000000000000000000000000000000000000602082015250565b6000613b2e602983612f3b565b9150613b3982613ad2565b604082019050919050565b60006020820190508181036000830152613b5d81613b21565b9050919050565b600081519050613b7381612fec565b92915050565b600060208284031215613b8f57613b8e612e6b565b5b6000613b9d84828501613b64565b91505092915050565b6000604082019050613bbb6000830185613077565b613bc8602083018461336b565b9392505050565b600081519050613bde81613400565b92915050565b600060208284031215613bfa57613bf9612e6b565b5b6000613c0884828501613bcf565b91505092915050565b7f556e61626c6520746f207472616e736665720000000000000000000000000000600082015250565b6000613c47601283612f3b565b9150613c5282613c11565b602082019050919050565b60006020820190508181036000830152613c7681613c3a565b9050919050565b7f4552433732314d657461646174613a2055524920717565727920666f72206e6f60008201527f6e6578697374656e7420746f6b656e0000000000000000000000000000000000602082015250565b6000613cd9602f83612f3b565b9150613ce482613c7d565b604082019050919050565b60006020820190508181036000830152613d0881613ccc565b9050919050565b7f4f776e61626c653a206e6577206f776e657220697320746865207a65726f206160008201527f6464726573730000000000000000000000000000000000000000000000000000602082015250565b6000613d6b602683612f3b565b9150613d7682613d0f565b604082019050919050565b60006020820190508181036000830152613d9a81613d5e565b9050919050565b7f4e487b7100000000000000000000000000000000000000000000000000000000600052601260045260246000fd5b6000613ddb82612fe2565b9150613de683612fe2565b925082613df657613df5613da1565b5b828204905092915050565b6000613e0c82612fe2565b9150613e1783612fe2565b925082613e2757613e26613da1565b5b828206905092915050565b6000606082019050613e476000830186613077565b613e546020830185613077565b613e61604083018461336b565b949350505050565b50565b6000613e796000836132c4565b9150613e8482613e69565b600082019050919050565b600060a082019050613ea46000830187613077565b613eb16020830186613077565b613ebe604083018561336b565b613ecb606083018461336b565b8181036080830152613edc81613e6c565b905095945050505050565b7f4552433732313a207472616e736665722066726f6d20696e636f72726563742060008201527f6f776e6572000000000000000000000000000000000000000000000000000000602082015250565b6000613f43602583612f3b565b9150613f4e82613ee7565b604082019050919050565b60006020820190508181036000830152613f7281613f36565b9050919050565b7f4552433732313a207472616e7366657220746f20746865207a65726f2061646460008201527f7265737300000000000000000000000000000000000000000000000000000000602082015250565b6000613fd5602483612f3b565b9150613fe082613f79565b604082019050919050565b6000602082019050818103600083015261400481613fc8565b9050919050565b600061401682612fe2565b915061402183612fe2565b925082820190508082111561403957614038613828565b5b92915050565b7f4f776e61626c653a2063616c6c6572206973206e6f7420746865206f776e6572600082015250565b6000614075602083612f3b565b91506140808261403f565b602082019050919050565b600060208201905081810360008301526140a481614068565b9050919050565b7f4552433732313a20617070726f766520746f2063616c6c657200000000000000600082015250565b60006140e1601983612f3b565b91506140ec826140ab565b602082019050919050565b60006020820190508181036000830152614110816140d4565b9050919050565b7f4552433732313a207472616e7366657220746f206e6f6e20455243373231526560008201527f63656976657220696d706c656d656e7465720000000000000000000000000000602082015250565b6000614173603283612f3b565b915061417e82614117565b604082019050919050565b600060208201905081810360008301526141a281614166565b9050919050565b60006080820190506141be6000830187613077565b6141cb6020830186613077565b6141d8604083018561336b565b81810360608301526141ea81846132d5565b905095945050505050565b60008151905061420481612ea1565b92915050565b6000602082840312156142205761421f612e6b565b5b600061422e848285016141f5565b91505092915050565b7f4552433732313a206d696e7420746f20746865207a65726f2061646472657373600082015250565b600061426d602083612f3b565b915061427882614237565b602082019050919050565b6000602082019050818103600083015261429c81614260565b9050919050565b7f4552433732313a20746f6b656e20616c7265616479206d696e74656400000000600082015250565b60006142d9601c83612f3b565b91506142e4826142a3565b602082019050919050565b60006020820190508181036000830152614308816142cc565b905091905056fea264697066735822122082b610184f083a658574c280230a62b84ac8c66037cfb57fc9d7ddb300eda05964736f6c63430008110033",
    "linkReferences": {},
    "deployedLinkReferences": {}
}