{
  "_format": "hh-sol-artifact-1",
  "contractName": "Expir3",
  "sourceName": "contracts/Expir3.sol",
  "abi": [
    {
      "inputs": [],
      "stateMutability": "nonpayable",
      "type": "constructor"
    },
    {
      "inputs": [],
      "name": "InvalidLegacy",
      "type": "error"
    },
    {
      "inputs": [],
      "name": "NoLegacyRegistered",
      "type": "error"
    },
    {
      "inputs": [],
      "name": "NonTransferrableToken",
      "type": "error"
    },
    {
      "anonymous": false,
      "inputs": [
        {
          "indexed": true,
          "internalType": "uint256",
          "name": "timestamp",
          "type": "uint256"
        },
        {
          "indexed": true,
          "internalType": "address",
          "name": "testator",
          "type": "address"
        },
        {
          "indexed": true,
          "internalType": "address",
          "name": "token",
          "type": "address"
        },
        {
          "indexed": false,
          "internalType": "address",
          "name": "beneficiary",
          "type": "address"
        },
        {
          "indexed": false,
          "internalType": "uint256",
          "name": "amount",
          "type": "uint256"
        },
        {
          "indexed": false,
          "internalType": "uint256",
          "name": "tokenId",
          "type": "uint256"
        },
        {
          "indexed": false,
          "internalType": "uint256",
          "name": "nftId",
          "type": "uint256"
        }
      ],
      "name": "AddLegacy",
      "type": "event"
    },
    {
      "anonymous": false,
      "inputs": [
        {
          "indexed": true,
          "internalType": "address",
          "name": "owner",
          "type": "address"
        },
        {
          "indexed": true,
          "internalType": "address",
          "name": "approved",
          "type": "address"
        },
        {
          "indexed": true,
          "internalType": "uint256",
          "name": "tokenId",
          "type": "uint256"
        }
      ],
      "name": "Approval",
      "type": "event"
    },
    {
      "anonymous": false,
      "inputs": [
        {
          "indexed": true,
          "internalType": "address",
          "name": "owner",
          "type": "address"
        },
        {
          "indexed": true,
          "internalType": "address",
          "name": "operator",
          "type": "address"
        },
        {
          "indexed": false,
          "internalType": "bool",
          "name": "approved",
          "type": "bool"
        }
      ],
      "name": "ApprovalForAll",
      "type": "event"
    },
    {
      "anonymous": false,
      "inputs": [
        {
          "indexed": true,
          "internalType": "uint256",
          "name": "timestamp",
          "type": "uint256"
        },
        {
          "indexed": true,
          "internalType": "address",
          "name": "testator",
          "type": "address"
        },
        {
          "indexed": true,
          "internalType": "uint256",
          "name": "executionDay",
          "type": "uint256"
        }
      ],
      "name": "Executed",
      "type": "event"
    },
    {
      "anonymous": false,
      "inputs": [
        {
          "indexed": true,
          "internalType": "uint256",
          "name": "timestamp",
          "type": "uint256"
        },
        {
          "indexed": true,
          "internalType": "address",
          "name": "testator",
          "type": "address"
        },
        {
          "indexed": true,
          "internalType": "address",
          "name": "beneficiary",
          "type": "address"
        },
        {
          "indexed": false,
          "internalType": "address",
          "name": "token",
          "type": "address"
        },
        {
          "indexed": false,
          "internalType": "uint256",
          "name": "amount",
          "type": "uint256"
        },
        {
          "indexed": false,
          "internalType": "uint256",
          "name": "tokenId",
          "type": "uint256"
        },
        {
          "indexed": false,
          "internalType": "uint256",
          "name": "nftId",
          "type": "uint256"
        }
      ],
      "name": "LegacyTransferFailed",
      "type": "event"
    },
    {
      "anonymous": false,
      "inputs": [
        {
          "indexed": true,
          "internalType": "uint256",
          "name": "timestamp",
          "type": "uint256"
        },
        {
          "indexed": true,
          "internalType": "address",
          "name": "testator",
          "type": "address"
        },
        {
          "indexed": true,
          "internalType": "uint256",
          "name": "executionDay",
          "type": "uint256"
        }
      ],
      "name": "NewExecutionDay",
      "type": "event"
    },
    {
      "anonymous": false,
      "inputs": [
        {
          "indexed": true,
          "internalType": "address",
          "name": "previousOwner",
          "type": "address"
        },
        {
          "indexed": true,
          "internalType": "address",
          "name": "newOwner",
          "type": "address"
        }
      ],
      "name": "OwnershipTransferred",
      "type": "event"
    },
    {
      "anonymous": false,
      "inputs": [
        {
          "indexed": true,
          "internalType": "uint256",
          "name": "timestamp",
          "type": "uint256"
        },
        {
          "indexed": true,
          "internalType": "address",
          "name": "testator",
          "type": "address"
        },
        {
          "indexed": true,
          "internalType": "address",
          "name": "token",
          "type": "address"
        },
        {
          "indexed": false,
          "internalType": "address",
          "name": "beneficiary",
          "type": "address"
        },
        {
          "indexed": false,
          "internalType": "uint256",
          "name": "amount",
          "type": "uint256"
        },
        {
          "indexed": false,
          "internalType": "uint256",
          "name": "tokenId",
          "type": "uint256"
        },
        {
          "indexed": false,
          "internalType": "uint256",
          "name": "nftId",
          "type": "uint256"
        }
      ],
      "name": "RemoveLegacy",
      "type": "event"
    },
    {
      "anonymous": false,
      "inputs": [
        {
          "indexed": true,
          "internalType": "address",
          "name": "from",
          "type": "address"
        },
        {
          "indexed": true,
          "internalType": "address",
          "name": "to",
          "type": "address"
        },
        {
          "indexed": true,
          "internalType": "uint256",
          "name": "tokenId",
          "type": "uint256"
        }
      ],
      "name": "Transfer",
      "type": "event"
    },
    {
      "inputs": [],
      "name": "_tokenIdCounter",
      "outputs": [
        {
          "internalType": "uint256",
          "name": "_value",
          "type": "uint256"
        }
      ],
      "stateMutability": "view",
      "type": "function"
    },
    {
      "inputs": [
        {
          "internalType": "address",
          "name": "token",
          "type": "address"
        },
        {
          "internalType": "address",
          "name": "beneficiary",
          "type": "address"
        },
        {
          "internalType": "uint256",
          "name": "amount",
          "type": "uint256"
        },
        {
          "internalType": "uint256",
          "name": "tokenId",
          "type": "uint256"
        }
      ],
      "name": "addLegacy",
      "outputs": [],
      "stateMutability": "nonpayable",
      "type": "function"
    },
    {
      "inputs": [
        {
          "internalType": "address",
          "name": "to",
          "type": "address"
        },
        {
          "internalType": "uint256",
          "name": "tokenId",
          "type": "uint256"
        }
      ],
      "name": "approve",
      "outputs": [],
      "stateMutability": "nonpayable",
      "type": "function"
    },
    {
      "inputs": [
        {
          "internalType": "address",
          "name": "owner",
          "type": "address"
        }
      ],
      "name": "balanceOf",
      "outputs": [
        {
          "internalType": "uint256",
          "name": "",
          "type": "uint256"
        }
      ],
      "stateMutability": "view",
      "type": "function"
    },
    {
      "inputs": [],
      "name": "checkIn",
      "outputs": [],
      "stateMutability": "nonpayable",
      "type": "function"
    },
    {
      "inputs": [
        {
          "internalType": "bytes",
          "name": "",
          "type": "bytes"
        }
      ],
      "name": "checkUpkeep",
      "outputs": [
        {
          "internalType": "bool",
          "name": "upkeepNeeded",
          "type": "bool"
        },
        {
          "internalType": "bytes",
          "name": "tempData",
          "type": "bytes"
        }
      ],
      "stateMutability": "view",
      "type": "function"
    },
    {
      "inputs": [
        {
          "internalType": "uint256",
          "name": "day",
          "type": "uint256"
        }
      ],
      "name": "executeDay",
      "outputs": [],
      "stateMutability": "nonpayable",
      "type": "function"
    },
    {
      "inputs": [
        {
          "internalType": "address",
          "name": "",
          "type": "address"
        }
      ],
      "name": "executionDay",
      "outputs": [
        {
          "internalType": "uint256",
          "name": "",
          "type": "uint256"
        }
      ],
      "stateMutability": "view",
      "type": "function"
    },
    {
      "inputs": [
        {
          "internalType": "uint256",
          "name": "",
          "type": "uint256"
        },
        {
          "internalType": "uint256",
          "name": "",
          "type": "uint256"
        }
      ],
      "name": "executionList",
      "outputs": [
        {
          "internalType": "address",
          "name": "",
          "type": "address"
        }
      ],
      "stateMutability": "view",
      "type": "function"
    },
    {
      "inputs": [],
      "name": "fakeExecute",
      "outputs": [],
      "stateMutability": "nonpayable",
      "type": "function"
    },
    {
      "inputs": [],
      "name": "fakeUpkeep",
      "outputs": [
        {
          "internalType": "bool",
          "name": "",
          "type": "bool"
        }
      ],
      "stateMutability": "view",
      "type": "function"
    },
    {
      "inputs": [
        {
          "internalType": "uint256",
          "name": "tokenId",
          "type": "uint256"
        }
      ],
      "name": "getApproved",
      "outputs": [
        {
          "internalType": "address",
          "name": "",
          "type": "address"
        }
      ],
      "stateMutability": "view",
      "type": "function"
    },
    {
      "inputs": [
        {
          "internalType": "address",
          "name": "owner",
          "type": "address"
        },
        {
          "internalType": "address",
          "name": "operator",
          "type": "address"
        }
      ],
      "name": "isApprovedForAll",
      "outputs": [
        {
          "internalType": "bool",
          "name": "",
          "type": "bool"
        }
      ],
      "stateMutability": "view",
      "type": "function"
    },
    {
      "inputs": [
        {
          "internalType": "address",
          "name": "",
          "type": "address"
        },
        {
          "internalType": "uint256",
          "name": "",
          "type": "uint256"
        }
      ],
      "name": "legacies",
      "outputs": [
        {
          "internalType": "uint256",
          "name": "",
          "type": "uint256"
        }
      ],
      "stateMutability": "view",
      "type": "function"
    },
    {
      "inputs": [
        {
          "internalType": "uint256",
          "name": "",
          "type": "uint256"
        }
      ],
      "name": "legacyNFTs",
      "outputs": [
        {
          "internalType": "address",
          "name": "testator",
          "type": "address"
        },
        {
          "internalType": "address",
          "name": "token",
          "type": "address"
        },
        {
          "internalType": "address",
          "name": "beneficiary",
          "type": "address"
        },
        {
          "internalType": "uint256",
          "name": "amount",
          "type": "uint256"
        },
        {
          "internalType": "uint256",
          "name": "tokenId",
          "type": "uint256"
        },
        {
          "internalType": "uint256",
          "name": "nftId",
          "type": "uint256"
        }
      ],
      "stateMutability": "view",
      "type": "function"
    },
    {
      "inputs": [],
      "name": "name",
      "outputs": [
        {
          "internalType": "string",
          "name": "",
          "type": "string"
        }
      ],
      "stateMutability": "view",
      "type": "function"
    },
    {
      "inputs": [],
      "name": "owner",
      "outputs": [
        {
          "internalType": "address",
          "name": "",
          "type": "address"
        }
      ],
      "stateMutability": "view",
      "type": "function"
    },
    {
      "inputs": [
        {
          "internalType": "uint256",
          "name": "tokenId",
          "type": "uint256"
        }
      ],
      "name": "ownerOf",
      "outputs": [
        {
          "internalType": "address",
          "name": "",
          "type": "address"
        }
      ],
      "stateMutability": "view",
      "type": "function"
    },
    {
      "inputs": [
        {
          "internalType": "bytes",
          "name": "",
          "type": "bytes"
        }
      ],
      "name": "performUpkeep",
      "outputs": [],
      "stateMutability": "nonpayable",
      "type": "function"
    },
    {
      "inputs": [
        {
          "internalType": "uint256",
          "name": "position",
          "type": "uint256"
        }
      ],
      "name": "removeLegacy",
      "outputs": [],
      "stateMutability": "nonpayable",
      "type": "function"
    },
    {
      "inputs": [],
      "name": "renounceOwnership",
      "outputs": [],
      "stateMutability": "nonpayable",
      "type": "function"
    },
    {
      "inputs": [
        {
          "internalType": "address",
          "name": "from",
          "type": "address"
        },
        {
          "internalType": "address",
          "name": "to",
          "type": "address"
        },
        {
          "internalType": "uint256",
          "name": "tokenId",
          "type": "uint256"
        }
      ],
      "name": "safeTransferFrom",
      "outputs": [],
      "stateMutability": "nonpayable",
      "type": "function"
    },
    {
      "inputs": [
        {
          "internalType": "address",
          "name": "from",
          "type": "address"
        },
        {
          "internalType": "address",
          "name": "to",
          "type": "address"
        },
        {
          "internalType": "uint256",
          "name": "tokenId",
          "type": "uint256"
        },
        {
          "internalType": "bytes",
          "name": "data",
          "type": "bytes"
        }
      ],
      "name": "safeTransferFrom",
      "outputs": [],
      "stateMutability": "nonpayable",
      "type": "function"
    },
    {
      "inputs": [
        {
          "internalType": "address",
          "name": "operator",
          "type": "address"
        },
        {
          "internalType": "bool",
          "name": "approved",
          "type": "bool"
        }
      ],
      "name": "setApprovalForAll",
      "outputs": [],
      "stateMutability": "nonpayable",
      "type": "function"
    },
    {
      "inputs": [
        {
          "internalType": "bytes4",
          "name": "interfaceId",
          "type": "bytes4"
        }
      ],
      "name": "supportsInterface",
      "outputs": [
        {
          "internalType": "bool",
          "name": "",
          "type": "bool"
        }
      ],
      "stateMutability": "view",
      "type": "function"
    },
    {
      "inputs": [],
      "name": "symbol",
      "outputs": [
        {
          "internalType": "string",
          "name": "",
          "type": "string"
        }
      ],
      "stateMutability": "view",
      "type": "function"
    },
    {
      "inputs": [
        {
          "internalType": "uint256",
          "name": "tokenId",
          "type": "uint256"
        }
      ],
      "name": "tokenURI",
      "outputs": [
        {
          "internalType": "string",
          "name": "",
          "type": "string"
        }
      ],
      "stateMutability": "view",
      "type": "function"
    },
    {
      "inputs": [
        {
          "internalType": "address",
          "name": "from",
          "type": "address"
        },
        {
          "internalType": "address",
          "name": "to",
          "type": "address"
        },
        {
          "internalType": "uint256",
          "name": "tokenId",
          "type": "uint256"
        }
      ],
      "name": "transferFrom",
      "outputs": [],
      "stateMutability": "nonpayable",
      "type": "function"
    },
    {
      "inputs": [
        {
          "internalType": "address",
          "name": "newOwner",
          "type": "address"
        }
      ],
      "name": "transferOwnership",
      "outputs": [],
      "stateMutability": "nonpayable",
      "type": "function"
    },
    {
      "inputs": [
        {
          "internalType": "uint256",
          "name": "day",
          "type": "uint256"
        }
      ],
      "name": "willsToExecuteInDay",
      "outputs": [
        {
          "internalType": "bool",
          "name": "",
          "type": "bool"
        }
      ],
      "stateMutability": "view",
      "type": "function"
    },
    {
      "inputs": [
        {
          "internalType": "contract IERC20",
          "name": "_tokenAddress",
          "type": "address"
        }
      ],
      "name": "withdrawToken",
      "outputs": [],
      "stateMutability": "nonpayable",
      "type": "function"
    }
  ],
  "bytecode": "0x60806040523480156200001157600080fd5b506040518060400160405280600681526020017f45787069723300000000000000000000000000000000000000000000000000008152506040518060400160405280600381526020017f45585000000000000000000000000000000000000000000000000000000000008152506200009e62000092620000e860201b60201c565b620000f060201b60201c565b600180819055508160029081620000b6919062000444565b508060039081620000c8919062000444565b505050620000e26008620001b460201b620020731760201c565b6200052b565b600033905090565b60008060009054906101000a900473ffffffffffffffffffffffffffffffffffffffff169050816000806101000a81548173ffffffffffffffffffffffffffffffffffffffff021916908373ffffffffffffffffffffffffffffffffffffffff1602179055508173ffffffffffffffffffffffffffffffffffffffff168173ffffffffffffffffffffffffffffffffffffffff167f8be0079c531659141344cd1fd0a4f28419497f9722a3daafe3b4186f6b6457e060405160405180910390a35050565b6001816000016000828254019250508190555050565b600081519050919050565b7f4e487b7100000000000000000000000000000000000000000000000000000000600052604160045260246000fd5b7f4e487b7100000000000000000000000000000000000000000000000000000000600052602260045260246000fd5b600060028204905060018216806200024c57607f821691505b60208210810362000262576200026162000204565b5b50919050565b60008190508160005260206000209050919050565b60006020601f8301049050919050565b600082821b905092915050565b600060088302620002cc7fffffffffffffffffffffffffffffffffffffffffffffffffffffffffffffffff826200028d565b620002d886836200028d565b95508019841693508086168417925050509392505050565b6000819050919050565b6000819050919050565b6000620003256200031f6200031984620002f0565b620002fa565b620002f0565b9050919050565b6000819050919050565b620003418362000304565b6200035962000350826200032c565b8484546200029a565b825550505050565b600090565b6200037062000361565b6200037d81848462000336565b505050565b5b81811015620003a5576200039960008262000366565b60018101905062000383565b5050565b601f821115620003f457620003be8162000268565b620003c9846200027d565b81016020851015620003d9578190505b620003f1620003e8856200027d565b83018262000382565b50505b505050565b600082821c905092915050565b60006200041960001984600802620003f9565b1980831691505092915050565b600062000434838362000406565b9150826002028217905092915050565b6200044f82620001ca565b67ffffffffffffffff8111156200046b576200046a620001d5565b5b62000477825462000233565b62000484828285620003a9565b600060209050601f831160018114620004bc5760008415620004a7578287015190505b620004b3858262000426565b86555062000523565b601f198416620004cc8662000268565b60005b82811015620004f657848901518255600182019150602085019450602081019050620004cf565b8683101562000516578489015162000512601f89168262000406565b8355505b6001600288020188555050505b505050505050565b615b37806200053b6000396000f3fe608060405234801561001057600080fd5b50600436106101e55760003560e01c806370a082311161010f578063b88d4fde116100a2578063f02da65f11610071578063f02da65f146105a4578063f2fde38b146105d4578063f3feed41146105f0578063fff121621461060e576101e5565b8063b88d4fde146104f8578063c87b56dd14610514578063cfc3ebe714610544578063e985e9c514610574576101e5565b80638da5cb5b116100de5780638da5cb5b1461046b57806394d7729f1461048957806395d89b41146104be578063a22cb465146104dc576101e5565b806370a08231146103f7578063715018a61461042757806384c4bd4b14610431578063894760691461044f576101e5565b806342842e0e116101875780636352211e116101565780636352211e1461034a57806366484fcf1461037a5780636aac353f146103965780636e04ff0d146103c6576101e5565b806342842e0e146102c65780634585e33b146102e25780634cd37174146102fe57806353190ec51461032e576101e5565b8063095ea7b3116101c3578063095ea7b314610268578063183ff085146102845780631a56273f1461028e57806323b872dd146102aa576101e5565b806301ffc9a7146101ea57806306fdde031461021a578063081812fc14610238575b600080fd5b61020460048036038101906101ff9190613cd8565b610618565b6040516102119190613d20565b60405180910390f35b6102226106fa565b60405161022f9190613dcb565b60405180910390f35b610252600480360381019061024d9190613e23565b61078c565b60405161025f9190613e91565b60405180910390f35b610282600480360381019061027d9190613ed8565b6107d2565b005b61028c6108e9565b005b6102a860048036038101906102a39190613e23565b610e22565b005b6102c460048036038101906102bf9190613f18565b610fc9565b005b6102e060048036038101906102db9190613f18565b611029565b005b6102fc60048036038101906102f79190613fd0565b611049565b005b61031860048036038101906103139190613e23565b611072565b6040516103259190613d20565b60405180910390f35b6103486004803603810190610343919061401d565b611094565b005b610364600480360381019061035f9190613e23565b611460565b6040516103719190613e91565b60405180910390f35b610394600480360381019061038f9190613e23565b611511565b005b6103b060048036038101906103ab9190614084565b611939565b6040516103bd9190613e91565b60405180910390f35b6103e060048036038101906103db9190613fd0565b611987565b6040516103ee929190614119565b60405180910390f35b610411600480360381019061040c9190614149565b6119d5565b60405161041e9190614185565b60405180910390f35b61042f611a8c565b005b610439611aa0565b6040516104469190614185565b60405180910390f35b610469600480360381019061046491906141de565b611aac565b005b610473611bed565b6040516104809190613e91565b60405180910390f35b6104a3600480360381019061049e9190613e23565b611c16565b6040516104b59695949392919061420b565b60405180910390f35b6104c6611cb2565b6040516104d39190613dcb565b60405180910390f35b6104f660048036038101906104f19190614298565b611d44565b005b610512600480360381019061050d9190614408565b611d5a565b005b61052e60048036038101906105299190613e23565b611dbc565b60405161053b9190613dcb565b60405180910390f35b61055e60048036038101906105599190613ed8565b611ebb565b60405161056b9190614185565b60405180910390f35b61058e6004803603810190610589919061448b565b611eec565b60405161059b9190613d20565b60405180910390f35b6105be60048036038101906105b99190614149565b611f80565b6040516105cb9190614185565b60405180910390f35b6105ee60048036038101906105e99190614149565b611f98565b005b6105f861201b565b6040516106059190613d20565b60405180910390f35b61061661204c565b005b60007f80ac58cd000000000000000000000000000000000000000000000000000000007bffffffffffffffffffffffffffffffffffffffffffffffffffffffff1916827bffffffffffffffffffffffffffffffffffffffffffffffffffffffff191614806106e357507f5b5e139f000000000000000000000000000000000000000000000000000000007bffffffffffffffffffffffffffffffffffffffffffffffffffffffff1916827bffffffffffffffffffffffffffffffffffffffffffffffffffffffff1916145b806106f357506106f282612089565b5b9050919050565b606060028054610709906144fa565b80601f0160208091040260200160405190810160405280929190818152602001828054610735906144fa565b80156107825780601f1061075757610100808354040283529160200191610782565b820191906000526020600020905b81548152906001019060200180831161076557829003601f168201915b5050505050905090565b6000610797826120f3565b6006600083815260200190815260200160002060009054906101000a900473ffffffffffffffffffffffffffffffffffffffff169050919050565b60006107dd82611460565b90508073ffffffffffffffffffffffffffffffffffffffff168373ffffffffffffffffffffffffffffffffffffffff160361084d576040517f08c379a00000000000000000000000000000000000000000000000000000000081526004016108449061459d565b60405180910390fd5b8073ffffffffffffffffffffffffffffffffffffffff1661086c61213e565b73ffffffffffffffffffffffffffffffffffffffff16148061089b575061089a8161089561213e565b611eec565b5b6108da576040517f08c379a00000000000000000000000000000000000000000000000000000000081526004016108d19061462f565b60405180910390fd5b6108e48383612146565b505050565b6000600b60003373ffffffffffffffffffffffffffffffffffffffff1673ffffffffffffffffffffffffffffffffffffffff1681526020019081526020016000208054905003610965576040517f898073a700000000000000000000000000000000000000000000000000000000815260040160405180910390fd5b6000600960003373ffffffffffffffffffffffffffffffffffffffff1673ffffffffffffffffffffffffffffffffffffffff1681526020019081526020016000205490506109c062015180426109bb919061467e565b6121ff565b600960003373ffffffffffffffffffffffffffffffffffffffff1673ffffffffffffffffffffffffffffffffffffffff168152602001908152602001600020819055506000600a60008381526020019081526020016000208054905090506000811115610ce7573373ffffffffffffffffffffffffffffffffffffffff16600a6000848152602001908152602001600020600183610a5e919061467e565b81548110610a6f57610a6e6146b2565b5b9060005260206000200160009054906101000a900473ffffffffffffffffffffffffffffffffffffffff1673ffffffffffffffffffffffffffffffffffffffff1603610b1257600a6000838152602001908152602001600020805480610ad857610ad76146e1565b5b6001900381819060005260206000200160006101000a81549073ffffffffffffffffffffffffffffffffffffffff02191690559055610ce6565b60005b600182610b22919061467e565b811015610c8c573373ffffffffffffffffffffffffffffffffffffffff16600a60008581526020019081526020016000208281548110610b6557610b646146b2565b5b9060005260206000200160009054906101000a900473ffffffffffffffffffffffffffffffffffffffff1673ffffffffffffffffffffffffffffffffffffffff1603610c7957600a6000848152602001908152602001600020600183610bcb919061467e565b81548110610bdc57610bdb6146b2565b5b9060005260206000200160009054906101000a900473ffffffffffffffffffffffffffffffffffffffff16600a60008581526020019081526020016000208281548110610c2c57610c2b6146b2565b5b9060005260206000200160006101000a81548173ffffffffffffffffffffffffffffffffffffffff021916908373ffffffffffffffffffffffffffffffffffffffff160217905550610c8c565b8080610c8490614710565b915050610b15565b50600a6000838152602001908152602001600020805480610cb057610caf6146e1565b5b6001900381819060005260206000200160006101000a81549073ffffffffffffffffffffffffffffffffffffffff021916905590555b5b600a6000600960003373ffffffffffffffffffffffffffffffffffffffff1673ffffffffffffffffffffffffffffffffffffffff168152602001908152602001600020548152602001908152602001600020339080600181540180825580915050600190039060005260206000200160009091909190916101000a81548173ffffffffffffffffffffffffffffffffffffffff021916908373ffffffffffffffffffffffffffffffffffffffff160217905550600960003373ffffffffffffffffffffffffffffffffffffffff1673ffffffffffffffffffffffffffffffffffffffff168152602001908152602001600020543373ffffffffffffffffffffffffffffffffffffffff16427fa433db6f15c439e04fa16b50313c8372f1bf5298f8840ada956a58983613819e60405160405180910390a45050565b600260015403610e67576040517f08c379a0000000000000000000000000000000000000000000000000000000008152600401610e5e906147a4565b60405180910390fd5b60026001819055506000600a6000838152602001908152602001600020805490500315610fbf5760005b600a600083815260200190815260200160002080549050811015610f9e57600073ffffffffffffffffffffffffffffffffffffffff16600a60008481526020019081526020016000208281548110610eec57610eeb6146b2565b5b9060005260206000200160009054906101000a900473ffffffffffffffffffffffffffffffffffffffff1673ffffffffffffffffffffffffffffffffffffffff1614610f8b57610f8a600a60008481526020019081526020016000208281548110610f5a57610f596146b2565b5b9060005260206000200160009054906101000a900473ffffffffffffffffffffffffffffffffffffffff16612224565b5b8080610f9690614710565b915050610e91565b50600a60008281526020019081526020016000206000610fbe9190613c0d565b5b6001808190555050565b610fda610fd461213e565b82612740565b611019576040517f08c379a000000000000000000000000000000000000000000000000000000000815260040161101090614836565b60405180910390fd5b6110248383836127d5565b505050565b61104483838360405180602001604052806000815250611d5a565b505050565b6000611062620151804261105d919061467e565b6121ff565b905061106d81610e22565b505050565b600080600a600084815260200190815260200160002080549050119050919050565b600073ffffffffffffffffffffffffffffffffffffffff168473ffffffffffffffffffffffffffffffffffffffff1614806110fb5750600073ffffffffffffffffffffffffffffffffffffffff168373ffffffffffffffffffffffffffffffffffffffff16145b8061111257506000821480156111115750600081145b5b15611149576040517fd9f24a3800000000000000000000000000000000000000000000000000000000815260040160405180910390fd5b60006111556008612a3b565b90506111618482612a49565b61116b6008612073565b600080600960003373ffffffffffffffffffffffffffffffffffffffff1673ffffffffffffffffffffffffffffffffffffffff168152602001908152602001600020541480156111fd57506000600b60003373ffffffffffffffffffffffffffffffffffffffff1673ffffffffffffffffffffffffffffffffffffffff16815260200190815260200160002080549050145b90506040518060c001604052803373ffffffffffffffffffffffffffffffffffffffff1681526020018773ffffffffffffffffffffffffffffffffffffffff1681526020018673ffffffffffffffffffffffffffffffffffffffff16815260200185815260200184815260200183815250600c600084815260200190815260200160002060008201518160000160006101000a81548173ffffffffffffffffffffffffffffffffffffffff021916908373ffffffffffffffffffffffffffffffffffffffff16021790555060208201518160010160006101000a81548173ffffffffffffffffffffffffffffffffffffffff021916908373ffffffffffffffffffffffffffffffffffffffff16021790555060408201518160020160006101000a81548173ffffffffffffffffffffffffffffffffffffffff021916908373ffffffffffffffffffffffffffffffffffffffff160217905550606082015181600301556080820151816004015560a08201518160050155905050600b60003373ffffffffffffffffffffffffffffffffffffffff1673ffffffffffffffffffffffffffffffffffffffff1681526020019081526020016000208290806001815401808255809150506001900390600052602060002001600090919091909150558573ffffffffffffffffffffffffffffffffffffffff163373ffffffffffffffffffffffffffffffffffffffff16427f6ea57cf2d79ffa532a2740a50a9c2854a616487407f261980de9190108d558de888888886040516114419493929190614856565b60405180910390a48015611458576114576108e9565b5b505050505050565b6000806004600084815260200190815260200160002060009054906101000a900473ffffffffffffffffffffffffffffffffffffffff169050600073ffffffffffffffffffffffffffffffffffffffff168173ffffffffffffffffffffffffffffffffffffffff1603611508576040517f08c379a00000000000000000000000000000000000000000000000000000000081526004016114ff906148e7565b60405180910390fd5b80915050919050565b600b60003373ffffffffffffffffffffffffffffffffffffffff1673ffffffffffffffffffffffffffffffffffffffff16815260200190815260200160002080549050811061158c576040517fd9f24a3800000000000000000000000000000000000000000000000000000000815260040160405180910390fd5b6000600b60003373ffffffffffffffffffffffffffffffffffffffff1673ffffffffffffffffffffffffffffffffffffffff16815260200190815260200160002082815481106115df576115de6146b2565b5b906000526020600020015490506000600c600083815260200190815260200160002090506001600b60003373ffffffffffffffffffffffffffffffffffffffff1673ffffffffffffffffffffffffffffffffffffffff16815260200190815260200160002080549050611652919061467e565b83101561176357600b60003373ffffffffffffffffffffffffffffffffffffffff1673ffffffffffffffffffffffffffffffffffffffff1681526020019081526020016000206001600b60003373ffffffffffffffffffffffffffffffffffffffff1673ffffffffffffffffffffffffffffffffffffffff168152602001908152602001600020805490506116e7919061467e565b815481106116f8576116f76146b2565b5b9060005260206000200154600b60003373ffffffffffffffffffffffffffffffffffffffff1673ffffffffffffffffffffffffffffffffffffffff1681526020019081526020016000208481548110611754576117536146b2565b5b90600052602060002001819055505b600b60003373ffffffffffffffffffffffffffffffffffffffff1673ffffffffffffffffffffffffffffffffffffffff1681526020019081526020016000208054806117b2576117b16146e1565b5b600190038181906000526020600020016000905590556117d182612a67565b8060010160009054906101000a900473ffffffffffffffffffffffffffffffffffffffff1673ffffffffffffffffffffffffffffffffffffffff163373ffffffffffffffffffffffffffffffffffffffff16427fe8335cf26fd54c097ee267e1b4d0aa424b5a93e9b5b124319bc609ef14fa7a658460020160009054906101000a900473ffffffffffffffffffffffffffffffffffffffff168560030154866004015487600501546040516118899493929190614856565b60405180910390a4600c6000838152602001908152602001600020600080820160006101000a81549073ffffffffffffffffffffffffffffffffffffffff02191690556001820160006101000a81549073ffffffffffffffffffffffffffffffffffffffff02191690556002820160006101000a81549073ffffffffffffffffffffffffffffffffffffffff02191690556003820160009055600482016000905560058201600090555050505050565b600a602052816000526040600020818154811061195557600080fd5b906000526020600020016000915091509054906101000a900473ffffffffffffffffffffffffffffffffffffffff1681565b6000606061199361201b565b915060405180602001604052806000815250905060006119c062015180426119bb919061467e565b6121ff565b90506119cb81611072565b9250509250929050565b60008073ffffffffffffffffffffffffffffffffffffffff168273ffffffffffffffffffffffffffffffffffffffff1603611a45576040517f08c379a0000000000000000000000000000000000000000000000000000000008152600401611a3c90614979565b60405180910390fd5b600560008373ffffffffffffffffffffffffffffffffffffffff1673ffffffffffffffffffffffffffffffffffffffff168152602001908152602001600020549050919050565b611a94612b84565b611a9e6000612c02565b565b60088060000154905081565b611ab4612b84565b8073ffffffffffffffffffffffffffffffffffffffff1663a9059cbb338373ffffffffffffffffffffffffffffffffffffffff166370a08231336040518263ffffffff1660e01b8152600401611b0a9190613e91565b602060405180830381865afa158015611b27573d6000803e3d6000fd5b505050506040513d601f19601f82011682018060405250810190611b4b91906149ae565b6040518363ffffffff1660e01b8152600401611b689291906149db565b6020604051808303816000875af1158015611b87573d6000803e3d6000fd5b505050506040513d601f19601f82011682018060405250810190611bab9190614a19565b611bea576040517f08c379a0000000000000000000000000000000000000000000000000000000008152600401611be190614a92565b60405180910390fd5b50565b60008060009054906101000a900473ffffffffffffffffffffffffffffffffffffffff16905090565b600c6020528060005260406000206000915090508060000160009054906101000a900473ffffffffffffffffffffffffffffffffffffffff16908060010160009054906101000a900473ffffffffffffffffffffffffffffffffffffffff16908060020160009054906101000a900473ffffffffffffffffffffffffffffffffffffffff16908060030154908060040154908060050154905086565b606060038054611cc1906144fa565b80601f0160208091040260200160405190810160405280929190818152602001828054611ced906144fa565b8015611d3a5780601f10611d0f57610100808354040283529160200191611d3a565b820191906000526020600020905b815481529060010190602001808311611d1d57829003601f168201915b5050505050905090565b611d56611d4f61213e565b8383612cc6565b5050565b611d6b611d6561213e565b83612740565b611daa576040517f08c379a0000000000000000000000000000000000000000000000000000000008152600401611da190614836565b60405180910390fd5b611db684848484612e32565b50505050565b6060611dc782612e8e565b611e06576040517f08c379a0000000000000000000000000000000000000000000000000000000008152600401611dfd90614afe565b60405180910390fd5b6000600c60008481526020019081526020016000209050611eb38160000160009054906101000a900473ffffffffffffffffffffffffffffffffffffffff168260010160009054906101000a900473ffffffffffffffffffffffffffffffffffffffff168360020160009054906101000a900473ffffffffffffffffffffffffffffffffffffffff16846003015485600401548660050154611ea66106fa565b611eae611cb2565b612efa565b915050919050565b600b6020528160005260406000208181548110611ed757600080fd5b90600052602060002001600091509150505481565b6000600760008473ffffffffffffffffffffffffffffffffffffffff1673ffffffffffffffffffffffffffffffffffffffff16815260200190815260200160002060008373ffffffffffffffffffffffffffffffffffffffff1673ffffffffffffffffffffffffffffffffffffffff16815260200190815260200160002060009054906101000a900460ff16905092915050565b60096020528060005260406000206000915090505481565b611fa0612b84565b600073ffffffffffffffffffffffffffffffffffffffff168173ffffffffffffffffffffffffffffffffffffffff160361200f576040517f08c379a000000000000000000000000000000000000000000000000000000000815260040161200690614b90565b60405180910390fd5b61201881612c02565b50565b6000806120356201518042612030919061467e565b6121ff565b9050600061204282611072565b9050809250505090565b60006120656201518042612060919061467e565b6121ff565b905061207081610e22565b50565b6001816000016000828254019250508190555050565b60007f01ffc9a7000000000000000000000000000000000000000000000000000000007bffffffffffffffffffffffffffffffffffffffffffffffffffffffff1916827bffffffffffffffffffffffffffffffffffffffffffffffffffffffff1916149050919050565b6120fc81612e8e565b61213b576040517f08c379a0000000000000000000000000000000000000000000000000000000008152600401612132906148e7565b60405180910390fd5b50565b600033905090565b816006600083815260200190815260200160002060006101000a81548173ffffffffffffffffffffffffffffffffffffffff021916908373ffffffffffffffffffffffffffffffffffffffff160217905550808273ffffffffffffffffffffffffffffffffffffffff166121b983611460565b73ffffffffffffffffffffffffffffffffffffffff167f8c5be1e5ebec7d5bd14f71427d1e84f3dd0314c0f7b2291e5b200ac8c7c3b92560405160405180910390a45050565b600061016d62015180836122139190614bdf565b61221d9190614c10565b9050919050565b61222c612b84565b60005b600b60008373ffffffffffffffffffffffffffffffffffffffff1673ffffffffffffffffffffffffffffffffffffffff168152602001908152602001600020805490508110156126f1576000600b60008473ffffffffffffffffffffffffffffffffffffffff1673ffffffffffffffffffffffffffffffffffffffff16815260200190815260200160002082815481106122cc576122cb6146b2565b5b906000526020600020015490506000600c600083815260200190815260200160002090506000808260040154036123d0578160010160009054906101000a900473ffffffffffffffffffffffffffffffffffffffff1673ffffffffffffffffffffffffffffffffffffffff166323b872dd868460020160009054906101000a900473ffffffffffffffffffffffffffffffffffffffff1685600301546040518463ffffffff1660e01b815260040161238693929190614c41565b6020604051808303816000875af11580156123a5573d6000803e3d6000fd5b505050506040513d601f19601f820116820180604052508101906123c99190614a19565b9050612565565b600082600301540361249f578160010160009054906101000a900473ffffffffffffffffffffffffffffffffffffffff1673ffffffffffffffffffffffffffffffffffffffff166342842e0e868460020160009054906101000a900473ffffffffffffffffffffffffffffffffffffffff1685600401546040518463ffffffff1660e01b815260040161246593929190614c41565b600060405180830381600087803b15801561247f57600080fd5b505af1925050508015612490575060015b1561249a57600190505b612564565b8160010160009054906101000a900473ffffffffffffffffffffffffffffffffffffffff1673ffffffffffffffffffffffffffffffffffffffff1663f242432a868460020160009054906101000a900473ffffffffffffffffffffffffffffffffffffffff16856004015486600301546040518563ffffffff1660e01b815260040161252e9493929190614c9e565b600060405180830381600087803b15801561254857600080fd5b505af1925050508015612559575060015b1561256357600190505b5b5b8061262b578160020160009054906101000a900473ffffffffffffffffffffffffffffffffffffffff1673ffffffffffffffffffffffffffffffffffffffff168573ffffffffffffffffffffffffffffffffffffffff16427f38ac674ea617efa156301feeeaafc9168b433221ece94a2eedcf92e43215353a8560010160009054906101000a900473ffffffffffffffffffffffffffffffffffffffff168660030154876004015488600501546040516126229493929190614856565b60405180910390a45b6126388260050154612a67565b600c6000848152602001908152602001600020600080820160006101000a81549073ffffffffffffffffffffffffffffffffffffffff02191690556001820160006101000a81549073ffffffffffffffffffffffffffffffffffffffff02191690556002820160006101000a81549073ffffffffffffffffffffffffffffffffffffffff0219169055600382016000905560048201600090556005820160009055505050505080806126e990614710565b91505061222f565b50600b60008273ffffffffffffffffffffffffffffffffffffffff1673ffffffffffffffffffffffffffffffffffffffff168152602001908152602001600020600061273d9190613c2e565b50565b60008061274c83611460565b90508073ffffffffffffffffffffffffffffffffffffffff168473ffffffffffffffffffffffffffffffffffffffff16148061278e575061278d8185611eec565b5b806127cc57508373ffffffffffffffffffffffffffffffffffffffff166127b48461078c565b73ffffffffffffffffffffffffffffffffffffffff16145b91505092915050565b8273ffffffffffffffffffffffffffffffffffffffff166127f582611460565b73ffffffffffffffffffffffffffffffffffffffff161461284b576040517f08c379a000000000000000000000000000000000000000000000000000000000815260040161284290614d68565b60405180910390fd5b600073ffffffffffffffffffffffffffffffffffffffff168273ffffffffffffffffffffffffffffffffffffffff16036128ba576040517f08c379a00000000000000000000000000000000000000000000000000000000081526004016128b190614dfa565b60405180910390fd5b6128c58383836131f8565b6128d0600082612146565b6001600560008573ffffffffffffffffffffffffffffffffffffffff1673ffffffffffffffffffffffffffffffffffffffff1681526020019081526020016000206000828254612920919061467e565b925050819055506001600560008473ffffffffffffffffffffffffffffffffffffffff1673ffffffffffffffffffffffffffffffffffffffff16815260200190815260200160002060008282546129779190614e1a565b92505081905550816004600083815260200190815260200160002060006101000a81548173ffffffffffffffffffffffffffffffffffffffff021916908373ffffffffffffffffffffffffffffffffffffffff160217905550808273ffffffffffffffffffffffffffffffffffffffff168473ffffffffffffffffffffffffffffffffffffffff167fddf252ad1be2c89b69c2b068fc378daa952ba7f163c4a11628f55a4df523b3ef60405160405180910390a4612a368383836132a9565b505050565b600081600001549050919050565b612a638282604051806020016040528060008152506132ae565b5050565b6000612a7282611460565b9050612a80816000846131f8565b612a8b600083612146565b6001600560008373ffffffffffffffffffffffffffffffffffffffff1673ffffffffffffffffffffffffffffffffffffffff1681526020019081526020016000206000828254612adb919061467e565b925050819055506004600083815260200190815260200160002060006101000a81549073ffffffffffffffffffffffffffffffffffffffff021916905581600073ffffffffffffffffffffffffffffffffffffffff168273ffffffffffffffffffffffffffffffffffffffff167fddf252ad1be2c89b69c2b068fc378daa952ba7f163c4a11628f55a4df523b3ef60405160405180910390a4612b80816000846132a9565b5050565b612b8c61213e565b73ffffffffffffffffffffffffffffffffffffffff16612baa611bed565b73ffffffffffffffffffffffffffffffffffffffff1614612c00576040517f08c379a0000000000000000000000000000000000000000000000000000000008152600401612bf790614e9a565b60405180910390fd5b565b60008060009054906101000a900473ffffffffffffffffffffffffffffffffffffffff169050816000806101000a81548173ffffffffffffffffffffffffffffffffffffffff021916908373ffffffffffffffffffffffffffffffffffffffff1602179055508173ffffffffffffffffffffffffffffffffffffffff168173ffffffffffffffffffffffffffffffffffffffff167f8be0079c531659141344cd1fd0a4f28419497f9722a3daafe3b4186f6b6457e060405160405180910390a35050565b8173ffffffffffffffffffffffffffffffffffffffff168373ffffffffffffffffffffffffffffffffffffffff1603612d34576040517f08c379a0000000000000000000000000000000000000000000000000000000008152600401612d2b90614f06565b60405180910390fd5b80600760008573ffffffffffffffffffffffffffffffffffffffff1673ffffffffffffffffffffffffffffffffffffffff16815260200190815260200160002060008473ffffffffffffffffffffffffffffffffffffffff1673ffffffffffffffffffffffffffffffffffffffff16815260200190815260200160002060006101000a81548160ff0219169083151502179055508173ffffffffffffffffffffffffffffffffffffffff168373ffffffffffffffffffffffffffffffffffffffff167f17307eab39ab6107e8899845ad3d59bd9653f200f220920489ca2b5937696c3183604051612e259190613d20565b60405180910390a3505050565b612e3d8484846127d5565b612e4984848484613309565b612e88576040517f08c379a0000000000000000000000000000000000000000000000000000000008152600401612e7f90614f98565b60405180910390fd5b50505050565b60008073ffffffffffffffffffffffffffffffffffffffff166004600084815260200190815260200160002060009054906101000a900473ffffffffffffffffffffffffffffffffffffffff1673ffffffffffffffffffffffffffffffffffffffff1614159050919050565b606080606060008703612fa5576040518060400160405280600581526020017f455243323000000000000000000000000000000000000000000000000000000081525091506040518060400160405280600581526020017f4552433230000000000000000000000000000000000000000000000000000000815250612f7e89613490565b604051602001612f8f9291906150d8565b60405160208183030381529060405290506130f0565b6000880361304b576040518060400160405280600681526020017f455243373231000000000000000000000000000000000000000000000000000081525091506040518060400160405280600681526020017f455243373231000000000000000000000000000000000000000000000000000081525061302488613490565b604051602001613035929190615184565b60405160208183030381529060405290506130ef565b6040518060400160405280600781526020017f455243313135350000000000000000000000000000000000000000000000000081525091506040518060400160405280600781526020017f45524331313535000000000000000000000000000000000000000000000000008152506130c288613490565b6130cb8a613490565b6040516020016130dd939291906151be565b60405160208183030381529060405290505b5b6000856130fc88613490565b8661310e613109876135f0565b61366d565b604051602001613121949392919061538c565b60405160208183030381529060405290506000816131568e73ffffffffffffffffffffffffffffffffffffffff1660146137d0565b6131778d73ffffffffffffffffffffffffffffffffffffffff1660146137d0565b6131988f73ffffffffffffffffffffffffffffffffffffffff1660146137d0565b866040516020016131ad959493929190615598565b60405160208183030381529060405290506131c78161366d565b6040516020016131d7919061565b565b60405160208183030381529060405294505050505098975050505050505050565b600073ffffffffffffffffffffffffffffffffffffffff168373ffffffffffffffffffffffffffffffffffffffff16141580156132625750600073ffffffffffffffffffffffffffffffffffffffff168273ffffffffffffffffffffffffffffffffffffffff1614155b15613299576040517f23cbb2b200000000000000000000000000000000000000000000000000000000815260040160405180910390fd5b6132a4838383613a0c565b505050565b505050565b6132b88383613a11565b6132c56000848484613309565b613304576040517f08c379a00000000000000000000000000000000000000000000000000000000081526004016132fb90614f98565b60405180910390fd5b505050565b600061332a8473ffffffffffffffffffffffffffffffffffffffff16613bea565b15613483578373ffffffffffffffffffffffffffffffffffffffff1663150b7a0261335361213e565b8786866040518563ffffffff1660e01b8152600401613375949392919061567d565b6020604051808303816000875af19250505080156133b157506040513d601f19601f820116820180604052508101906133ae91906156de565b60015b613433573d80600081146133e1576040519150601f19603f3d011682016040523d82523d6000602084013e6133e6565b606091505b50600081510361342b576040517f08c379a000000000000000000000000000000000000000000000000000000000815260040161342290614f98565b60405180910390fd5b805181602001fd5b63150b7a0260e01b7bffffffffffffffffffffffffffffffffffffffffffffffffffffffff1916817bffffffffffffffffffffffffffffffffffffffffffffffffffffffff191614915050613488565b600190505b949350505050565b6060600082036134d7576040518060400160405280600181526020017f300000000000000000000000000000000000000000000000000000000000000081525090506135eb565b600082905060005b600082146135095780806134f290614710565b915050600a826135029190614bdf565b91506134df565b60008167ffffffffffffffff811115613525576135246142dd565b5b6040519080825280601f01601f1916602001820160405280156135575781602001600182028036833780820191505090505b5090505b600085146135e457600182613570919061467e565b9150600a8561357f9190614c10565b603061358b9190614e1a565b60f81b8183815181106135a1576135a06146b2565b5b60200101907effffffffffffffffffffffffffffffffffffffffffffffffffffffffffffff1916908160001a905350600a856135dd9190614bdf565b945061355b565b8093505050505b919050565b60606040518061020001604052806101d681526020016158ec6101d69139826040518060400160405280601181526020017f3c2f746578743e3c2f673e3c2f7376673e0000000000000000000000000000008152506040516020016136579392919061570b565b6040516020818303038152906040529050919050565b6060600082510361368f576040518060200160405280600081525090506137cb565b6000604051806060016040528060408152602001615ac260409139905060006003600285516136be9190614e1a565b6136c89190614bdf565b60046136d4919061573c565b67ffffffffffffffff8111156136ed576136ec6142dd565b5b6040519080825280601f01601f19166020018201604052801561371f5781602001600182028036833780820191505090505b509050600182016020820185865187015b8082101561378b576003820191508151603f8160121c168501518453600184019350603f81600c1c168501518453600184019350603f8160061c168501518453600184019350603f8116850151845360018401935050613730565b50506003865106600181146137a757600281146137ba576137c2565b603d6001830353603d60028303536137c2565b603d60018303535b50505080925050505b919050565b6060600060028360026137e3919061573c565b6137ed9190614e1a565b67ffffffffffffffff811115613806576138056142dd565b5b6040519080825280601f01601f1916602001820160405280156138385781602001600182028036833780820191505090505b5090507f3000000000000000000000000000000000000000000000000000000000000000816000815181106138705761386f6146b2565b5b60200101907effffffffffffffffffffffffffffffffffffffffffffffffffffffffffffff1916908160001a9053507f7800000000000000000000000000000000000000000000000000000000000000816001815181106138d4576138d36146b2565b5b60200101907effffffffffffffffffffffffffffffffffffffffffffffffffffffffffffff1916908160001a90535060006001846002613914919061573c565b61391e9190614e1a565b90505b60018111156139be577f3031323334353637383961626364656600000000000000000000000000000000600f8616601081106139605761395f6146b2565b5b1a60f81b828281518110613977576139766146b2565b5b60200101907effffffffffffffffffffffffffffffffffffffffffffffffffffffffffffff1916908160001a905350600485901c9450806139b79061577e565b9050613921565b5060008414613a02576040517f08c379a00000000000000000000000000000000000000000000000000000000081526004016139f9906157f3565b60405180910390fd5b8091505092915050565b505050565b600073ffffffffffffffffffffffffffffffffffffffff168273ffffffffffffffffffffffffffffffffffffffff1603613a80576040517f08c379a0000000000000000000000000000000000000000000000000000000008152600401613a779061585f565b60405180910390fd5b613a8981612e8e565b15613ac9576040517f08c379a0000000000000000000000000000000000000000000000000000000008152600401613ac0906158cb565b60405180910390fd5b613ad5600083836131f8565b6001600560008473ffffffffffffffffffffffffffffffffffffffff1673ffffffffffffffffffffffffffffffffffffffff1681526020019081526020016000206000828254613b259190614e1a565b92505081905550816004600083815260200190815260200160002060006101000a81548173ffffffffffffffffffffffffffffffffffffffff021916908373ffffffffffffffffffffffffffffffffffffffff160217905550808273ffffffffffffffffffffffffffffffffffffffff16600073ffffffffffffffffffffffffffffffffffffffff167fddf252ad1be2c89b69c2b068fc378daa952ba7f163c4a11628f55a4df523b3ef60405160405180910390a4613be6600083836132a9565b5050565b6000808273ffffffffffffffffffffffffffffffffffffffff163b119050919050565b5080546000825590600052602060002090810190613c2b9190613c4f565b50565b5080546000825590600052602060002090810190613c4c9190613c4f565b50565b5b80821115613c68576000816000905550600101613c50565b5090565b6000604051905090565b600080fd5b600080fd5b60007fffffffff0000000000000000000000000000000000000000000000000000000082169050919050565b613cb581613c80565b8114613cc057600080fd5b50565b600081359050613cd281613cac565b92915050565b600060208284031215613cee57613ced613c76565b5b6000613cfc84828501613cc3565b91505092915050565b60008115159050919050565b613d1a81613d05565b82525050565b6000602082019050613d356000830184613d11565b92915050565b600081519050919050565b600082825260208201905092915050565b60005b83811015613d75578082015181840152602081019050613d5a565b60008484015250505050565b6000601f19601f8301169050919050565b6000613d9d82613d3b565b613da78185613d46565b9350613db7818560208601613d57565b613dc081613d81565b840191505092915050565b60006020820190508181036000830152613de58184613d92565b905092915050565b6000819050919050565b613e0081613ded565b8114613e0b57600080fd5b50565b600081359050613e1d81613df7565b92915050565b600060208284031215613e3957613e38613c76565b5b6000613e4784828501613e0e565b91505092915050565b600073ffffffffffffffffffffffffffffffffffffffff82169050919050565b6000613e7b82613e50565b9050919050565b613e8b81613e70565b82525050565b6000602082019050613ea66000830184613e82565b92915050565b613eb581613e70565b8114613ec057600080fd5b50565b600081359050613ed281613eac565b92915050565b60008060408385031215613eef57613eee613c76565b5b6000613efd85828601613ec3565b9250506020613f0e85828601613e0e565b9150509250929050565b600080600060608486031215613f3157613f30613c76565b5b6000613f3f86828701613ec3565b9350506020613f5086828701613ec3565b9250506040613f6186828701613e0e565b9150509250925092565b600080fd5b600080fd5b600080fd5b60008083601f840112613f9057613f8f613f6b565b5b8235905067ffffffffffffffff811115613fad57613fac613f70565b5b602083019150836001820283011115613fc957613fc8613f75565b5b9250929050565b60008060208385031215613fe757613fe6613c76565b5b600083013567ffffffffffffffff81111561400557614004613c7b565b5b61401185828601613f7a565b92509250509250929050565b6000806000806080858703121561403757614036613c76565b5b600061404587828801613ec3565b945050602061405687828801613ec3565b935050604061406787828801613e0e565b925050606061407887828801613e0e565b91505092959194509250565b6000806040838503121561409b5761409a613c76565b5b60006140a985828601613e0e565b92505060206140ba85828601613e0e565b9150509250929050565b600081519050919050565b600082825260208201905092915050565b60006140eb826140c4565b6140f581856140cf565b9350614105818560208601613d57565b61410e81613d81565b840191505092915050565b600060408201905061412e6000830185613d11565b818103602083015261414081846140e0565b90509392505050565b60006020828403121561415f5761415e613c76565b5b600061416d84828501613ec3565b91505092915050565b61417f81613ded565b82525050565b600060208201905061419a6000830184614176565b92915050565b60006141ab82613e70565b9050919050565b6141bb816141a0565b81146141c657600080fd5b50565b6000813590506141d8816141b2565b92915050565b6000602082840312156141f4576141f3613c76565b5b6000614202848285016141c9565b91505092915050565b600060c0820190506142206000830189613e82565b61422d6020830188613e82565b61423a6040830187613e82565b6142476060830186614176565b6142546080830185614176565b61426160a0830184614176565b979650505050505050565b61427581613d05565b811461428057600080fd5b50565b6000813590506142928161426c565b92915050565b600080604083850312156142af576142ae613c76565b5b60006142bd85828601613ec3565b92505060206142ce85828601614283565b9150509250929050565b600080fd5b7f4e487b7100000000000000000000000000000000000000000000000000000000600052604160045260246000fd5b61431582613d81565b810181811067ffffffffffffffff82111715614334576143336142dd565b5b80604052505050565b6000614347613c6c565b9050614353828261430c565b919050565b600067ffffffffffffffff821115614373576143726142dd565b5b61437c82613d81565b9050602081019050919050565b82818337600083830152505050565b60006143ab6143a684614358565b61433d565b9050828152602081018484840111156143c7576143c66142d8565b5b6143d2848285614389565b509392505050565b600082601f8301126143ef576143ee613f6b565b5b81356143ff848260208601614398565b91505092915050565b6000806000806080858703121561442257614421613c76565b5b600061443087828801613ec3565b945050602061444187828801613ec3565b935050604061445287828801613e0e565b925050606085013567ffffffffffffffff81111561447357614472613c7b565b5b61447f878288016143da565b91505092959194509250565b600080604083850312156144a2576144a1613c76565b5b60006144b085828601613ec3565b92505060206144c185828601613ec3565b9150509250929050565b7f4e487b7100000000000000000000000000000000000000000000000000000000600052602260045260246000fd5b6000600282049050600182168061451257607f821691505b602082108103614525576145246144cb565b5b50919050565b7f4552433732313a20617070726f76616c20746f2063757272656e74206f776e6560008201527f7200000000000000000000000000000000000000000000000000000000000000602082015250565b6000614587602183613d46565b91506145928261452b565b604082019050919050565b600060208201905081810360008301526145b68161457a565b9050919050565b7f4552433732313a20617070726f76652063616c6c6572206973206e6f7420746f60008201527f6b656e206f776e6572206e6f7220617070726f76656420666f7220616c6c0000602082015250565b6000614619603e83613d46565b9150614624826145bd565b604082019050919050565b600060208201905081810360008301526146488161460c565b9050919050565b7f4e487b7100000000000000000000000000000000000000000000000000000000600052601160045260246000fd5b600061468982613ded565b915061469483613ded565b92508282039050818111156146ac576146ab61464f565b5b92915050565b7f4e487b7100000000000000000000000000000000000000000000000000000000600052603260045260246000fd5b7f4e487b7100000000000000000000000000000000000000000000000000000000600052603160045260246000fd5b600061471b82613ded565b91507fffffffffffffffffffffffffffffffffffffffffffffffffffffffffffffffff820361474d5761474c61464f565b5b600182019050919050565b7f5265656e7472616e637947756172643a207265656e7472616e742063616c6c00600082015250565b600061478e601f83613d46565b915061479982614758565b602082019050919050565b600060208201905081810360008301526147bd81614781565b9050919050565b7f4552433732313a2063616c6c6572206973206e6f7420746f6b656e206f776e6560008201527f72206e6f7220617070726f766564000000000000000000000000000000000000602082015250565b6000614820602e83613d46565b915061482b826147c4565b604082019050919050565b6000602082019050818103600083015261484f81614813565b9050919050565b600060808201905061486b6000830187613e82565b6148786020830186614176565b6148856040830185614176565b6148926060830184614176565b95945050505050565b7f4552433732313a20696e76616c696420746f6b656e2049440000000000000000600082015250565b60006148d1601883613d46565b91506148dc8261489b565b602082019050919050565b60006020820190508181036000830152614900816148c4565b9050919050565b7f4552433732313a2061646472657373207a65726f206973206e6f74206120766160008201527f6c6964206f776e65720000000000000000000000000000000000000000000000602082015250565b6000614963602983613d46565b915061496e82614907565b604082019050919050565b6000602082019050818103600083015261499281614956565b9050919050565b6000815190506149a881613df7565b92915050565b6000602082840312156149c4576149c3613c76565b5b60006149d284828501614999565b91505092915050565b60006040820190506149f06000830185613e82565b6149fd6020830184614176565b9392505050565b600081519050614a138161426c565b92915050565b600060208284031215614a2f57614a2e613c76565b5b6000614a3d84828501614a04565b91505092915050565b7f556e61626c6520746f207472616e736665720000000000000000000000000000600082015250565b6000614a7c601283613d46565b9150614a8782614a46565b602082019050919050565b60006020820190508181036000830152614aab81614a6f565b9050919050565b7f4578706972333a204e6f6e2d4578697374656e7420546f6b656e204944000000600082015250565b6000614ae8601d83613d46565b9150614af382614ab2565b602082019050919050565b60006020820190508181036000830152614b1781614adb565b9050919050565b7f4f776e61626c653a206e6577206f776e657220697320746865207a65726f206160008201527f6464726573730000000000000000000000000000000000000000000000000000602082015250565b6000614b7a602683613d46565b9150614b8582614b1e565b604082019050919050565b60006020820190508181036000830152614ba981614b6d565b9050919050565b7f4e487b7100000000000000000000000000000000000000000000000000000000600052601260045260246000fd5b6000614bea82613ded565b9150614bf583613ded565b925082614c0557614c04614bb0565b5b828204905092915050565b6000614c1b82613ded565b9150614c2683613ded565b925082614c3657614c35614bb0565b5b828206905092915050565b6000606082019050614c566000830186613e82565b614c636020830185613e82565b614c706040830184614176565b949350505050565b50565b6000614c886000836140cf565b9150614c9382614c78565b600082019050919050565b600060a082019050614cb36000830187613e82565b614cc06020830186613e82565b614ccd6040830185614176565b614cda6060830184614176565b8181036080830152614ceb81614c7b565b905095945050505050565b7f4552433732313a207472616e736665722066726f6d20696e636f72726563742060008201527f6f776e6572000000000000000000000000000000000000000000000000000000602082015250565b6000614d52602583613d46565b9150614d5d82614cf6565b604082019050919050565b60006020820190508181036000830152614d8181614d45565b9050919050565b7f4552433732313a207472616e7366657220746f20746865207a65726f2061646460008201527f7265737300000000000000000000000000000000000000000000000000000000602082015250565b6000614de4602483613d46565b9150614def82614d88565b604082019050919050565b60006020820190508181036000830152614e1381614dd7565b9050919050565b6000614e2582613ded565b9150614e3083613ded565b9250828201905080821115614e4857614e4761464f565b5b92915050565b7f4f776e61626c653a2063616c6c6572206973206e6f7420746865206f776e6572600082015250565b6000614e84602083613d46565b9150614e8f82614e4e565b602082019050919050565b60006020820190508181036000830152614eb381614e77565b9050919050565b7f4552433732313a20617070726f766520746f2063616c6c657200000000000000600082015250565b6000614ef0601983613d46565b9150614efb82614eba565b602082019050919050565b60006020820190508181036000830152614f1f81614ee3565b9050919050565b7f4552433732313a207472616e7366657220746f206e6f6e20455243373231526560008201527f63656976657220696d706c656d656e7465720000000000000000000000000000602082015250565b6000614f82603283613d46565b9150614f8d82614f26565b604082019050919050565b60006020820190508181036000830152614fb181614f75565b9050919050565b600081905092915050565b7f227d2c7b2274726169745f74797065223a22546f6b656e2054797065222c227660008201527f616c7565223a2200000000000000000000000000000000000000000000000000602082015250565b600061501f602783614fb8565b915061502a82614fc3565b602782019050919050565b600061504082613d3b565b61504a8185614fb8565b935061505a818560208601613d57565b80840191505092915050565b7f227d2c7b2274726169745f74797065223a22616d6f756e74222c2276616c756560008201527f223a220000000000000000000000000000000000000000000000000000000000602082015250565b60006150c2602383614fb8565b91506150cd82615066565b602382019050919050565b60006150e382615012565b91506150ef8285615035565b91506150fa826150b5565b91506151068284615035565b91508190509392505050565b7f227d2c7b2274726169745f74797065223a22746f6b656e4964222c2276616c7560008201527f65223a2200000000000000000000000000000000000000000000000000000000602082015250565b600061516e602483614fb8565b915061517982615112565b602482019050919050565b600061518f82615012565b915061519b8285615035565b91506151a682615161565b91506151b28284615035565b91508190509392505050565b60006151c982615012565b91506151d58286615035565b91506151e082615161565b91506151ec8285615035565b91506151f7826150b5565b91506152038284615035565b9150819050949350505050565b7f7b226e616d65223a220000000000000000000000000000000000000000000000600082015250565b6000615246600983614fb8565b915061525182615210565b600982019050919050565b7f2023000000000000000000000000000000000000000000000000000000000000600082015250565b6000615292600283614fb8565b915061529d8261525c565b600282019050919050565b7f222c2273796d626f6c223a220000000000000000000000000000000000000000600082015250565b60006152de600c83614fb8565b91506152e9826152a8565b600c82019050919050565b7f222c226465736372697074696f6e223a224578706972333a20596f7572206f6e60008201527f2d636861696e2077696c6c222c22696d616765223a2022646174613a696d616760208201527f652f7376672b786d6c3b6261736536342c000000000000000000000000000000604082015250565b6000615376605183614fb8565b9150615381826152f4565b605182019050919050565b600061539782615239565b91506153a38287615035565b91506153ae82615285565b91506153ba8286615035565b91506153c5826152d1565b91506153d18285615035565b91506153dc82615369565b91506153e88284615035565b915081905095945050505050565b7f222c2261747472696275746573223a5b7b2274726169745f74797065223a227460008201527f65737461746f72222c2276616c7565223a220000000000000000000000000000602082015250565b6000615452603283614fb8565b915061545d826153f6565b603282019050919050565b7f227d2c7b2274726169745f74797065223a2262656e6566696369617279222c2260008201527f76616c7565223a22000000000000000000000000000000000000000000000000602082015250565b60006154c4602883614fb8565b91506154cf82615468565b602882019050919050565b7f227d2c7b2274726169745f74797065223a22746f6b656e222c2276616c75652260008201527f3a22000000000000000000000000000000000000000000000000000000000000602082015250565b6000615536602283614fb8565b9150615541826154da565b602282019050919050565b7f227d5d7d00000000000000000000000000000000000000000000000000000000600082015250565b6000615582600483614fb8565b915061558d8261554c565b600482019050919050565b60006155a48288615035565b91506155af82615445565b91506155bb8287615035565b91506155c6826154b7565b91506155d28286615035565b91506155dd82615529565b91506155e98285615035565b91506155f58284615035565b915061560082615575565b91508190509695505050505050565b7f646174613a6170706c69636174696f6e2f6a736f6e3b6261736536342c000000600082015250565b6000615645601d83614fb8565b91506156508261560f565b601d82019050919050565b600061566682615638565b91506156728284615035565b915081905092915050565b60006080820190506156926000830187613e82565b61569f6020830186613e82565b6156ac6040830185614176565b81810360608301526156be81846140e0565b905095945050505050565b6000815190506156d881613cac565b92915050565b6000602082840312156156f4576156f3613c76565b5b6000615702848285016156c9565b91505092915050565b60006157178286615035565b91506157238285615035565b915061572f8284615035565b9150819050949350505050565b600061574782613ded565b915061575283613ded565b925082820261576081613ded565b915082820484148315176157775761577661464f565b5b5092915050565b600061578982613ded565b91506000820361579c5761579b61464f565b5b600182039050919050565b7f537472696e67733a20686578206c656e67746820696e73756666696369656e74600082015250565b60006157dd602083613d46565b91506157e8826157a7565b602082019050919050565b6000602082019050818103600083015261580c816157d0565b9050919050565b7f4552433732313a206d696e7420746f20746865207a65726f2061646472657373600082015250565b6000615849602083613d46565b915061585482615813565b602082019050919050565b600060208201905081810360008301526158788161583c565b9050919050565b7f4552433732313a20746f6b656e20616c7265616479206d696e74656400000000600082015250565b60006158b5601c83613d46565b91506158c08261587f565b602082019050919050565b600060208201905081810360008301526158e4816158a8565b905091905056fe3c73766720786d6c6e733d22687474703a2f2f7777772e77332e6f72672f323030302f737667222077696474683d2235303022206865696768743d22353030222076696577426f783d2230203020353030203530302220666f6e742d66616d696c793d222d6170706c652d73797374656d2c426c696e6b4d616353797374656d466f6e742c275365676f65205549272c2748656c766574696361204e657565272c417269616c2c73616e732d7365726966223e3c7265637420783d22302220793d2230222077696474683d223130302522206865696768743d2231303025222066696c6c3d2223656565222072783d2231302522202f3e3c672069643d2274657874222066696c6c3d22626c61636b2220666f6e742d73697a653d2238302220666f6e742d7765696768743d223530302220746578742d616e63686f723d226d6964646c65223e3c7465787420783d223530252220793d223430252220666f6e742d7765696768743d22373030223e4578706972333c2f746578743e3c7465787420783d223530252220793d22363525223e4c65676163793c2f746578743e3c7465787420783d223930252220793d223930252220666f6e742d73697a653d2233362220746578742d616e63686f723d22656e64223e4142434445464748494a4b4c4d4e4f505152535455565758595a6162636465666768696a6b6c6d6e6f707172737475767778797a303132333435363738392b2fa264697066735822122074375628f57456faa01bbc620eb65fbe4e6525aa594d0c4dafa39a112d66744a64736f6c63430008110033",
  "linkReferences": {},
  "deployedLinkReferences": {}
}